{
  "_format": "hh-sol-artifact-1",
  "contractName": "Vether",
  "sourceName": "contracts/Vether.sol",
  "abi": [
    {
      "inputs": [],
      "stateMutability": "nonpayable",
      "type": "constructor"
    },
    {
      "anonymous": false,
      "inputs": [
        {
          "indexed": true,
          "internalType": "address",
          "name": "owner",
          "type": "address"
        },
        {
          "indexed": true,
          "internalType": "address",
          "name": "spender",
          "type": "address"
        },
        {
          "indexed": false,
          "internalType": "uint256",
          "name": "value",
          "type": "uint256"
        }
      ],
      "name": "Approval",
      "type": "event"
    },
    {
      "anonymous": false,
      "inputs": [
        {
          "indexed": true,
          "internalType": "address",
          "name": "from",
          "type": "address"
        },
        {
          "indexed": true,
          "internalType": "address",
          "name": "to",
          "type": "address"
        },
        {
          "indexed": false,
          "internalType": "uint256",
          "name": "value",
          "type": "uint256"
        }
      ],
      "name": "Transfer",
      "type": "event"
    },
    {
      "inputs": [
        {
          "internalType": "address",
          "name": "excluded",
          "type": "address"
        }
      ],
      "name": "addExcluded",
      "outputs": [],
      "stateMutability": "nonpayable",
      "type": "function"
    },
    {
      "inputs": [
        {
          "internalType": "address",
          "name": "owner",
          "type": "address"
        },
        {
          "internalType": "address",
          "name": "spender",
          "type": "address"
        }
      ],
      "name": "allowance",
      "outputs": [
        {
          "internalType": "uint256",
          "name": "",
          "type": "uint256"
        }
      ],
      "stateMutability": "view",
      "type": "function"
    },
    {
      "inputs": [
        {
          "internalType": "address",
          "name": "spender",
          "type": "address"
        },
        {
          "internalType": "uint256",
          "name": "amount",
          "type": "uint256"
        }
      ],
      "name": "approve",
      "outputs": [
        {
          "internalType": "bool",
          "name": "",
          "type": "bool"
        }
      ],
      "stateMutability": "nonpayable",
      "type": "function"
    },
    {
      "inputs": [
        {
          "internalType": "address",
          "name": "account",
          "type": "address"
        }
      ],
      "name": "balanceOf",
      "outputs": [
        {
          "internalType": "uint256",
          "name": "",
          "type": "uint256"
        }
      ],
      "stateMutability": "view",
      "type": "function"
    },
    {
      "inputs": [],
      "name": "decimals",
      "outputs": [
        {
          "internalType": "uint8",
          "name": "",
          "type": "uint8"
        }
      ],
      "stateMutability": "view",
      "type": "function"
    },
    {
      "inputs": [
        {
          "internalType": "address",
          "name": "spender",
          "type": "address"
        },
        {
          "internalType": "uint256",
          "name": "subtractedValue",
          "type": "uint256"
        }
      ],
      "name": "decreaseAllowance",
      "outputs": [
        {
          "internalType": "bool",
          "name": "",
          "type": "bool"
        }
      ],
      "stateMutability": "nonpayable",
      "type": "function"
    },
    {
      "inputs": [
        {
          "internalType": "address",
          "name": "spender",
          "type": "address"
        },
        {
          "internalType": "uint256",
          "name": "addedValue",
          "type": "uint256"
        }
      ],
      "name": "increaseAllowance",
      "outputs": [
        {
          "internalType": "bool",
          "name": "",
          "type": "bool"
        }
      ],
      "stateMutability": "nonpayable",
      "type": "function"
    },
    {
      "inputs": [
        {
          "internalType": "address",
          "name": "",
          "type": "address"
        }
      ],
      "name": "mapAddress_Excluded",
      "outputs": [
        {
          "internalType": "bool",
          "name": "",
          "type": "bool"
        }
      ],
      "stateMutability": "view",
      "type": "function"
    },
    {
      "inputs": [],
      "name": "name",
      "outputs": [
        {
          "internalType": "string",
          "name": "",
          "type": "string"
        }
      ],
      "stateMutability": "view",
      "type": "function"
    },
    {
      "inputs": [],
      "name": "symbol",
      "outputs": [
        {
          "internalType": "string",
          "name": "",
          "type": "string"
        }
      ],
      "stateMutability": "view",
      "type": "function"
    },
    {
      "inputs": [],
      "name": "totalFees",
      "outputs": [
        {
          "internalType": "uint256",
          "name": "",
          "type": "uint256"
        }
      ],
      "stateMutability": "view",
      "type": "function"
    },
    {
      "inputs": [],
      "name": "totalSupply",
      "outputs": [
        {
          "internalType": "uint256",
          "name": "",
          "type": "uint256"
        }
      ],
      "stateMutability": "view",
      "type": "function"
    },
    {
      "inputs": [
        {
          "internalType": "address",
          "name": "recipient",
          "type": "address"
        },
        {
          "internalType": "uint256",
          "name": "amount",
          "type": "uint256"
        }
      ],
      "name": "transfer",
      "outputs": [
        {
          "internalType": "bool",
          "name": "",
          "type": "bool"
        }
      ],
      "stateMutability": "nonpayable",
      "type": "function"
    },
    {
      "inputs": [
        {
          "internalType": "address",
          "name": "sender",
          "type": "address"
        },
        {
          "internalType": "address",
          "name": "recipient",
          "type": "address"
        },
        {
          "internalType": "uint256",
          "name": "amount",
          "type": "uint256"
        }
      ],
      "name": "transferFrom",
      "outputs": [
        {
          "internalType": "bool",
          "name": "",
          "type": "bool"
        }
      ],
      "stateMutability": "nonpayable",
      "type": "function"
    }
  ],
  "bytecode": "0x60806040523480156200001157600080fd5b50620000206012600a620000e5565b6200002f90620f4240620001dd565b33600081815260026020526040812092909255907fddf252ad1be2c89b69c2b068fc378daa952ba7f163c4a11628f55a4df523b3ef620000726012600a620000e5565b6200008190620f4240620001dd565b60405190815260200160405180910390a362000215565b80825b6001808611620000ac5750620000dc565b818704821115620000c157620000c1620001ff565b80861615620000cf57918102915b9490941c9380026200009b565b94509492505050565b6000620000f960001960ff85168462000100565b9392505050565b6000826200011157506001620000f9565b816200012057506000620000f9565b8160018114620001395760028114620001445762000178565b6001915050620000f9565b60ff841115620001585762000158620001ff565b6001841b915084821115620001715762000171620001ff565b50620000f9565b5060208310610133831016604e8410600b8410161715620001b0575081810a83811115620001aa57620001aa620001ff565b620000f9565b620001bf848484600162000098565b808604821115620001d457620001d4620001ff565b02949350505050565b6000816000190483118215151615620001fa57620001fa620001ff565b500290565b634e487b7160e01b600052601160045260246000fd5b610a7880620002256000396000f3fe608060405234801561001057600080fd5b50600436106100ea5760003560e01c80634f8eddb21161008c578063a457c2d711610066578063a457c2d714610205578063a9059cbb14610218578063a93215731461022b578063dd62ed3e14610262576100ea565b80634f8eddb2146101ac57806370a08231146101cf57806395d89b41146101e2576100ea565b806318160ddd116100c857806318160ddd1461016457806323b872dd1461016c578063313ce5671461017f5780633950935114610199576100ea565b806306fdde03146100ef578063095ea7b31461012a57806313114a9d1461014d575b600080fd5b610114604051806040016040528060068152602001652b32ba3432b960d11b81525081565b6040516101219190610854565b60405180910390f35b61013d61013836600461082b565b61029b565b6040519015158152602001610121565b61015660005481565b604051908152602001610121565b6101566102b1565b61013d61017a3660046107f0565b6102cd565b610187601281565b60405160ff9091168152602001610121565b61013d6101a736600461082b565b61034d565b61013d6101ba3660046107a4565b60016020526000908152604090205460ff1681565b6101566101dd3660046107a4565b610384565b610114604051806040016040528060048152602001630ac8aa8960e31b81525081565b61013d61021336600461082b565b6103a3565b61013d61022636600461082b565b6103da565b6102606102393660046107a4565b6001600160a01b03166000908152600160208190526040909120805460ff19169091179055565b005b6101566102703660046107be565b6001600160a01b03918216600090815260036020908152604080832093909416825291909152205490565b60006102a83384846103e7565b50600192915050565b6102bd6012600a610925565b6102ca90620f42406109f6565b81565b60006102da848484610513565b6001600160a01b03841660009081526003602090815260408083203384529091529020546000191115610342576001600160a01b03841660009081526003602090815260408083203380855292529091205461034291869161033d908690610a15565b6103e7565b5060015b9392505050565b3360008181526003602090815260408083206001600160a01b038716845290915281205490916102a891859061033d9086906108a7565b6001600160a01b0381166000908152600260205260409020545b919050565b3360008181526003602090815260408083206001600160a01b038716845290915281205490916102a891859061033d908690610a15565b60006102a8338484610513565b6001600160a01b0383166104505760405162461bcd60e51b815260206004820152602560248201527f6945524332303a20617070726f76652066726f6d20746865207a65726f206164604482015264647265737360d81b60648201526084015b60405180910390fd5b6001600160a01b0382166104b25760405162461bcd60e51b815260206004820152602360248201527f6945524332303a20617070726f766520746f20746865207a65726f206164647260448201526265737360e81b6064820152608401610447565b6001600160a01b0383811660008181526003602090815260408083209487168084529482529182902085905590518481527f8c5be1e5ebec7d5bd14f71427d1e84f3dd0314c0f7b2291e5b200ac8c7c3b925910160405180910390a3505050565b6001600160a01b03831660009081526002602052604090205481111561057b5760405162461bcd60e51b815260206004820152601f60248201527f4d757374206e6f742073656e64206d6f7265207468616e2062616c616e6365006044820152606401610447565b6001600160a01b03821660009081526002602052604090205461059e82826108a7565b10156105df5760405162461bcd60e51b815260206004820152601060248201526f42616c616e6365206f766572666c6f7760801b6044820152606401610447565b6001600160a01b03831660009081526002602052604081208054839290610607908490610a15565b909155506000905061061a84848461072d565b90506106268183610a15565b6001600160a01b0384166000908152600260205260408120805490919061064e9084906108a7565b909155505080156106965730600090815260026020526040812080548392906106789084906108a7565b925050819055508060008082825461069091906108a7565b90915550505b6001600160a01b038084169085167fddf252ad1be2c89b69c2b068fc378daa952ba7f163c4a11628f55a4df523b3ef6106cf8486610a15565b60405190815260200160405180910390a380156107275760405181815230906001600160a01b038616907fddf252ad1be2c89b69c2b068fc378daa952ba7f163c4a11628f55a4df523b3ef9060200160405180910390a35b50505050565b6001600160a01b03831660009081526001602052604081205460ff168061076c57506001600160a01b03831660009081526001602052604090205460ff165b1561077957506000610346565b6107856103e8836108bf565b949350505050565b80356001600160a01b038116811461039e57600080fd5b6000602082840312156107b5578081fd5b6103468261078d565b600080604083850312156107d0578081fd5b6107d98361078d565b91506107e76020840161078d565b90509250929050565b600080600060608486031215610804578081fd5b61080d8461078d565b925061081b6020850161078d565b9150604084013590509250925092565b6000806040838503121561083d578182fd5b6108468361078d565b946020939093013593505050565b6000602080835283518082850152825b8181101561088057858101830151858201604001528201610864565b818111156108915783604083870101525b50601f01601f1916929092016040019392505050565b600082198211156108ba576108ba610a2c565b500190565b6000826108da57634e487b7160e01b81526012600452602481fd5b500490565b80825b60018086116108f1575061091c565b81870482111561090357610903610a2c565b8086161561091057918102915b9490941c9380026108e2565b94509492505050565b600061034660001960ff85168460008261094157506001610346565b8161094e57506000610346565b8160018114610964576002811461096e5761099b565b6001915050610346565b60ff84111561097f5761097f610a2c565b6001841b91508482111561099557610995610a2c565b50610346565b5060208310610133831016604e8410600b84101617156109ce575081810a838111156109c9576109c9610a2c565b610346565b6109db84848460016108df565b8086048211156109ed576109ed610a2c565b02949350505050565b6000816000190483118215151615610a1057610a10610a2c565b500290565b600082821015610a2757610a27610a2c565b500390565b634e487b7160e01b600052601160045260246000fdfea2646970667358221220c55f93bbd13118f266b1c9c0fa6bf3edecee41b54cdf53926256182608a20ed264736f6c63430008030033",
  "linkReferences": {},
  "deployedLinkReferences": {}
}