{
  "_format": "hh-sol-artifact-1",
  "contractName": "Token1",
  "sourceName": "contracts/Token1.sol",
  "abi": [
    {
      "inputs": [],
      "stateMutability": "nonpayable",
      "type": "constructor"
    },
    {
      "anonymous": false,
      "inputs": [
        {
          "indexed": true,
          "internalType": "address",
          "name": "owner",
          "type": "address"
        },
        {
          "indexed": true,
          "internalType": "address",
          "name": "spender",
          "type": "address"
        },
        {
          "indexed": false,
          "internalType": "uint256",
          "name": "value",
          "type": "uint256"
        }
      ],
      "name": "Approval",
      "type": "event"
    },
    {
      "anonymous": false,
      "inputs": [
        {
          "indexed": true,
          "internalType": "address",
          "name": "from",
          "type": "address"
        },
        {
          "indexed": true,
          "internalType": "address",
          "name": "to",
          "type": "address"
        },
        {
          "indexed": false,
          "internalType": "uint256",
          "name": "value",
          "type": "uint256"
        }
      ],
      "name": "Transfer",
      "type": "event"
    },
    {
      "inputs": [
        {
          "internalType": "address",
          "name": "owner",
          "type": "address"
        },
        {
          "internalType": "address",
          "name": "spender",
          "type": "address"
        }
      ],
      "name": "allowance",
      "outputs": [
        {
          "internalType": "uint256",
          "name": "",
          "type": "uint256"
        }
      ],
      "stateMutability": "view",
      "type": "function"
    },
    {
      "inputs": [
        {
          "internalType": "address",
          "name": "spender",
          "type": "address"
        },
        {
          "internalType": "uint256",
          "name": "amount",
          "type": "uint256"
        }
      ],
      "name": "approve",
      "outputs": [
        {
          "internalType": "bool",
          "name": "",
          "type": "bool"
        }
      ],
      "stateMutability": "nonpayable",
      "type": "function"
    },
    {
      "inputs": [
        {
          "internalType": "address",
          "name": "account",
          "type": "address"
        }
      ],
      "name": "balanceOf",
      "outputs": [
        {
          "internalType": "uint256",
          "name": "",
          "type": "uint256"
        }
      ],
      "stateMutability": "view",
      "type": "function"
    },
    {
      "inputs": [
        {
          "internalType": "uint256",
          "name": "amount",
          "type": "uint256"
        }
      ],
      "name": "burn",
      "outputs": [],
      "stateMutability": "nonpayable",
      "type": "function"
    },
    {
      "inputs": [
        {
          "internalType": "address",
          "name": "account",
          "type": "address"
        },
        {
          "internalType": "uint256",
          "name": "amount",
          "type": "uint256"
        }
      ],
      "name": "burnFrom",
      "outputs": [],
      "stateMutability": "nonpayable",
      "type": "function"
    },
    {
      "inputs": [],
      "name": "decimals",
      "outputs": [
        {
          "internalType": "uint8",
          "name": "",
          "type": "uint8"
        }
      ],
      "stateMutability": "view",
      "type": "function"
    },
    {
      "inputs": [],
      "name": "name",
      "outputs": [
        {
          "internalType": "string",
          "name": "",
          "type": "string"
        }
      ],
      "stateMutability": "view",
      "type": "function"
    },
    {
      "inputs": [],
      "name": "symbol",
      "outputs": [
        {
          "internalType": "string",
          "name": "",
          "type": "string"
        }
      ],
      "stateMutability": "view",
      "type": "function"
    },
    {
      "inputs": [],
      "name": "totalSupply",
      "outputs": [
        {
          "internalType": "uint256",
          "name": "",
          "type": "uint256"
        }
      ],
      "stateMutability": "view",
      "type": "function"
    },
    {
      "inputs": [
        {
          "internalType": "address",
          "name": "recipient",
          "type": "address"
        },
        {
          "internalType": "uint256",
          "name": "amount",
          "type": "uint256"
        }
      ],
      "name": "transfer",
      "outputs": [
        {
          "internalType": "bool",
          "name": "",
          "type": "bool"
        }
      ],
      "stateMutability": "nonpayable",
      "type": "function"
    },
    {
      "inputs": [
        {
          "internalType": "address",
          "name": "sender",
          "type": "address"
        },
        {
          "internalType": "address",
          "name": "recipient",
          "type": "address"
        },
        {
          "internalType": "uint256",
          "name": "amount",
          "type": "uint256"
        }
      ],
      "name": "transferFrom",
      "outputs": [
        {
          "internalType": "bool",
          "name": "",
          "type": "bool"
        }
      ],
      "stateMutability": "nonpayable",
      "type": "function"
    }
  ],
  "bytecode": "0x6080604052620000126012600a620001d9565b6200002290633b9aca00620002d1565b6002553480156200003257600080fd5b50600254336000908152600360209081526040808320939093558251808401909352600680845265546f6b656e3160d01b93909101928352620000769290620000e6565b5060408051808201909152600480825263544b4e3160e01b6020909201918252620000a491600191620000e6565b5060025460405190815233906000907fddf252ad1be2c89b69c2b068fc378daa952ba7f163c4a11628f55a4df523b3ef9060200160405180910390a362000346565b828054620000f490620002f3565b90600052602060002090601f01602090048101928262000118576000855562000163565b82601f106200013357805160ff191683800117855562000163565b8280016001018555821562000163579182015b828111156200016357825182559160200191906001019062000146565b506200017192915062000175565b5090565b5b8082111562000171576000815560010162000176565b80825b6001808611620001a05750620001d0565b818704821115620001b557620001b562000330565b80861615620001c357918102915b9490941c9380026200018f565b94509492505050565b6000620001ed60001960ff851684620001f4565b9392505050565b6000826200020557506001620001ed565b816200021457506000620001ed565b81600181146200022d576002811462000238576200026c565b6001915050620001ed565b60ff8411156200024c576200024c62000330565b6001841b91508482111562000265576200026562000330565b50620001ed565b5060208310610133831016604e8410600b8410161715620002a4575081810a838111156200029e576200029e62000330565b620001ed565b620002b384848460016200018c565b808604821115620002c857620002c862000330565b02949350505050565b6000816000190483118215151615620002ee57620002ee62000330565b500290565b600181811c908216806200030857607f821691505b602082108114156200032a57634e487b7160e01b600052602260045260246000fd5b50919050565b634e487b7160e01b600052601160045260246000fd5b6107fa80620003566000396000f3fe608060405234801561001057600080fd5b50600436106100a95760003560e01c806342966c681161007157806342966c681461013357806370a082311461014857806379cc67901461015b57806395d89b411461016e578063a9059cbb14610176578063dd62ed3e14610189576100a9565b806306fdde03146100ae578063095ea7b3146100cc57806318160ddd146100ef57806323b872dd14610106578063313ce56714610119575b600080fd5b6100b66101c2565b6040516100c391906106f1565b60405180910390f35b6100df6100da3660046106b0565b610250565b60405190151581526020016100c3565b6100f860025481565b6040519081526020016100c3565b6100df610114366004610675565b610266565b610121601281565b60405160ff90911681526020016100c3565b6101466101413660046106d9565b6102e5565b005b6100f8610156366004610622565b6102f2565b6101466101693660046106b0565b610311565b6100b661035c565b6100df6101843660046106b0565b610369565b6100f8610197366004610643565b6001600160a01b03918216600090815260046020908152604080832093909416825291909152205490565b600080546101cf90610773565b80601f01602080910402602001604051908101604052809291908181526020018280546101fb90610773565b80156102485780601f1061021d57610100808354040283529160200191610248565b820191906000526020600020905b81548152906001019060200180831161022b57829003601f168201915b505050505081565b600061025d338484610376565b50600192915050565b600061027384848461045c565b6001600160a01b038416600090815260046020908152604080832033845290915290205460001911156102db576001600160a01b0384166000908152600460209081526040808320338085529252909120546102db9186916102d690869061075c565b610376565b5060019392505050565b6102ef338261053c565b50565b6001600160a01b0381166000908152600360205260409020545b919050565b6001600160a01b038216600090815260046020908152604080832033845290915281205461034090839061075c565b905061034d833383610376565b610357838361053c565b505050565b600180546101cf90610773565b600061025d33848461045c565b6001600160a01b0383166103ba5760405162461bcd60e51b815260206004820152600660248201526539b2b73232b960d11b60448201526064015b60405180910390fd5b6001600160a01b0382166103fa5760405162461bcd60e51b815260206004820152600760248201526639b832b73232b960c91b60448201526064016103b1565b6001600160a01b0383811660008181526004602090815260408083209487168084529482529182902085905590518481527f8c5be1e5ebec7d5bd14f71427d1e84f3dd0314c0f7b2291e5b200ac8c7c3b92591015b60405180910390a3505050565b6001600160a01b03831661049b5760405162461bcd60e51b815260206004820152600660248201526539b2b73232b960d11b60448201526064016103b1565b6001600160a01b038316600090815260036020526040812080548392906104c390849061075c565b90915550506001600160a01b038216600090815260036020526040812080548392906104f0908490610744565b92505081905550816001600160a01b0316836001600160a01b03167fddf252ad1be2c89b69c2b068fc378daa952ba7f163c4a11628f55a4df523b3ef8360405161044f91815260200190565b6001600160a01b0382166105805760405162461bcd60e51b815260206004820152600b60248201526a30b2323932b9b99032b93960a91b60448201526064016103b1565b6001600160a01b038216600090815260036020526040812080548392906105a890849061075c565b9250508190555080600260008282546105c1919061075c565b90915550506040518181526000906001600160a01b038416907fddf252ad1be2c89b69c2b068fc378daa952ba7f163c4a11628f55a4df523b3ef9060200160405180910390a35050565b80356001600160a01b038116811461030c57600080fd5b600060208284031215610633578081fd5b61063c8261060b565b9392505050565b60008060408385031215610655578081fd5b61065e8361060b565b915061066c6020840161060b565b90509250929050565b600080600060608486031215610689578081fd5b6106928461060b565b92506106a06020850161060b565b9150604084013590509250925092565b600080604083850312156106c2578182fd5b6106cb8361060b565b946020939093013593505050565b6000602082840312156106ea578081fd5b5035919050565b6000602080835283518082850152825b8181101561071d57858101830151858201604001528201610701565b8181111561072e5783604083870101525b50601f01601f1916929092016040019392505050565b60008219821115610757576107576107ae565b500190565b60008282101561076e5761076e6107ae565b500390565b600181811c9082168061078757607f821691505b602082108114156107a857634e487b7160e01b600052602260045260246000fd5b50919050565b634e487b7160e01b600052601160045260246000fdfea2646970667358221220b2dda0bb8fcfd8f498057f3ec89f7d55ae1edf3f952e40b6578e863c5fcda82864736f6c63430008030033",
  "linkReferences": {},
  "deployedLinkReferences": {}
}