{
  "_format": "hh-sol-artifact-1",
  "contractName": "DAO",
  "sourceName": "contracts/DAO.sol",
  "abi": [
    {
      "inputs": [],
      "stateMutability": "nonpayable",
      "type": "constructor"
    },
    {
      "anonymous": false,
      "inputs": [
        {
          "indexed": true,
          "internalType": "address",
          "name": "member",
          "type": "address"
        },
        {
          "indexed": true,
          "internalType": "uint256",
          "name": "oldProposalID",
          "type": "uint256"
        },
        {
          "indexed": false,
          "internalType": "uint256",
          "name": "oldVotes",
          "type": "uint256"
        },
        {
          "indexed": false,
          "internalType": "uint256",
          "name": "newVotes",
          "type": "uint256"
        },
        {
          "indexed": false,
          "internalType": "uint256",
          "name": "totalWeight",
          "type": "uint256"
        }
      ],
      "name": "CancelProposal",
      "type": "event"
    },
    {
      "anonymous": false,
      "inputs": [
        {
          "indexed": true,
          "internalType": "address",
          "name": "member",
          "type": "address"
        },
        {
          "indexed": true,
          "internalType": "uint256",
          "name": "proposalID",
          "type": "uint256"
        },
        {
          "indexed": false,
          "internalType": "uint256",
          "name": "votesCast",
          "type": "uint256"
        },
        {
          "indexed": false,
          "internalType": "uint256",
          "name": "totalWeight",
          "type": "uint256"
        },
        {
          "indexed": false,
          "internalType": "string",
          "name": "proposalType",
          "type": "string"
        }
      ],
      "name": "FinalisedProposal",
      "type": "event"
    },
    {
      "anonymous": false,
      "inputs": [
        {
          "indexed": true,
          "internalType": "address",
          "name": "member",
          "type": "address"
        },
        {
          "indexed": true,
          "internalType": "uint256",
          "name": "proposalID",
          "type": "uint256"
        },
        {
          "indexed": false,
          "internalType": "string",
          "name": "proposalType",
          "type": "string"
        }
      ],
      "name": "NewProposal",
      "type": "event"
    },
    {
      "anonymous": false,
      "inputs": [
        {
          "indexed": true,
          "internalType": "address",
          "name": "member",
          "type": "address"
        },
        {
          "indexed": true,
          "internalType": "uint256",
          "name": "proposalID",
          "type": "uint256"
        },
        {
          "indexed": false,
          "internalType": "uint256",
          "name": "voteWeight",
          "type": "uint256"
        },
        {
          "indexed": false,
          "internalType": "uint256",
          "name": "totalVotes",
          "type": "uint256"
        },
        {
          "indexed": false,
          "internalType": "string",
          "name": "proposalType",
          "type": "string"
        }
      ],
      "name": "NewVote",
      "type": "event"
    },
    {
      "anonymous": false,
      "inputs": [
        {
          "indexed": true,
          "internalType": "address",
          "name": "member",
          "type": "address"
        },
        {
          "indexed": true,
          "internalType": "uint256",
          "name": "proposalID",
          "type": "uint256"
        },
        {
          "indexed": false,
          "internalType": "uint256",
          "name": "timeFinalised",
          "type": "uint256"
        },
        {
          "indexed": false,
          "internalType": "string",
          "name": "proposalType",
          "type": "string"
        }
      ],
      "name": "ProposalFinalising",
      "type": "event"
    },
    {
      "inputs": [],
      "name": "COUNCIL",
      "outputs": [
        {
          "internalType": "address",
          "name": "",
          "type": "address"
        }
      ],
      "stateMutability": "view",
      "type": "function"
    },
    {
      "inputs": [],
      "name": "FACTORY",
      "outputs": [
        {
          "internalType": "address",
          "name": "",
          "type": "address"
        }
      ],
      "stateMutability": "view",
      "type": "function"
    },
    {
      "inputs": [],
      "name": "LENDER",
      "outputs": [
        {
          "internalType": "address",
          "name": "",
          "type": "address"
        }
      ],
      "stateMutability": "view",
      "type": "function"
    },
    {
      "inputs": [],
      "name": "POOLS",
      "outputs": [
        {
          "internalType": "address",
          "name": "",
          "type": "address"
        }
      ],
      "stateMutability": "view",
      "type": "function"
    },
    {
      "inputs": [],
      "name": "RESERVE",
      "outputs": [
        {
          "internalType": "address",
          "name": "",
          "type": "address"
        }
      ],
      "stateMutability": "view",
      "type": "function"
    },
    {
      "inputs": [],
      "name": "ROUTER",
      "outputs": [
        {
          "internalType": "address",
          "name": "",
          "type": "address"
        }
      ],
      "stateMutability": "view",
      "type": "function"
    },
    {
      "inputs": [],
      "name": "USDV",
      "outputs": [
        {
          "internalType": "address",
          "name": "",
          "type": "address"
        }
      ],
      "stateMutability": "view",
      "type": "function"
    },
    {
      "inputs": [],
      "name": "UTILS",
      "outputs": [
        {
          "internalType": "address",
          "name": "",
          "type": "address"
        }
      ],
      "stateMutability": "view",
      "type": "function"
    },
    {
      "inputs": [],
      "name": "VADER",
      "outputs": [
        {
          "internalType": "address",
          "name": "",
          "type": "address"
        }
      ],
      "stateMutability": "view",
      "type": "function"
    },
    {
      "inputs": [],
      "name": "VAULT",
      "outputs": [
        {
          "internalType": "address",
          "name": "",
          "type": "address"
        }
      ],
      "stateMutability": "view",
      "type": "function"
    },
    {
      "inputs": [],
      "name": "VETHER",
      "outputs": [
        {
          "internalType": "address",
          "name": "",
          "type": "address"
        }
      ],
      "stateMutability": "view",
      "type": "function"
    },
    {
      "inputs": [
        {
          "internalType": "uint256",
          "name": "oldProposalID",
          "type": "uint256"
        },
        {
          "internalType": "uint256",
          "name": "newProposalID",
          "type": "uint256"
        }
      ],
      "name": "cancelProposal",
      "outputs": [],
      "stateMutability": "nonpayable",
      "type": "function"
    },
    {
      "inputs": [
        {
          "internalType": "address",
          "name": "newCouncil",
          "type": "address"
        }
      ],
      "name": "changeCouncil",
      "outputs": [],
      "stateMutability": "nonpayable",
      "type": "function"
    },
    {
      "inputs": [],
      "name": "coolOffPeriod",
      "outputs": [
        {
          "internalType": "uint256",
          "name": "",
          "type": "uint256"
        }
      ],
      "stateMutability": "view",
      "type": "function"
    },
    {
      "inputs": [
        {
          "internalType": "uint256",
          "name": "proposalID",
          "type": "uint256"
        }
      ],
      "name": "finaliseProposal",
      "outputs": [],
      "stateMutability": "nonpayable",
      "type": "function"
    },
    {
      "inputs": [
        {
          "internalType": "uint256",
          "name": "_proposalID",
          "type": "uint256"
        },
        {
          "internalType": "address",
          "name": "member",
          "type": "address"
        }
      ],
      "name": "getMemberVotes",
      "outputs": [
        {
          "internalType": "uint256",
          "name": "",
          "type": "uint256"
        }
      ],
      "stateMutability": "view",
      "type": "function"
    },
    {
      "inputs": [
        {
          "internalType": "uint256",
          "name": "_proposalID",
          "type": "uint256"
        }
      ],
      "name": "getPIDType",
      "outputs": [
        {
          "internalType": "string",
          "name": "",
          "type": "string"
        }
      ],
      "stateMutability": "view",
      "type": "function"
    },
    {
      "inputs": [
        {
          "internalType": "uint256",
          "name": "_proposalID",
          "type": "uint256"
        }
      ],
      "name": "getVotes",
      "outputs": [
        {
          "internalType": "uint256",
          "name": "",
          "type": "uint256"
        }
      ],
      "stateMutability": "view",
      "type": "function"
    },
    {
      "inputs": [
        {
          "internalType": "uint256",
          "name": "_proposalID",
          "type": "uint256"
        }
      ],
      "name": "hasMajority",
      "outputs": [
        {
          "internalType": "bool",
          "name": "",
          "type": "bool"
        }
      ],
      "stateMutability": "view",
      "type": "function"
    },
    {
      "inputs": [
        {
          "internalType": "uint256",
          "name": "_proposalID",
          "type": "uint256"
        }
      ],
      "name": "hasMinority",
      "outputs": [
        {
          "internalType": "bool",
          "name": "",
          "type": "bool"
        }
      ],
      "stateMutability": "view",
      "type": "function"
    },
    {
      "inputs": [
        {
          "internalType": "uint256",
          "name": "_proposalID",
          "type": "uint256"
        }
      ],
      "name": "hasQuorum",
      "outputs": [
        {
          "internalType": "bool",
          "name": "",
          "type": "bool"
        }
      ],
      "stateMutability": "view",
      "type": "function"
    },
    {
      "inputs": [
        {
          "internalType": "address",
          "name": "_vether",
          "type": "address"
        },
        {
          "internalType": "address",
          "name": "_vader",
          "type": "address"
        },
        {
          "internalType": "address",
          "name": "_usdv",
          "type": "address"
        },
        {
          "internalType": "address",
          "name": "_reserve",
          "type": "address"
        },
        {
          "internalType": "address",
          "name": "_vault",
          "type": "address"
        },
        {
          "internalType": "address",
          "name": "_router",
          "type": "address"
        },
        {
          "internalType": "address",
          "name": "_lender",
          "type": "address"
        },
        {
          "internalType": "address",
          "name": "_pools",
          "type": "address"
        },
        {
          "internalType": "address",
          "name": "_factory",
          "type": "address"
        },
        {
          "internalType": "address",
          "name": "_utils",
          "type": "address"
        }
      ],
      "name": "init",
      "outputs": [],
      "stateMutability": "nonpayable",
      "type": "function"
    },
    {
      "inputs": [
        {
          "internalType": "uint256",
          "name": "",
          "type": "uint256"
        },
        {
          "internalType": "address",
          "name": "",
          "type": "address"
        }
      ],
      "name": "mapPIDMember_votes",
      "outputs": [
        {
          "internalType": "uint256",
          "name": "",
          "type": "uint256"
        }
      ],
      "stateMutability": "view",
      "type": "function"
    },
    {
      "inputs": [
        {
          "internalType": "uint256",
          "name": "",
          "type": "uint256"
        }
      ],
      "name": "mapPID_address",
      "outputs": [
        {
          "internalType": "address",
          "name": "",
          "type": "address"
        }
      ],
      "stateMutability": "view",
      "type": "function"
    },
    {
      "inputs": [
        {
          "internalType": "uint256",
          "name": "",
          "type": "uint256"
        }
      ],
      "name": "mapPID_finalised",
      "outputs": [
        {
          "internalType": "bool",
          "name": "",
          "type": "bool"
        }
      ],
      "stateMutability": "view",
      "type": "function"
    },
    {
      "inputs": [
        {
          "internalType": "uint256",
          "name": "",
          "type": "uint256"
        }
      ],
      "name": "mapPID_finalising",
      "outputs": [
        {
          "internalType": "bool",
          "name": "",
          "type": "bool"
        }
      ],
      "stateMutability": "view",
      "type": "function"
    },
    {
      "inputs": [
        {
          "internalType": "uint256",
          "name": "",
          "type": "uint256"
        }
      ],
      "name": "mapPID_grant",
      "outputs": [
        {
          "internalType": "address",
          "name": "recipient",
          "type": "address"
        },
        {
          "internalType": "uint256",
          "name": "amount",
          "type": "uint256"
        }
      ],
      "stateMutability": "view",
      "type": "function"
    },
    {
      "inputs": [
        {
          "internalType": "uint256",
          "name": "",
          "type": "uint256"
        }
      ],
      "name": "mapPID_params",
      "outputs": [
        {
          "internalType": "uint256",
          "name": "p1",
          "type": "uint256"
        },
        {
          "internalType": "uint256",
          "name": "p2",
          "type": "uint256"
        },
        {
          "internalType": "uint256",
          "name": "p3",
          "type": "uint256"
        },
        {
          "internalType": "uint256",
          "name": "p4",
          "type": "uint256"
        }
      ],
      "stateMutability": "view",
      "type": "function"
    },
    {
      "inputs": [
        {
          "internalType": "uint256",
          "name": "",
          "type": "uint256"
        }
      ],
      "name": "mapPID_timeStart",
      "outputs": [
        {
          "internalType": "uint256",
          "name": "",
          "type": "uint256"
        }
      ],
      "stateMutability": "view",
      "type": "function"
    },
    {
      "inputs": [
        {
          "internalType": "uint256",
          "name": "",
          "type": "uint256"
        }
      ],
      "name": "mapPID_type",
      "outputs": [
        {
          "internalType": "string",
          "name": "",
          "type": "string"
        }
      ],
      "stateMutability": "view",
      "type": "function"
    },
    {
      "inputs": [
        {
          "internalType": "uint256",
          "name": "",
          "type": "uint256"
        }
      ],
      "name": "mapPID_votes",
      "outputs": [
        {
          "internalType": "uint256",
          "name": "",
          "type": "uint256"
        }
      ],
      "stateMutability": "view",
      "type": "function"
    },
    {
      "inputs": [
        {
          "internalType": "string",
          "name": "typeStr",
          "type": "string"
        }
      ],
      "name": "newActionProposal",
      "outputs": [],
      "stateMutability": "nonpayable",
      "type": "function"
    },
    {
      "inputs": [
        {
          "internalType": "string",
          "name": "typeStr",
          "type": "string"
        },
        {
          "internalType": "address",
          "name": "proposedAddress",
          "type": "address"
        }
      ],
      "name": "newAddressProposal",
      "outputs": [],
      "stateMutability": "nonpayable",
      "type": "function"
    },
    {
      "inputs": [
        {
          "internalType": "address",
          "name": "recipient",
          "type": "address"
        },
        {
          "internalType": "uint256",
          "name": "amount",
          "type": "uint256"
        }
      ],
      "name": "newGrantProposal",
      "outputs": [],
      "stateMutability": "nonpayable",
      "type": "function"
    },
    {
      "inputs": [
        {
          "internalType": "string",
          "name": "typeStr",
          "type": "string"
        },
        {
          "internalType": "uint256",
          "name": "p1",
          "type": "uint256"
        },
        {
          "internalType": "uint256",
          "name": "p2",
          "type": "uint256"
        },
        {
          "internalType": "uint256",
          "name": "p3",
          "type": "uint256"
        },
        {
          "internalType": "uint256",
          "name": "p4",
          "type": "uint256"
        }
      ],
      "name": "newParamProposal",
      "outputs": [],
      "stateMutability": "nonpayable",
      "type": "function"
    },
    {
      "inputs": [],
      "name": "proposalCount",
      "outputs": [
        {
          "internalType": "uint256",
          "name": "",
          "type": "uint256"
        }
      ],
      "stateMutability": "view",
      "type": "function"
    },
    {
      "inputs": [],
      "name": "purgeCouncil",
      "outputs": [],
      "stateMutability": "nonpayable",
      "type": "function"
    },
    {
      "inputs": [
        {
          "internalType": "uint256",
          "name": "proposalID",
          "type": "uint256"
        }
      ],
      "name": "voteProposal",
      "outputs": [
        {
          "internalType": "uint256",
          "name": "voteWeight",
          "type": "uint256"
        }
      ],
      "stateMutability": "nonpayable",
      "type": "function"
    }
  ],
  "bytecode": "0x608060405234801561001057600080fd5b50600280546001600160a01b031916331790556001805561236c806100366000396000f3fe608060405234801561001057600080fd5b50600436106102325760003560e01c8063807896d511610130578063c42b3f7d116100b8578063dab249b31161007c578063dab249b3146105c7578063e2c3b046146105e7578063e38c7dcc146105fa578063ebccb5b21461061a578063ff9810991461062d57610232565b8063c42b3f7d1461051b578063cb7bdbc014610546578063d0ad170914610598578063d1458363146105ab578063da35c664146105be57610232565b8063abb6154f116100ff578063abb6154f1461048d578063ae887c8b14610496578063b515a2e8146104bf578063bbf8cf82146104f5578063c05fc1781461050857610232565b8063807896d5146104335780639d2cc436146104545780639e8460a514610467578063a6c83fed1461047a57610232565b806332fe7b26116101be5780634c4d46b0116101825780634c4d46b0146103d45780635c120b37146103e75780635ded8b06146103fa5780637b0e5c451461040d5780637e7917611461042057610232565b806332fe7b261461036557806338a1046d14610378578063411557d11461038b5780634b193e231461039e5780634b400034146103b157610232565b80631436b87e116102055780631436b87e1461029757806327c2a291146102b75780632bee1194146102ca5780632d8f0b0b146102fd5780632dd310001461035257610232565b8063016813151461023757806301a3d6871461026757806302c3b4361461027a5780630beadade1461028f575b600080fd5b60045461024a906001600160a01b031681565b6040516001600160a01b0390911681526020015b60405180910390f35b60025461024a906001600160a01b031681565b61028d610288366004611f1a565b61064d565b005b61028d6106e6565b6102aa6102a5366004612117565b610722565b60405161025e91906121ba565b61028d6102c5366004611f3b565b6107c5565b6102ed6102d8366004612117565b60146020526000908152604090205460ff1681565b604051901515815260200161025e565b61033261030b366004612117565b600f6020526000908152604090208054600182015460028301546003909301549192909184565b60408051948552602085019390935291830152606082015260800161025e565b600b5461024a906001600160a01b031681565b60085461024a906001600160a01b031681565b60095461024a906001600160a01b031681565b60075461024a906001600160a01b031681565b61028d6103ac366004612117565b61089e565b6102ed6103bf366004612117565b60136020526000908152604090205460ff1681565b60035461024a906001600160a01b031681565b6102ed6103f5366004612117565b610efb565b61028d610408366004612151565b610fa0565b600c5461024a906001600160a01b031681565b61028d61042e3660046120bc565b6112e8565b610446610441366004612117565b6113c2565b60405190815260200161025e565b60065461024a906001600160a01b031681565b61028d610475366004612070565b611592565b61028d610488366004611ff4565b611664565b61044660015481565b61024a6104a4366004612117565b600e602052600090815260409020546001600160a01b031681565b6104466104cd36600461212f565b60009182526015602090815260408084206001600160a01b0393909316845291905290205490565b6102ed610503366004612117565b61173b565b6102aa610516366004612117565b611794565b61044661052936600461212f565b601560209081526000928352604080842090915290825290205481565b610579610554366004612117565b600d60205260009081526040902080546001909101546001600160a01b039091169082565b604080516001600160a01b03909316835260208301919091520161025e565b6102ed6105a6366004612117565b61182e565b61028d6105b9366004612035565b611887565b61044660005481565b6104466105d5366004612117565b60116020526000908152604090205481565b60055461024a906001600160a01b031681565b610446610608366004612117565b60126020526000908152604090205481565b600a5461024a906001600160a01b031681565b61044661063b366004612117565b60009081526011602052604090205490565b6002546001600160a01b031633146106805760405162461bcd60e51b8152600401610677906121cd565b60405180910390fd5b6001600160a01b0381166106c45760405162461bcd60e51b815260206004820152600b60248201526a30b2323932b9b99032b93960a91b6044820152606401610677565b600280546001600160a01b0319166001600160a01b0392909216919091179055565b6002546001600160a01b031633146107105760405162461bcd60e51b8152600401610677906121cd565b600280546001600160a01b0319169055565b600081815260106020526040902080546060919061073f906122af565b80601f016020809104026020016040519081016040528092919081815260200182805461076b906122af565b80156107b85780601f1061078d576101008083540402835291602001916107b8565b820191906000526020600020905b81548152906001019060200180831161079b57829003601f168201915b505050505090505b919050565b6002546001600160a01b031633146107ef5760405162461bcd60e51b8152600401610677906121cd565b6004546001600160a01b031661089257600380546001600160a01b03199081166001600160a01b038d8116919091179092556004805482168c84161790556005805482168b84161790556006805482168a8416179055600780548216898416179055600880548216888416179055600980548216878416179055600a80548216868416179055600b80548216858416179055600c80549091169183169190911790555b50505050505050505050565b6001546000828152601260205260409020546108ba9042612268565b116109005760405162461bcd60e51b815260206004820152601660248201527526bab9ba1031329030b33a32b91031b7b7b61037b33360511b6044820152606401610677565b60008181526013602052604090205460ff166109535760405162461bcd60e51b81526020600482015260126024820152714d7573742062652066696e616c6973696e6760701b6044820152606401610677565b60008181526014602052604090205460ff16156109b25760405162461bcd60e51b815260206004820152601860248201527f4d757374206e6f7420626520616c726561647920646f6e6500000000000000006044820152606401610677565b600081815260106020526040812080546109cb906122af565b80601f01602080910402602001604051908101604052809291908181526020018280546109f7906122af565b8015610a445780601f10610a1957610100808354040283529160200191610a44565b820191906000526020600020905b815481529060010190602001808311610a2757829003601f168201915b50505050509050610a72816040518060400160405280600581526020016411d490539560da1b8152506118f4565b15610b12576000828152600d60209081526040918290208251808401845281546001600160a01b0390811680835260019093015493820184905260065494516331b8490760e11b8152600481019390935260248301939093529290911690636370920e906044015b600060405180830381600087803b158015610af457600080fd5b505af1158015610b08573d6000803e3d6000fd5b5050505050610eee565b610b3981604051806040016040528060058152602001645554494c5360d81b8152506118f4565b15610b71576000828152600e6020526040902054600c80546001600160a01b0319166001600160a01b03909216919091179055610eee565b610b9a81604051806040016040528060078152602001665245534552564560c81b8152506118f4565b15610bd2576000828152600e6020526040902054600680546001600160a01b0319166001600160a01b03909216919091179055610eee565b610bf7816040518060400160405280600381526020016244414f60e81b8152506118f4565b15610c7157600480546000848152600e602052604090819020549051631d007f5f60e01b81526001600160a01b03918216938101939093521690631d007f5f90602401600060405180830381600087803b158015610c5457600080fd5b505af1158015610c68573d6000803e3d6000fd5b50505050610eee565b610c9c8160405180604001604052806009815260200168454d495353494f4e5360b81b8152506118f4565b15610ce4576004805460408051637f0fd47d60e11b815290516001600160a01b039092169263fe1fa8fa92828201926000929082900301818387803b158015610c5457600080fd5b610d0d81604051806040016040528060078152602001664d494e54494e4760c81b8152506118f4565b15610d555760048054604080516316f5508b60e11b815290516001600160a01b0390921692632deaa11692828201926000929082900301818387803b158015610c5457600080fd5b610d83816040518060400160405280600c81526020016b56414445525f504152414d5360a01b8152506118f4565b15610dfd576000828152600f6020908152604091829020825160808101845281548082526001830154938201849052600283015482860152600390920154606082015260048054945163c0324c7760e01b815291946001600160a01b03169363c0324c7793610ada93909201918252602082015260400190565b610e2c816040518060400160405280600d81526020016c524f555445525f504152414d5360981b8152506118f4565b15610eee576000828152600f60209081526040918290208251608081018452815480825260018301549382018490526002830154828601819052600390930154606083018190526008549551630fd9c8bd60e31b815292956001600160a01b031694637ece45e894610eba949192909160040193845260208401929092526040830152606082015260800190565b600060405180830381600087803b158015610ed457600080fd5b505af1158015610ee8573d6000803e3d6000fd5b50505050505b610ef78261199e565b5050565b60008181526011602090815260408083205460075482516396c82e5760e01b81529251919385936002936001600160a01b03909316926396c82e5792600480840193919291829003018186803b158015610f5457600080fd5b505afa158015610f68573d6000803e3d6000fd5b505050506040513d601f19601f82011682018060405250810190610f8c919061201d565b610f969190612248565b9091119392505050565b60008281526013602052604090205460ff16610ff35760405162461bcd60e51b81526020600482015260126024820152714d7573742062652066696e616c6973696e6760701b6044820152606401610677565b610ffc8161182e565b61103d5760405162461bcd60e51b81526020600482015260126024820152714d7573742068617665206d696e6f7269747960701b6044820152606401610677565b60008281526010602052604090208054611177919061105b906122af565b80601f0160208091040260200160405190810160405280929190818152602001828054611087906122af565b80156110d45780601f106110a9576101008083540402835291602001916110d4565b820191906000526020600020905b8154815290600101906020018083116110b757829003601f168201915b505050600085815260106020526040902080549092506110f491506122af565b80601f0160208091040260200160405190810160405280929190818152602001828054611120906122af565b801561116d5780601f106111425761010080835404028352916020019161116d565b820191906000526020600020905b81548152906001019060200180831161115057829003601f168201915b50505050506118f4565b6111b25760405162461bcd60e51b815260206004820152600c60248201526b4d7573742062652073616d6560a01b6044820152606401610677565b808214156111f65760405162461bcd60e51b8152602060048201526011602482015270135d5cdd08189948191a5999995c995b9d607a1b6044820152606401610677565b600082815260116020818152604080842084815560138352818520805460ff191690559282529154848452928290205460075483516396c82e5760e01b81529351879533957f0e67c2e72a9ea22e5d163549aebce99ddc3d1fbbc58e7ed196b0e88f458847d9959194936001600160a01b0316926396c82e5792600480840193919291829003018186803b15801561128d57600080fd5b505afa1580156112a1573d6000803e3d6000fd5b505050506040513d601f19601f820116820180604052508101906112c5919061201d565b604080519384526020840192909252908201526060015b60405180910390a35050565b60016000808282546112fa9190612230565b9250508190555061132c6040518060800160405280600081526020016000815260200160008152602001600081525090565b8481526020808201858152604080840186815260608501868152600080548152600f86528381208751815594516001860155915160028501555160039093019290925581548252601083529020875161138792890190611de3565b50600054336001600160a01b0316600080516020612317833981519152886040516113b291906121ba565b60405180910390a3505050505050565b600081815260106020526040812080548291906113de906122af565b80601f016020809104026020016040519081016040528092919081815260200182805461140a906122af565b80156114575780601f1061142c57610100808354040283529160200191611457565b820191906000526020600020905b81548152906001019060200180831161143a57829003601f168201915b5050505050905061146783611b3b565b91506114728361173b565b801561148d575060008381526013602052604090205460ff16155b1561153d576114b7816040518060400160405280600381526020016244414f60e81b8152506118f4565b806114e457506114e481604051806040016040528060058152602001645554494c5360d81b8152506118f4565b80611513575061151381604051806040016040528060078152602001665245534552564560c81b8152506118f4565b156115345761152183610efb565b1561152f5761152f83611cdd565b61153d565b61153d83611cdd565b60008381526011602052604090819020549051849133917f4d46d88c7e981a5bf4572a83b5d88bcfefbd5ee6ca8df0588e27c4221a43640791611584918791908790612208565b60405180910390a350919050565b6001600160a01b0381166115de5760405162461bcd60e51b8152602060048201526013602482015272139bc81859191c995cdcc81c1c9bdc1bdcd959606a1b6044820152606401610677565b60016000808282546115f09190612230565b9091555050600080548152600e6020908152604080832080546001600160a01b0319166001600160a01b0386161790558254835260108252909120835161163992850190611de3565b50600054336001600160a01b0316600080516020612317833981519152846040516112dc91906121ba565b60006040518060400160405280600581526020016411d490539560da1b815250905060016000808282546116989190612230565b909155505060008054815260106020908152604090912082516116bd92840190611de3565b506040805180820182526001600160a01b0385811682526020808301868152600080548152600d909252848220845181546001600160a01b03191694169390931783555160019092019190915554915190919033906000805160206123178339815191529061172d9086906121ba565b60405180910390a350505050565b60008181526011602090815260408083205460075482516396c82e5760e01b81529251919385936003936001600160a01b03909316926396c82e5792600480840193919291829003018186803b158015610f5457600080fd5b601060205260009081526040902080546117ad906122af565b80601f01602080910402602001604051908101604052809291908181526020018280546117d9906122af565b80156118265780601f106117fb57610100808354040283529160200191611826565b820191906000526020600020905b81548152906001019060200180831161180957829003601f168201915b505050505081565b60008181526011602090815260408083205460075482516396c82e5760e01b81529251919385936006936001600160a01b03909316926396c82e5792600480840193919291829003018186803b158015610f5457600080fd5b60016000808282546118999190612230565b909155505060008054815260106020908152604090912082516118be92840190611de3565b50600054336001600160a01b0316600080516020612317833981519152836040516118e991906121ba565b60405180910390a350565b6000600282604051611906919061219e565b602060405180830381855afa158015611923573d6000803e3d6000fd5b5050506040513d601f19601f82011682018060405250810190611946919061201d565b600284604051611956919061219e565b602060405180830381855afa158015611973573d6000803e3d6000fd5b5050506040513d601f19601f82011682018060405250810190611996919061201d565b149392505050565b600081815260106020526040812080546119b7906122af565b80601f01602080910402602001604051908101604052809291908181526020018280546119e3906122af565b8015611a305780601f10611a0557610100808354040283529160200191611a30565b820191906000526020600020905b815481529060010190602001808311611a1357829003601f168201915b5050506000858152601160209081526040918290205460075483516396c82e5760e01b8152935196975088963396507f28fca9bc3d4a734a707bd9396d50341c1f45e1d455c4aa4a58ceee0e09f64544955091936001600160a01b03909116926396c82e5792600480840193829003018186803b158015611ab057600080fd5b505afa158015611ac4573d6000803e3d6000fd5b505050506040513d601f19601f82011682018060405250810190611ae8919061201d565b85604051611af893929190612208565b60405180910390a350600090815260116020908152604080832083905560138252808320805460ff19908116909155601490925290912080549091166001179055565b60008181526015602090815260408083203384528252808320548484526011909252822080548390611b6e908490612268565b90915550506002546001600160a01b0316331415611c1c57600760009054906101000a90046001600160a01b03166001600160a01b03166396c82e576040518163ffffffff1660e01b815260040160206040518083038186803b158015611bd457600080fd5b505afa158015611be8573d6000803e3d6000fd5b505050506040513d601f19601f82011682018060405250810190611c0c919061201d565b905080611c17575060015b611c9a565b600754604051635364df4960e01b81523360048201526001600160a01b0390911690635364df499060240160206040518083038186803b158015611c5f57600080fd5b505afa158015611c73573d6000803e3d6000fd5b505050506040513d601f19601f82011682018060405250810190611c97919061201d565b90505b60008281526011602052604081208054839290611cb8908490612230565b9091555050600091825260156020908152604080842033855290915290912081905590565b60008181526010602052604081208054611cf6906122af565b80601f0160208091040260200160405190810160405280929190818152602001828054611d22906122af565b8015611d6f5780601f10611d4457610100808354040283529160200191611d6f565b820191906000526020600020905b815481529060010190602001808311611d5257829003601f168201915b5050506000858152601360209081526040808320805460ff1916600190811790915560129092529091204290819055905493945085933393507f0f36aea5066f9f90a999260fe4ce8d7713f7f07f5ae61bf36d73cc51170a3a9e9250611dd491612230565b846040516112dc9291906121ef565b828054611def906122af565b90600052602060002090601f016020900481019282611e115760008555611e57565b82601f10611e2a57805160ff1916838001178555611e57565b82800160010185558215611e57579182015b82811115611e57578251825591602001919060010190611e3c565b50611e63929150611e67565b5090565b5b80821115611e635760008155600101611e68565b80356001600160a01b03811681146107c057600080fd5b600082601f830112611ea3578081fd5b813567ffffffffffffffff80821115611ebe57611ebe612300565b604051601f8301601f19908116603f01168101908282118183101715611ee657611ee6612300565b81604052838152866020858801011115611efe578485fd5b8360208701602083013792830160200193909352509392505050565b600060208284031215611f2b578081fd5b611f3482611e7c565b9392505050565b6000806000806000806000806000806101408b8d031215611f5a578586fd5b611f638b611e7c565b9950611f7160208c01611e7c565b9850611f7f60408c01611e7c565b9750611f8d60608c01611e7c565b9650611f9b60808c01611e7c565b9550611fa960a08c01611e7c565b9450611fb760c08c01611e7c565b9350611fc560e08c01611e7c565b9250611fd46101008c01611e7c565b9150611fe36101208c01611e7c565b90509295989b9194979a5092959850565b60008060408385031215612006578182fd5b61200f83611e7c565b946020939093013593505050565b60006020828403121561202e578081fd5b5051919050565b600060208284031215612046578081fd5b813567ffffffffffffffff81111561205c578182fd5b61206884828501611e93565b949350505050565b60008060408385031215612082578182fd5b823567ffffffffffffffff811115612098578283fd5b6120a485828601611e93565b9250506120b360208401611e7c565b90509250929050565b600080600080600060a086880312156120d3578081fd5b853567ffffffffffffffff8111156120e9578182fd5b6120f588828901611e93565b9860208801359850604088013597606081013597506080013595509350505050565b600060208284031215612128578081fd5b5035919050565b60008060408385031215612141578182fd5b823591506120b360208401611e7c565b60008060408385031215612163578182fd5b50508035926020909101359150565b6000815180845261218a81602086016020860161227f565b601f01601f19169290920160200192915050565b600082516121b081846020870161227f565b9190910192915050565b600060208252611f346020830184612172565b6020808252600890820152670850dbdd5b98da5b60c21b604082015260600190565b6000838252604060208301526120686040830184612172565b6000848252836020830152606060408301526122276060830184612172565b95945050505050565b60008219821115612243576122436122ea565b500190565b60008261226357634e487b7160e01b81526012600452602481fd5b500490565b60008282101561227a5761227a6122ea565b500390565b60005b8381101561229a578181015183820152602001612282565b838111156122a9576000848401525b50505050565b600181811c908216806122c357607f821691505b602082108114156122e457634e487b7160e01b600052602260045260246000fd5b50919050565b634e487b7160e01b600052601160045260246000fd5b634e487b7160e01b600052604160045260246000fdfe8d500fcad86fc64a281b94ef64d6d66acbfc6862aa4ff2ee5fbbfb40736e803ea2646970667358221220d0a775a1794e8e93e6f5bb9353750bee910e0a6d6fa1605841fcad92a2ad0cf964736f6c63430008030033",
  "linkReferences": {},
  "deployedLinkReferences": {}
}