{
  "_format": "hh-sol-artifact-1",
  "contractName": "Vader",
  "sourceName": "contracts/Vader.sol",
  "abi": [
    {
      "inputs": [],
      "stateMutability": "nonpayable",
      "type": "constructor"
    },
    {
      "anonymous": false,
      "inputs": [
        {
          "indexed": true,
          "internalType": "address",
          "name": "owner",
          "type": "address"
        },
        {
          "indexed": true,
          "internalType": "address",
          "name": "spender",
          "type": "address"
        },
        {
          "indexed": false,
          "internalType": "uint256",
          "name": "value",
          "type": "uint256"
        }
      ],
      "name": "Approval",
      "type": "event"
    },
    {
      "anonymous": false,
      "inputs": [
        {
          "indexed": false,
          "internalType": "uint256",
          "name": "nextEraTime",
          "type": "uint256"
        },
        {
          "indexed": false,
          "internalType": "uint256",
          "name": "emission",
          "type": "uint256"
        }
      ],
      "name": "NewEra",
      "type": "event"
    },
    {
      "anonymous": false,
      "inputs": [
        {
          "indexed": true,
          "internalType": "address",
          "name": "from",
          "type": "address"
        },
        {
          "indexed": true,
          "internalType": "address",
          "name": "to",
          "type": "address"
        },
        {
          "indexed": false,
          "internalType": "uint256",
          "name": "value",
          "type": "uint256"
        }
      ],
      "name": "Transfer",
      "type": "event"
    },
    {
      "inputs": [],
      "name": "DAO",
      "outputs": [
        {
          "internalType": "address",
          "name": "",
          "type": "address"
        }
      ],
      "stateMutability": "view",
      "type": "function"
    },
    {
      "inputs": [
        {
          "internalType": "address",
          "name": "owner",
          "type": "address"
        },
        {
          "internalType": "address",
          "name": "spender",
          "type": "address"
        }
      ],
      "name": "allowance",
      "outputs": [
        {
          "internalType": "uint256",
          "name": "",
          "type": "uint256"
        }
      ],
      "stateMutability": "view",
      "type": "function"
    },
    {
      "inputs": [
        {
          "internalType": "address",
          "name": "spender",
          "type": "address"
        },
        {
          "internalType": "uint256",
          "name": "amount",
          "type": "uint256"
        }
      ],
      "name": "approve",
      "outputs": [
        {
          "internalType": "bool",
          "name": "",
          "type": "bool"
        }
      ],
      "stateMutability": "nonpayable",
      "type": "function"
    },
    {
      "inputs": [
        {
          "internalType": "address",
          "name": "recipient",
          "type": "address"
        },
        {
          "internalType": "uint256",
          "name": "amount",
          "type": "uint256"
        },
        {
          "internalType": "bytes",
          "name": "data",
          "type": "bytes"
        }
      ],
      "name": "approveAndCall",
      "outputs": [
        {
          "internalType": "bool",
          "name": "",
          "type": "bool"
        }
      ],
      "stateMutability": "nonpayable",
      "type": "function"
    },
    {
      "inputs": [
        {
          "internalType": "address",
          "name": "account",
          "type": "address"
        }
      ],
      "name": "balanceOf",
      "outputs": [
        {
          "internalType": "uint256",
          "name": "",
          "type": "uint256"
        }
      ],
      "stateMutability": "view",
      "type": "function"
    },
    {
      "inputs": [],
      "name": "baseline",
      "outputs": [
        {
          "internalType": "uint256",
          "name": "",
          "type": "uint256"
        }
      ],
      "stateMutability": "view",
      "type": "function"
    },
    {
      "inputs": [
        {
          "internalType": "uint256",
          "name": "amount",
          "type": "uint256"
        }
      ],
      "name": "burn",
      "outputs": [],
      "stateMutability": "nonpayable",
      "type": "function"
    },
    {
      "inputs": [],
      "name": "burnAddress",
      "outputs": [
        {
          "internalType": "address",
          "name": "",
          "type": "address"
        }
      ],
      "stateMutability": "view",
      "type": "function"
    },
    {
      "inputs": [
        {
          "internalType": "address",
          "name": "account",
          "type": "address"
        },
        {
          "internalType": "uint256",
          "name": "amount",
          "type": "uint256"
        }
      ],
      "name": "burnFrom",
      "outputs": [],
      "stateMutability": "nonpayable",
      "type": "function"
    },
    {
      "inputs": [
        {
          "internalType": "address",
          "name": "newDAO",
          "type": "address"
        }
      ],
      "name": "changeDAO",
      "outputs": [],
      "stateMutability": "nonpayable",
      "type": "function"
    },
    {
      "inputs": [],
      "name": "conversionFactor",
      "outputs": [
        {
          "internalType": "uint256",
          "name": "",
          "type": "uint256"
        }
      ],
      "stateMutability": "view",
      "type": "function"
    },
    {
      "inputs": [
        {
          "internalType": "uint256",
          "name": "amount",
          "type": "uint256"
        }
      ],
      "name": "convertToUSDV",
      "outputs": [
        {
          "internalType": "uint256",
          "name": "",
          "type": "uint256"
        }
      ],
      "stateMutability": "nonpayable",
      "type": "function"
    },
    {
      "inputs": [
        {
          "internalType": "address",
          "name": "member",
          "type": "address"
        },
        {
          "internalType": "uint256",
          "name": "amount",
          "type": "uint256"
        }
      ],
      "name": "convertToUSDVForMember",
      "outputs": [
        {
          "internalType": "uint256",
          "name": "convertAmount",
          "type": "uint256"
        }
      ],
      "stateMutability": "nonpayable",
      "type": "function"
    },
    {
      "inputs": [],
      "name": "decimals",
      "outputs": [
        {
          "internalType": "uint8",
          "name": "",
          "type": "uint8"
        }
      ],
      "stateMutability": "view",
      "type": "function"
    },
    {
      "inputs": [
        {
          "internalType": "address",
          "name": "spender",
          "type": "address"
        },
        {
          "internalType": "uint256",
          "name": "subtractedValue",
          "type": "uint256"
        }
      ],
      "name": "decreaseAllowance",
      "outputs": [
        {
          "internalType": "bool",
          "name": "",
          "type": "bool"
        }
      ],
      "stateMutability": "nonpayable",
      "type": "function"
    },
    {
      "inputs": [],
      "name": "emissionCurve",
      "outputs": [
        {
          "internalType": "uint256",
          "name": "",
          "type": "uint256"
        }
      ],
      "stateMutability": "view",
      "type": "function"
    },
    {
      "inputs": [],
      "name": "emitting",
      "outputs": [
        {
          "internalType": "bool",
          "name": "",
          "type": "bool"
        }
      ],
      "stateMutability": "view",
      "type": "function"
    },
    {
      "inputs": [],
      "name": "feeOnTransfer",
      "outputs": [
        {
          "internalType": "uint256",
          "name": "",
          "type": "uint256"
        }
      ],
      "stateMutability": "view",
      "type": "function"
    },
    {
      "inputs": [],
      "name": "flipEmissions",
      "outputs": [],
      "stateMutability": "nonpayable",
      "type": "function"
    },
    {
      "inputs": [],
      "name": "flipMinting",
      "outputs": [],
      "stateMutability": "nonpayable",
      "type": "function"
    },
    {
      "inputs": [],
      "name": "getDailyEmission",
      "outputs": [
        {
          "internalType": "uint256",
          "name": "",
          "type": "uint256"
        }
      ],
      "stateMutability": "view",
      "type": "function"
    },
    {
      "inputs": [
        {
          "internalType": "address",
          "name": "spender",
          "type": "address"
        },
        {
          "internalType": "uint256",
          "name": "addedValue",
          "type": "uint256"
        }
      ],
      "name": "increaseAllowance",
      "outputs": [
        {
          "internalType": "bool",
          "name": "",
          "type": "bool"
        }
      ],
      "stateMutability": "nonpayable",
      "type": "function"
    },
    {
      "inputs": [],
      "name": "maxSupply",
      "outputs": [
        {
          "internalType": "uint256",
          "name": "",
          "type": "uint256"
        }
      ],
      "stateMutability": "view",
      "type": "function"
    },
    {
      "inputs": [],
      "name": "minting",
      "outputs": [
        {
          "internalType": "bool",
          "name": "",
          "type": "bool"
        }
      ],
      "stateMutability": "view",
      "type": "function"
    },
    {
      "inputs": [],
      "name": "name",
      "outputs": [
        {
          "internalType": "string",
          "name": "",
          "type": "string"
        }
      ],
      "stateMutability": "view",
      "type": "function"
    },
    {
      "inputs": [],
      "name": "nextEraTime",
      "outputs": [
        {
          "internalType": "uint256",
          "name": "",
          "type": "uint256"
        }
      ],
      "stateMutability": "view",
      "type": "function"
    },
    {
      "inputs": [],
      "name": "purgeDAO",
      "outputs": [],
      "stateMutability": "nonpayable",
      "type": "function"
    },
    {
      "inputs": [
        {
          "internalType": "uint256",
          "name": "amount",
          "type": "uint256"
        }
      ],
      "name": "redeemToVADER",
      "outputs": [
        {
          "internalType": "uint256",
          "name": "redeemAmount",
          "type": "uint256"
        }
      ],
      "stateMutability": "nonpayable",
      "type": "function"
    },
    {
      "inputs": [
        {
          "internalType": "address",
          "name": "member",
          "type": "address"
        },
        {
          "internalType": "uint256",
          "name": "amount",
          "type": "uint256"
        }
      ],
      "name": "redeemToVADERForMember",
      "outputs": [
        {
          "internalType": "uint256",
          "name": "redeemAmount",
          "type": "uint256"
        }
      ],
      "stateMutability": "nonpayable",
      "type": "function"
    },
    {
      "inputs": [],
      "name": "secondsPerEra",
      "outputs": [
        {
          "internalType": "uint256",
          "name": "",
          "type": "uint256"
        }
      ],
      "stateMutability": "view",
      "type": "function"
    },
    {
      "inputs": [
        {
          "internalType": "uint256",
          "name": "newEra",
          "type": "uint256"
        },
        {
          "internalType": "uint256",
          "name": "newCurve",
          "type": "uint256"
        }
      ],
      "name": "setParams",
      "outputs": [],
      "stateMutability": "nonpayable",
      "type": "function"
    },
    {
      "inputs": [],
      "name": "symbol",
      "outputs": [
        {
          "internalType": "string",
          "name": "",
          "type": "string"
        }
      ],
      "stateMutability": "view",
      "type": "function"
    },
    {
      "inputs": [],
      "name": "totalSupply",
      "outputs": [
        {
          "internalType": "uint256",
          "name": "",
          "type": "uint256"
        }
      ],
      "stateMutability": "view",
      "type": "function"
    },
    {
      "inputs": [
        {
          "internalType": "address",
          "name": "recipient",
          "type": "address"
        },
        {
          "internalType": "uint256",
          "name": "amount",
          "type": "uint256"
        }
      ],
      "name": "transfer",
      "outputs": [
        {
          "internalType": "bool",
          "name": "",
          "type": "bool"
        }
      ],
      "stateMutability": "nonpayable",
      "type": "function"
    },
    {
      "inputs": [
        {
          "internalType": "address",
          "name": "recipient",
          "type": "address"
        },
        {
          "internalType": "uint256",
          "name": "amount",
          "type": "uint256"
        },
        {
          "internalType": "bytes",
          "name": "data",
          "type": "bytes"
        }
      ],
      "name": "transferAndCall",
      "outputs": [
        {
          "internalType": "bool",
          "name": "",
          "type": "bool"
        }
      ],
      "stateMutability": "nonpayable",
      "type": "function"
    },
    {
      "inputs": [
        {
          "internalType": "address",
          "name": "sender",
          "type": "address"
        },
        {
          "internalType": "address",
          "name": "recipient",
          "type": "address"
        },
        {
          "internalType": "uint256",
          "name": "amount",
          "type": "uint256"
        }
      ],
      "name": "transferFrom",
      "outputs": [
        {
          "internalType": "bool",
          "name": "",
          "type": "bool"
        }
      ],
      "stateMutability": "nonpayable",
      "type": "function"
    },
    {
      "inputs": [
        {
          "internalType": "uint256",
          "name": "amount",
          "type": "uint256"
        }
      ],
      "name": "upgrade",
      "outputs": [],
      "stateMutability": "nonpayable",
      "type": "function"
    }
  ],
  "bytecode": "0x608060405234801561001057600080fd5b50600160058190556100229042610041565b600655600a600455600880546001600160a01b03191633179055610065565b6000821982111561006057634e487b7160e01b81526011600452602481fd5b500190565b611ba5806100746000396000f3fe608060405234801561001057600080fd5b50600436106102275760003560e01c806370a0823111610130578063a9059cbb116100b8578063cae9ca511161007c578063cae9ca51146104cc578063d5abeb01146104df578063dd62ed3e146104e7578063f293e67514610520578063fe1fa8fa1461052857610227565b8063a9059cbb14610483578063ab2637af14610496578063baa10c141461049e578063c0324c77146104b1578063c91b6b46146104c457610227565b8063865520d5116100ff578063865520d51461041d57806395d89b411461043057806398fabd3a146104545780639a67759b14610467578063a457c2d71461047057610227565b806370a082311461039c57806370d5ae05146103c557806379cc6790146103f85780637dc2268c1461040b57610227565b8063313ce567116101b357806341f88eae1161018257806341f88eae1461035157806342966c681461036457806345977d0314610377578063602631ef1461038a5780636b92a3b61461039357610227565b8063313ce567146102fe5780633549b77c14610318578063395093511461032b5780634000aea01461033e57610227565b80630fa1eeab116101fa5780630fa1eeab146102bc57806318160ddd146102c55780631d007f5f146102ce57806323b872dd146102e35780632deaa116146102f657610227565b806306fdde031461022c5780630781f4d214610275578063090bbb0114610292578063095ea7b3146102a9575b600080fd5b61025f604051806040016040528060148152602001732b20a222a910282927aa27a1a7a6102a27a5a2a760611b81525081565b60405161026c919061194e565b60405180910390f35b6003546102829060ff1681565b604051901515815260200161026c565b61029b60065481565b60405190815260200161026c565b6102826102b73660046117dd565b610530565b61029b60075481565b61029b60005481565b6102e16102dc36600461172d565b610547565b005b6102826102f136600461179d565b6105e0565b6102e161069f565b610306601281565b60405160ff909116815260200161026c565b61029b6103263660046118ac565b6106e6565b6102826103393660046117dd565b6106f2565b61028261034c366004611808565b610729565b61029b61035f3660046117dd565b6107a7565b6102e16103723660046118ac565b6109d0565b6102e16103853660046118ac565b6109dd565b61029b6103e881565b61029b60055481565b61029b6103aa36600461172d565b6001600160a01b031660009081526001602052604090205490565b6103e073011101100110000101101100011101010110010181565b6040516001600160a01b03909116815260200161026c565b6102e16104063660046117dd565b610a9f565b60035461028290610100900460ff1681565b61029b61042b3660046117dd565b610aea565b61025f604051806040016040528060058152602001642b20a222a960d91b81525081565b6008546103e0906001600160a01b031681565b61029b60045481565b61028261047e3660046117dd565b610b83565b6102826104913660046117dd565b610bf6565b61029b610c03565b61029b6104ac3660046118ac565b610c20565b6102e16104bf3660046118dc565b610c7d565b6102e1610cb2565b6102826104da366004611808565b610cee565b61029b610d2f565b61029b6104f5366004611765565b6001600160a01b03918216600090815260026020908152604080832093909416825291909152205490565b61029b610d54565b6102e1610e1e565b600061053d338484610e5c565b5060015b92915050565b6008546001600160a01b0316331461057a5760405162461bcd60e51b8152600401610571906119a1565b60405180910390fd5b6001600160a01b0381166105be5760405162461bcd60e51b815260206004820152600b60248201526a30b2323932b9b99032b93960a91b6044820152606401610571565b600880546001600160a01b0319166001600160a01b0392909216919091179055565b60006105ed848484610f6b565b6001600160a01b03841660009081526002602090815260408083203384529091529020546000191115610694576001600160a01b03841660009081526002602090815260408083203384529091529020548281101561067e5760405162461bcd60e51b815260206004820152600d60248201526c30b63637bbb0b731b29032b93960991b6044820152606401610571565b610692853361068d8685611b2d565b610e5c565b505b5060015b9392505050565b6008546001600160a01b031633146106c95760405162461bcd60e51b8152600401610571906119a1565b6003805461ff001981166101009182900460ff1615909102179055565b60006105413383610aea565b3360008181526002602090815260408083206001600160a01b0387168452909152812054909161053d91859061068d9086906119bf565b6000610736338686610f6b565b60405163cf4d253560e01b81526001600160a01b0386169063cf4d25359061076a90309088903390899089906004016118fd565b600060405180830381600087803b15801561078457600080fd5b505af1158015610798573d6000803e3d6000fd5b50600198975050505050505050565b60006107b16111ad565b6001600160a01b0316336001600160a01b0316146107fa5760405162461bcd60e51b815260206004820152600660248201526508559055531560d21b6044820152606401610571565b600354610100900460ff1661083f5760405162461bcd60e51b815260206004820152600b60248201526a6e6f74206d696e74696e6760a81b6044820152606401610571565b61084761122f565b6040516323b872dd60e01b8152336004820152306024820152604481018490526001600160a01b0391909116906323b872dd90606401602060405180830381600087803b15801561089757600080fd5b505af11580156108ab573d6000803e3d6000fd5b505050506040513d601f19601f820116820180604052508101906108cf919061188c565b6108d857600080fd5b6108e061122f565b6001600160a01b03166342966c68836040518263ffffffff1660e01b815260040161090d91815260200190565b600060405180830381600087803b15801561092757600080fd5b505af115801561093b573d6000803e3d6000fd5b50505050610947611274565b6001600160a01b0316636cc06ded836040518263ffffffff1660e01b815260040161097491815260200190565b60206040518083038186803b15801561098c57600080fd5b505afa1580156109a0573d6000803e3d6000fd5b505050506040513d601f19601f820116820180604052508101906109c491906118c4565b905061054183826112b9565b6109da33826113f2565b50565b6109e561150f565b6040516323b872dd60e01b81523360048201527301110110011000010110110001110101011001016024820152604481018390526001600160a01b0391909116906323b872dd90606401602060405180830381600087803b158015610a4957600080fd5b505af1158015610a5d573d6000803e3d6000fd5b505050506040513d601f19601f82011682018060405250810190610a81919061188c565b610a8a57600080fd5b6109da33610a9a6103e884611b0e565b6112b9565b6001600160a01b0382166000908152600260209081526040808320338452909152812054610ace908390611b2d565b9050610adb833383610e5c565b610ae583836113f2565b505050565b6000610afe33610af861122f565b84610f6b565b610b0661122f565b6040516336b7678b60e01b81526001600160a01b03858116600483015291909116906336b7678b90602401602060405180830381600087803b158015610b4b57600080fd5b505af1158015610b5f573d6000803e3d6000fd5b505050506040513d601f19601f8201168201806040525081019061069891906118c4565b3360009081526002602090815260408083206001600160a01b038616845290915281205482811015610be75760405162461bcd60e51b815260206004820152600d60248201526c30b63637bbb0b731b29032b93960991b6044820152606401610571565b610694338561068d8685611b2d565b600061053d338484610f6b565b610c0f6012600a611a3d565b610c1d90633b9aca00611b0e565b81565b6000610c2a6111ad565b6001600160a01b0316336001600160a01b031614610c735760405162461bcd60e51b815260206004820152600660248201526508559055531560d21b6044820152606401610571565b61054133836107a7565b6008546001600160a01b03163314610ca75760405162461bcd60e51b8152600401610571906119a1565b600591909155600455565b6008546001600160a01b03163314610cdc5760405162461bcd60e51b8152600401610571906119a1565b600880546001600160a01b0319169055565b6000610cfb338686610e5c565b604051631ac562a760e01b81526001600160a01b03861690631ac562a79061076a90309088903390899089906004016118fd565b610d3b6012600a611a3d565b610d4990633b9aca00611b0e565b610c1d906002611b0e565b600080610d636012600a611a3d565b610d7190633b9aca00611b0e565b60005411610dd657610d856012600a611a3d565b610d9390633b9aca00611b0e565b600054610da26012600a611a3d565b610db090633b9aca00611b0e565b610dbb906002611b0e565b610dc59190611b0e565b610dcf91906119d7565b9050610dfe565b610de26012600a611a3d565b610df090633b9aca00611b0e565b610dfb906002611b0e565b90505b600454600054610e0e9083611b2d565b610e1891906119d7565b91505090565b6008546001600160a01b03163314610e485760405162461bcd60e51b8152600401610571906119a1565b6003805460ff19811660ff90911615179055565b6001600160a01b038316610e9b5760405162461bcd60e51b815260206004820152600660248201526539b2b73232b960d11b6044820152606401610571565b6001600160a01b038216610edb5760405162461bcd60e51b815260206004820152600760248201526639b832b73232b960c91b6044820152606401610571565b6001600160a01b038084166000908152600260209081526040808320938616835292905220546000191115610ae5576001600160a01b0383811660008181526002602090815260408083209487168084529482529182902085905590518481527f8c5be1e5ebec7d5bd14f71427d1e84f3dd0314c0f7b2291e5b200ac8c7c3b925910160405180910390a3505050565b6001600160a01b038316610faa5760405162461bcd60e51b815260206004820152600660248201526539b2b73232b960d11b6044820152606401610571565b6001600160a01b038216301415610fef5760405162461bcd60e51b81526020600482015260096024820152681c9958da5c1a595b9d60ba1b6044820152606401610571565b6001600160a01b0383166000908152600160205260409020548111156110455760405162461bcd60e51b815260206004820152600b60248201526a3130b630b731b29032b93960a91b6044820152606401610571565b600061104f611554565b6001600160a01b031663714270ab600754846040518363ffffffff1660e01b8152600401611087929190918252602082015260400190565b60206040518083038186803b15801561109f57600080fd5b505afa1580156110b3573d6000803e3d6000fd5b505050506040513d601f19601f820116820180604052508101906110d791906118c4565b90508181116110f6576110ea8183611b2d565b91506110f684826113f2565b6001600160a01b0384166000908152600160205260408120805484929061111e908490611b2d565b90915550506001600160a01b0383166000908152600160205260408120805484929061114b9084906119bf565b92505081905550826001600160a01b0316846001600160a01b03167fddf252ad1be2c89b69c2b068fc378daa952ba7f163c4a11628f55a4df523b3ef8460405161119791815260200190565b60405180910390a36111a7611599565b50505050565b6008546040805163411557d160e01b815290516000926001600160a01b03169163411557d1916004808301926020929190829003018186803b1580156111f257600080fd5b505afa158015611206573d6000803e3d6000fd5b505050506040513d601f19601f8201168201806040525081019061122a9190611749565b905090565b60085460408051637161d82360e11b815290516000926001600160a01b03169163e2c3b046916004808301926020929190829003018186803b1580156111f257600080fd5b6008546040805163197f3d9360e11b815290516000926001600160a01b0316916332fe7b26916004808301926020929190829003018186803b1580156111f257600080fd5b6001600160a01b0382166112fb5760405162461bcd60e51b81526020600482015260096024820152681c9958da5c1a595b9d60ba1b6044820152606401610571565b6113076012600a611a3d565b61131590633b9aca00611b0e565b611320906002611b0e565b8160005461132e91906119bf565b1115611369576000546113436012600a611a3d565b61135190633b9aca00611b0e565b61135c906002611b0e565b6113669190611b2d565b90505b8060008082825461137a91906119bf565b90915550506001600160a01b038216600090815260016020526040812080548392906113a79084906119bf565b90915550506040518181526001600160a01b038316906000907fddf252ad1be2c89b69c2b068fc378daa952ba7f163c4a11628f55a4df523b3ef906020015b60405180910390a35050565b6001600160a01b0382166114365760405162461bcd60e51b815260206004820152600b60248201526a30b2323932b9b99032b93960a91b6044820152606401610571565b6001600160a01b03821660009081526001602052604090205481111561148c5760405162461bcd60e51b815260206004820152600b60248201526a3130b630b731b29032b93960a91b6044820152606401610571565b6001600160a01b038216600090815260016020526040812080548392906114b4908490611b2d565b92505081905550806000808282546114cc9190611b2d565b90915550506040518181526000906001600160a01b038416907fddf252ad1be2c89b69c2b068fc378daa952ba7f163c4a11628f55a4df523b3ef906020016113e6565b600854604080516304c4d46b60e41b815290516000926001600160a01b031691634c4d46b0916004808301926020929190829003018186803b1580156111f257600080fd5b60085460408051637b0e5c4560e01b815290516000926001600160a01b031691637b0e5c45916004808301926020929190829003018186803b1580156111f257600080fd5b60065442101580156115ad575060035460ff165b156116e6576005546115bf90426119bf565b60065560006115cc610d54565b90506115df6115d96116e8565b826112b9565b6115e7611554565b6001600160a01b0316638b18b1156000546012600a6116069190611a3d565b61161490633b9aca00611b0e565b61161f906002611b0e565b6040516001600160e01b031960e085901b1681526004810192909252602482015260440160206040518083038186803b15801561165b57600080fd5b505afa15801561166f573d6000803e3d6000fd5b505050506040513d601f19601f8201168201806040525081019061169391906118c4565b60078190556103e810156116a8576103e86007555b60065460408051918252602082018390527fb46eeb115d9875d9d717a1b1dd704bc9a45fdeb55eecc9c6c4f777ffa5698fe5910160405180910390a1505b565b60085460408051634e96621b60e11b815290516000926001600160a01b031691639d2cc436916004808301926020929190829003018186803b1580156111f257600080fd5b60006020828403121561173e578081fd5b813561069881611b5a565b60006020828403121561175a578081fd5b815161069881611b5a565b60008060408385031215611777578081fd5b823561178281611b5a565b9150602083013561179281611b5a565b809150509250929050565b6000806000606084860312156117b1578081fd5b83356117bc81611b5a565b925060208401356117cc81611b5a565b929592945050506040919091013590565b600080604083850312156117ef578182fd5b82356117fa81611b5a565b946020939093013593505050565b6000806000806060858703121561181d578081fd5b843561182881611b5a565b935060208501359250604085013567ffffffffffffffff8082111561184b578283fd5b818701915087601f83011261185e578283fd5b81358181111561186c578384fd5b88602082850101111561187d578384fd5b95989497505060200194505050565b60006020828403121561189d578081fd5b81518015158114610698578182fd5b6000602082840312156118bd578081fd5b5035919050565b6000602082840312156118d5578081fd5b5051919050565b600080604083850312156118ee578182fd5b50508035926020909101359150565b6001600160a01b038681168252602082018690528416604082015260806060820181905281018290526000828460a084013781830160a090810191909152601f909201601f19160101949350505050565b6000602080835283518082850152825b8181101561197a5785810183015185820160400152820161195e565b8181111561198b5783604083870101525b50601f01601f1916929092016040019392505050565b6020808252600490820152632144414f60e01b604082015260600190565b600082198211156119d2576119d2611b44565b500190565b6000826119f257634e487b7160e01b81526012600452602481fd5b500490565b80825b6001808611611a095750611a34565b818704821115611a1b57611a1b611b44565b80861615611a2857918102915b9490941c9380026119fa565b94509492505050565b600061069860001960ff851684600082611a5957506001610698565b81611a6657506000610698565b8160018114611a7c5760028114611a8657611ab3565b6001915050610698565b60ff841115611a9757611a97611b44565b6001841b915084821115611aad57611aad611b44565b50610698565b5060208310610133831016604e8410600b8410161715611ae6575081810a83811115611ae157611ae1611b44565b610698565b611af384848460016119f7565b808604821115611b0557611b05611b44565b02949350505050565b6000816000190483118215151615611b2857611b28611b44565b500290565b600082821015611b3f57611b3f611b44565b500390565b634e487b7160e01b600052601160045260246000fd5b6001600160a01b03811681146109da57600080fdfea2646970667358221220cf792615c63e64bdee1977f02064626f49309cd363eda4206458e73667dc0d2a64736f6c63430008030033",
  "linkReferences": {},
  "deployedLinkReferences": {}
}