{
  "_format": "hh-sol-artifact-1",
  "contractName": "Utils",
  "sourceName": "contracts/Utils.sol",
  "abi": [
    {
      "inputs": [
        {
          "internalType": "address",
          "name": "_vader",
          "type": "address"
        }
      ],
      "stateMutability": "nonpayable",
      "type": "constructor"
    },
    {
      "inputs": [],
      "name": "VADER",
      "outputs": [
        {
          "internalType": "address",
          "name": "",
          "type": "address"
        }
      ],
      "stateMutability": "view",
      "type": "function"
    },
    {
      "inputs": [
        {
          "internalType": "address",
          "name": "collateralAsset",
          "type": "address"
        },
        {
          "internalType": "address",
          "name": "debtAsset",
          "type": "address"
        }
      ],
      "name": "assetChecks",
      "outputs": [],
      "stateMutability": "nonpayable",
      "type": "function"
    },
    {
      "inputs": [
        {
          "internalType": "uint256",
          "name": "u",
          "type": "uint256"
        },
        {
          "internalType": "uint256",
          "name": "U",
          "type": "uint256"
        },
        {
          "internalType": "uint256",
          "name": "A",
          "type": "uint256"
        }
      ],
      "name": "calcAsymmetricShare",
      "outputs": [
        {
          "internalType": "uint256",
          "name": "",
          "type": "uint256"
        }
      ],
      "stateMutability": "pure",
      "type": "function"
    },
    {
      "inputs": [
        {
          "internalType": "uint256",
          "name": "B0",
          "type": "uint256"
        },
        {
          "internalType": "uint256",
          "name": "T0",
          "type": "uint256"
        },
        {
          "internalType": "uint256",
          "name": "B1",
          "type": "uint256"
        },
        {
          "internalType": "uint256",
          "name": "T1",
          "type": "uint256"
        }
      ],
      "name": "calcCoverage",
      "outputs": [
        {
          "internalType": "uint256",
          "name": "",
          "type": "uint256"
        }
      ],
      "stateMutability": "pure",
      "type": "function"
    },
    {
      "inputs": [
        {
          "internalType": "uint256",
          "name": "b",
          "type": "uint256"
        },
        {
          "internalType": "uint256",
          "name": "B",
          "type": "uint256"
        },
        {
          "internalType": "uint256",
          "name": "t",
          "type": "uint256"
        },
        {
          "internalType": "uint256",
          "name": "T",
          "type": "uint256"
        },
        {
          "internalType": "uint256",
          "name": "P",
          "type": "uint256"
        }
      ],
      "name": "calcLiquidityUnits",
      "outputs": [
        {
          "internalType": "uint256",
          "name": "",
          "type": "uint256"
        }
      ],
      "stateMutability": "pure",
      "type": "function"
    },
    {
      "inputs": [
        {
          "internalType": "uint256",
          "name": "bp",
          "type": "uint256"
        },
        {
          "internalType": "uint256",
          "name": "total",
          "type": "uint256"
        }
      ],
      "name": "calcPart",
      "outputs": [
        {
          "internalType": "uint256",
          "name": "",
          "type": "uint256"
        }
      ],
      "stateMutability": "pure",
      "type": "function"
    },
    {
      "inputs": [
        {
          "internalType": "uint256",
          "name": "part",
          "type": "uint256"
        },
        {
          "internalType": "uint256",
          "name": "total",
          "type": "uint256"
        },
        {
          "internalType": "uint256",
          "name": "amount",
          "type": "uint256"
        }
      ],
      "name": "calcShare",
      "outputs": [
        {
          "internalType": "uint256",
          "name": "share",
          "type": "uint256"
        }
      ],
      "stateMutability": "pure",
      "type": "function"
    },
    {
      "inputs": [
        {
          "internalType": "uint256",
          "name": "x",
          "type": "uint256"
        },
        {
          "internalType": "uint256",
          "name": "X",
          "type": "uint256"
        },
        {
          "internalType": "uint256",
          "name": "Y",
          "type": "uint256"
        }
      ],
      "name": "calcSwapFee",
      "outputs": [
        {
          "internalType": "uint256",
          "name": "",
          "type": "uint256"
        }
      ],
      "stateMutability": "pure",
      "type": "function"
    },
    {
      "inputs": [
        {
          "internalType": "uint256",
          "name": "x",
          "type": "uint256"
        },
        {
          "internalType": "uint256",
          "name": "X",
          "type": "uint256"
        },
        {
          "internalType": "uint256",
          "name": "Y",
          "type": "uint256"
        }
      ],
      "name": "calcSwapOutput",
      "outputs": [
        {
          "internalType": "uint256",
          "name": "",
          "type": "uint256"
        }
      ],
      "stateMutability": "pure",
      "type": "function"
    },
    {
      "inputs": [
        {
          "internalType": "uint256",
          "name": "x",
          "type": "uint256"
        },
        {
          "internalType": "uint256",
          "name": "X",
          "type": "uint256"
        }
      ],
      "name": "calcSwapSlip",
      "outputs": [
        {
          "internalType": "uint256",
          "name": "",
          "type": "uint256"
        }
      ],
      "stateMutability": "pure",
      "type": "function"
    },
    {
      "inputs": [
        {
          "internalType": "address",
          "name": "token",
          "type": "address"
        },
        {
          "internalType": "uint256",
          "name": "amount",
          "type": "uint256"
        }
      ],
      "name": "calcSwapValueInBase",
      "outputs": [
        {
          "internalType": "uint256",
          "name": "",
          "type": "uint256"
        }
      ],
      "stateMutability": "view",
      "type": "function"
    },
    {
      "inputs": [
        {
          "internalType": "address",
          "name": "token",
          "type": "address"
        },
        {
          "internalType": "uint256",
          "name": "amount",
          "type": "uint256"
        }
      ],
      "name": "calcSwapValueInToken",
      "outputs": [
        {
          "internalType": "uint256",
          "name": "",
          "type": "uint256"
        }
      ],
      "stateMutability": "view",
      "type": "function"
    },
    {
      "inputs": [
        {
          "internalType": "uint256",
          "name": "S",
          "type": "uint256"
        },
        {
          "internalType": "uint256",
          "name": "B",
          "type": "uint256"
        },
        {
          "internalType": "uint256",
          "name": "T",
          "type": "uint256"
        }
      ],
      "name": "calcSynthUnits",
      "outputs": [
        {
          "internalType": "uint256",
          "name": "",
          "type": "uint256"
        }
      ],
      "stateMutability": "pure",
      "type": "function"
    },
    {
      "inputs": [
        {
          "internalType": "address",
          "name": "token",
          "type": "address"
        },
        {
          "internalType": "uint256",
          "name": "amount",
          "type": "uint256"
        }
      ],
      "name": "calcValueInBase",
      "outputs": [
        {
          "internalType": "uint256",
          "name": "value",
          "type": "uint256"
        }
      ],
      "stateMutability": "view",
      "type": "function"
    },
    {
      "inputs": [
        {
          "internalType": "address",
          "name": "token",
          "type": "address"
        },
        {
          "internalType": "uint256",
          "name": "amount",
          "type": "uint256"
        }
      ],
      "name": "calcValueInToken",
      "outputs": [
        {
          "internalType": "uint256",
          "name": "value",
          "type": "uint256"
        }
      ],
      "stateMutability": "view",
      "type": "function"
    },
    {
      "inputs": [
        {
          "internalType": "address",
          "name": "token1",
          "type": "address"
        },
        {
          "internalType": "uint256",
          "name": "amount",
          "type": "uint256"
        },
        {
          "internalType": "address",
          "name": "token2",
          "type": "address"
        }
      ],
      "name": "calcValueOfTokenInToken",
      "outputs": [
        {
          "internalType": "uint256",
          "name": "value",
          "type": "uint256"
        }
      ],
      "stateMutability": "view",
      "type": "function"
    },
    {
      "inputs": [
        {
          "internalType": "address",
          "name": "member",
          "type": "address"
        },
        {
          "internalType": "uint256",
          "name": "collateral",
          "type": "uint256"
        },
        {
          "internalType": "address",
          "name": "collateralAsset",
          "type": "address"
        },
        {
          "internalType": "address",
          "name": "debtAsset",
          "type": "address"
        }
      ],
      "name": "getCollateralValueInBase",
      "outputs": [
        {
          "internalType": "uint256",
          "name": "debt",
          "type": "uint256"
        },
        {
          "internalType": "uint256",
          "name": "baseValue",
          "type": "uint256"
        }
      ],
      "stateMutability": "view",
      "type": "function"
    },
    {
      "inputs": [
        {
          "internalType": "address",
          "name": "member",
          "type": "address"
        },
        {
          "internalType": "address",
          "name": "token",
          "type": "address"
        }
      ],
      "name": "getCoverage",
      "outputs": [
        {
          "internalType": "uint256",
          "name": "",
          "type": "uint256"
        }
      ],
      "stateMutability": "view",
      "type": "function"
    },
    {
      "inputs": [
        {
          "internalType": "address",
          "name": "collateralAsset",
          "type": "address"
        },
        {
          "internalType": "address",
          "name": "debtAsset",
          "type": "address"
        }
      ],
      "name": "getDebtLoading",
      "outputs": [
        {
          "internalType": "uint256",
          "name": "",
          "type": "uint256"
        }
      ],
      "stateMutability": "view",
      "type": "function"
    },
    {
      "inputs": [
        {
          "internalType": "address",
          "name": "member",
          "type": "address"
        },
        {
          "internalType": "uint256",
          "name": "debt",
          "type": "uint256"
        },
        {
          "internalType": "address",
          "name": "collateralAsset",
          "type": "address"
        },
        {
          "internalType": "address",
          "name": "debtAsset",
          "type": "address"
        }
      ],
      "name": "getDebtValueInCollateral",
      "outputs": [
        {
          "internalType": "uint256",
          "name": "",
          "type": "uint256"
        },
        {
          "internalType": "uint256",
          "name": "",
          "type": "uint256"
        }
      ],
      "stateMutability": "view",
      "type": "function"
    },
    {
      "inputs": [
        {
          "internalType": "uint256",
          "name": "totalSupply",
          "type": "uint256"
        },
        {
          "internalType": "uint256",
          "name": "maxSupply",
          "type": "uint256"
        }
      ],
      "name": "getFeeOnTransfer",
      "outputs": [
        {
          "internalType": "uint256",
          "name": "",
          "type": "uint256"
        }
      ],
      "stateMutability": "pure",
      "type": "function"
    },
    {
      "inputs": [
        {
          "internalType": "address",
          "name": "collateralAsset",
          "type": "address"
        },
        {
          "internalType": "address",
          "name": "debtAsset",
          "type": "address"
        },
        {
          "internalType": "uint256",
          "name": "timeElapsed",
          "type": "uint256"
        }
      ],
      "name": "getInterestOwed",
      "outputs": [
        {
          "internalType": "uint256",
          "name": "interestOwed",
          "type": "uint256"
        }
      ],
      "stateMutability": "view",
      "type": "function"
    },
    {
      "inputs": [
        {
          "internalType": "address",
          "name": "collateralAsset",
          "type": "address"
        },
        {
          "internalType": "address",
          "name": "debtAsset",
          "type": "address"
        }
      ],
      "name": "getInterestPayment",
      "outputs": [
        {
          "internalType": "uint256",
          "name": "",
          "type": "uint256"
        }
      ],
      "stateMutability": "view",
      "type": "function"
    },
    {
      "inputs": [
        {
          "internalType": "uint256",
          "name": "basisPoints",
          "type": "uint256"
        },
        {
          "internalType": "address",
          "name": "token",
          "type": "address"
        },
        {
          "internalType": "address",
          "name": "member",
          "type": "address"
        }
      ],
      "name": "getMemberShare",
      "outputs": [
        {
          "internalType": "uint256",
          "name": "units",
          "type": "uint256"
        },
        {
          "internalType": "uint256",
          "name": "outputBase",
          "type": "uint256"
        },
        {
          "internalType": "uint256",
          "name": "outputToken",
          "type": "uint256"
        }
      ],
      "stateMutability": "view",
      "type": "function"
    },
    {
      "inputs": [
        {
          "internalType": "address",
          "name": "member",
          "type": "address"
        },
        {
          "internalType": "address",
          "name": "token",
          "type": "address"
        },
        {
          "internalType": "uint256",
          "name": "basisPoints",
          "type": "uint256"
        },
        {
          "internalType": "uint256",
          "name": "timeForFullProtection",
          "type": "uint256"
        }
      ],
      "name": "getProtection",
      "outputs": [
        {
          "internalType": "uint256",
          "name": "protection",
          "type": "uint256"
        }
      ],
      "stateMutability": "view",
      "type": "function"
    },
    {
      "inputs": [
        {
          "internalType": "uint256",
          "name": "amount",
          "type": "uint256"
        },
        {
          "internalType": "uint256",
          "name": "rewardReductionFactor",
          "type": "uint256"
        }
      ],
      "name": "getReducedShare",
      "outputs": [
        {
          "internalType": "uint256",
          "name": "",
          "type": "uint256"
        }
      ],
      "stateMutability": "pure",
      "type": "function"
    },
    {
      "inputs": [
        {
          "internalType": "address",
          "name": "token",
          "type": "address"
        },
        {
          "internalType": "uint256",
          "name": "rewardReductionFactor",
          "type": "uint256"
        }
      ],
      "name": "getRewardShare",
      "outputs": [
        {
          "internalType": "uint256",
          "name": "rewardShare",
          "type": "uint256"
        }
      ],
      "stateMutability": "view",
      "type": "function"
    },
    {
      "inputs": [
        {
          "internalType": "uint256",
          "name": "b",
          "type": "uint256"
        },
        {
          "internalType": "uint256",
          "name": "B",
          "type": "uint256"
        },
        {
          "internalType": "uint256",
          "name": "t",
          "type": "uint256"
        },
        {
          "internalType": "uint256",
          "name": "T",
          "type": "uint256"
        }
      ],
      "name": "getSlipAdjustment",
      "outputs": [
        {
          "internalType": "uint256",
          "name": "",
          "type": "uint256"
        }
      ],
      "stateMutability": "pure",
      "type": "function"
    },
    {
      "inputs": [
        {
          "internalType": "address",
          "name": "token",
          "type": "address"
        }
      ],
      "name": "isBase",
      "outputs": [
        {
          "internalType": "bool",
          "name": "base",
          "type": "bool"
        }
      ],
      "stateMutability": "view",
      "type": "function"
    },
    {
      "inputs": [
        {
          "internalType": "address",
          "name": "token",
          "type": "address"
        }
      ],
      "name": "isPool",
      "outputs": [
        {
          "internalType": "bool",
          "name": "pool",
          "type": "bool"
        }
      ],
      "stateMutability": "view",
      "type": "function"
    },
    {
      "inputs": [
        {
          "internalType": "address",
          "name": "token",
          "type": "address"
        },
        {
          "internalType": "uint256",
          "name": "bound",
          "type": "uint256"
        },
        {
          "internalType": "bool",
          "name": "inside",
          "type": "bool"
        },
        {
          "internalType": "uint256",
          "name": "targetPrice",
          "type": "uint256"
        }
      ],
      "name": "requirePriceBounds",
      "outputs": [],
      "stateMutability": "view",
      "type": "function"
    },
    {
      "inputs": [
        {
          "internalType": "uint256[]",
          "name": "array",
          "type": "uint256[]"
        }
      ],
      "name": "sortArray",
      "outputs": [
        {
          "internalType": "uint256[]",
          "name": "",
          "type": "uint256[]"
        }
      ],
      "stateMutability": "pure",
      "type": "function"
    }
  ],
  "bytecode": "0x60a06040523480156200001157600080fd5b50604051620032f0380380620032f083398101604081905262000034916200004a565b60601b6001600160601b0319166080526200007a565b6000602082840312156200005c578081fd5b81516001600160a01b038116811462000073578182fd5b9392505050565b60805160601c61321f620000d1600039600081816101fa015281816110150152818161169e01528181611db0015281816128820152818161298a01528181612a5501528181612b200152612beb015261321f6000f3fe608060405234801561001057600080fd5b50600436106101f05760003560e01c80638b18b1151161010f578063c5c11ee9116100a2578063dcf3f1e011610071578063dcf3f1e01461048a578063e379976e1461049d578063eb7d5ddf146104bd578063ec1753f1146104d0576101f0565b8063c5c11ee91461043c578063cf975e7b1461044f578063d549a1ec14610464578063db39dc7914610477576101f0565b8063b80e44b8116100de578063b80e44b8146103f0578063bd2bdaf214610403578063c0c4a72414610416578063c2886b8a14610429576101f0565b80638b18b115146103a4578063945821af146103b75780639e3f1e8e146103ca578063b4951e4a146103dd576101f0565b80635b16ebb7116101875780637011add3116101565780637011add31461033d578063701baaf31461036b578063714270ab1461037e578063896a708c14610391576101f0565b80635b16ebb7146102cc5780635c22141f146102ef5780635f2c12e8146103175780636e899aa31461032a576101f0565b80632db6e488116101c35780632db6e488146102805780634a12765114610293578063595a88a7146102a65780635b0b602d146102b9576101f0565b806301681315146101f557806302bf4bf81461023957806312a86ffb1461025a5780631ba326c41461026d575b600080fd5b61021c7f000000000000000000000000000000000000000000000000000000000000000081565b6040516001600160a01b0390911681526020015b60405180910390f35b61024c610247366004613045565b6104e3565b604051908152602001610230565b61024c610268366004612cea565b61059e565b61024c61027b36600461301a565b610926565b61024c61028e366004612fd6565b610959565b61024c6102a136600461301a565b61097b565b61024c6102b4366004613045565b610a20565b61024c6102c7366004612d62565b610a88565b6102df6102da366004612cb2565b610be5565b6040519015158152602001610230565b6103026102fd366004612e13565b610d01565b60408051928352602083019190915201610230565b61024c610325366004612da7565b610f72565b6102df610338366004612cb2565b611011565b61035061034b366004612fa0565b611070565b60408051938452602084019290925290820152606001610230565b61024c61037936600461301a565b6113e0565b61024c61038c366004612fd6565b611426565b61024c61039f36600461301a565b611481565b61024c6103b2366004612fd6565b61148f565b61024c6103c5366004612d22565b61149d565b61024c6103d8366004612cea565b611572565b61024c6103eb366004612da7565b61169a565b61024c6103fe366004612da7565b611af6565b61024c610411366004612fd6565b611b8c565b61024c610424366004612da7565b611b9a565b61024c610437366004612cea565b611c60565b61024c61044a366004613076565b611d0b565b61046261045d366004612cea565b611dae565b005b610302610472366004612e13565b6122e7565b61024c610485366004612da7565b612558565b61024c610498366004612dd2565b612603565b6104b06104ab366004612eac565b612613565b60405161023091906130ca565b6104626104cb366004612e65565b61276d565b61024c6104de36600461301a565b612867565b6000806104f08486613146565b905060006104fe8488613146565b905060008661050e896002613146565b610518919061310e565b90506000610526868861310e565b90506000838511156105435761053c8486613165565b9050610550565b61054d8585613165565b90505b600061055c8385613146565b905080610571670de0b6b3a764000084613146565b61057b9190613126565b61058d90670de0b6b3a7640000613165565b96505050505050505b949350505050565b6000806105a961287e565b6001600160a01b031663ff8b83a685856040518363ffffffff1660e01b81526004016105d69291906130b0565b60206040518083038186803b1580156105ee57600080fd5b505afa158015610602573d6000803e3d6000fd5b505050506040513d601f19601f820116820180604052508101906106269190612f88565b9050600061063261287e565b6001600160a01b031663cfa701c586866040518363ffffffff1660e01b815260040161065f9291906130b0565b60206040518083038186803b15801561067757600080fd5b505afa15801561068b573d6000803e3d6000fd5b505050506040513d601f19601f820116820180604052508101906106af9190612f88565b905060006106bb612986565b6001600160a01b03166324ef375086886040518363ffffffff1660e01b81526004016106e89291906130b0565b60206040518083038186803b15801561070057600080fd5b505afa158015610714573d6000803e3d6000fd5b505050506040513d601f19601f820116820180604052508101906107389190612f88565b9050600061084782610748612986565b604051630fefbc0960e01b81526001600160a01b038a811660048301529190911690630fefbc099060240160206040518083038186803b15801561078b57600080fd5b505afa15801561079f573d6000803e3d6000fd5b505050506040513d601f19601f820116820180604052508101906107c39190612f88565b6107cb612986565b60405163b34c8afb60e01b81526001600160a01b038b81166004830152919091169063b34c8afb906024015b60206040518083038186803b15801561080f57600080fd5b505afa158015610823573d6000803e3d6000fd5b505050506040513d601f19601f8201168201806040525081019061027b9190612f88565b9050600061090a83610857612986565b604051630fefbc0960e01b81526001600160a01b038b811660048301529190911690630fefbc099060240160206040518083038186803b15801561089a57600080fd5b505afa1580156108ae573d6000803e3d6000fd5b505050506040513d601f19601f820116820180604052508101906108d29190612f88565b6108da612986565b60405163e6ae1a9760e01b81526001600160a01b038c81166004830152919091169063e6ae1a97906024016107f7565b905061091885858484610a20565b955050505050505b92915050565b600082841115610934578293505b821561095257826109458584613146565b61094f9190613126565b90505b9392505050565b6000610965828461310e565b61097184612710613146565b6109529190613126565b6000806109888486613146565b9050600083610998816002613146565b6109a29190613146565b90506000866109b2876002613146565b6109bc9190613146565b905060006109ca8780613146565b90506000816109d98486613165565b6109e3919061310e565b6109ed9086613146565b90506000886109fc8180613146565b610a069190613146565b9050610a128183613126565b9a9950505050505050505050565b600081610a2f57506000610596565b600082610a3c8587613146565b610a469190613126565b610a50908761310e565b90506000610a5f856002613146565b9050808211610a7357600092505050610596565b610a7d8183613165565b979650505050505050565b600080610a95868661059e565b9050610a9f61287e565b604051631dd35c3960e21b81526001600160a01b038781166004830152919091169063774d70e49060240160206040518083038186803b158015610ae257600080fd5b505afa158015610af6573d6000803e3d6000fd5b505050506040513d601f19601f82011682018060405250810190610b1a9190612f6c565b15610bd1576000610b2961287e565b6001600160a01b0316636a87def588886040518363ffffffff1660e01b8152600401610b569291906130b0565b60206040518083038186803b158015610b6e57600080fd5b505afa158015610b82573d6000803e3d6000fd5b505050506040513d601f19601f82011682018060405250810190610ba69190612f88565b610bb09042613165565b9050838111610bcb57610bc4818584610926565b9250610bcf565b8192505b505b610bdb8483611426565b9695505050505050565b6000610bef612986565b604051636c66769560e11b81526001600160a01b038481166004830152919091169063d8cced2a9060240160206040518083038186803b158015610c3257600080fd5b505afa158015610c46573d6000803e3d6000fd5b505050506040513d601f19601f82011682018060405250810190610c6a9190612f6c565b80610cf35750610c78612986565b60405163643fd21560e11b81526001600160a01b038481166004830152919091169063c87fa42a9060240160206040518083038186803b158015610cbb57600080fd5b505afa158015610ccf573d6000803e3d6000fd5b505050506040513d601f19601f82011682018060405250810190610cf39190612f6c565b15610cfc575060015b919050565b60008080612710610d1487611a0a613146565b610d1e9190613126565b9050610d2985611011565b15610d3657809150610f5c565b610d3f85610be5565b15610e5757610e5081610d50612986565b6001600160a01b03166324ef3750888b6040518363ffffffff1660e01b8152600401610d7d9291906130b0565b60206040518083038186803b158015610d9557600080fd5b505afa158015610da9573d6000803e3d6000fd5b505050506040513d601f19601f82011682018060405250810190610dcd9190612f88565b610dd5612986565b60405163b34c8afb60e01b81526001600160a01b038a81166004830152919091169063b34c8afb9060240160206040518083038186803b158015610e1857600080fd5b505afa158015610e2c573d6000803e3d6000fd5b505050506040513d601f19601f820116820180604052508101906102a19190612f88565b9150610f5c565b610e5f612a51565b604051632f011bf560e11b81526001600160a01b0387811660048301529190911690635e0237ea9060240160206040518083038186803b158015610ea257600080fd5b505afa158015610eb6573d6000803e3d6000fd5b505050506040513d601f19601f82011682018060405250810190610eda9190612f6c565b15610f5c57610f59856001600160a01b03166382bfefc86040518163ffffffff1660e01b815260040160206040518083038186803b158015610f1b57600080fd5b505afa158015610f2f573d6000803e3d6000fd5b505050506040513d601f19601f82011682018060405250810190610f539190612cce565b82611af6565b91505b610f668483610f72565b92505094509492505050565b6000806000610f7f612986565b60405163903443b960e01b81526001600160a01b038781166004830152919091169063903443b990602401604080518083038186803b158015610fc157600080fd5b505afa158015610fd5573d6000803e3d6000fd5b505050506040513d601f19601f82011682018060405250810190610ff99190612ff7565b915091506110088483836113e0565b95945050505050565b60007f00000000000000000000000000000000000000000000000000000000000000006001600160a01b0316826001600160a01b031614806109205750611056612b1c565b6001600160a01b0316826001600160a01b03161492915050565b60008060006110fe86611081612986565b6001600160a01b03166324ef375088886040518363ffffffff1660e01b81526004016110ae9291906130b0565b60206040518083038186803b1580156110c657600080fd5b505afa1580156110da573d6000803e3d6000fd5b505050506040513d601f19601f8201168201806040525081019061038c9190612f88565b9250600061110a612986565b604051630fefbc0960e01b81526001600160a01b0388811660048301529190911690630fefbc099060240160206040518083038186803b15801561114d57600080fd5b505afa158015611161573d6000803e3d6000fd5b505050506040513d601f19601f820116820180604052508101906111859190612f88565b90506000611191612986565b60405163b34c8afb60e01b81526001600160a01b038981166004830152919091169063b34c8afb9060240160206040518083038186803b1580156111d457600080fd5b505afa1580156111e8573d6000803e3d6000fd5b505050506040513d601f19601f8201168201806040525081019061120c9190612f88565b90506000611218612986565b60405163e6ae1a9760e01b81526001600160a01b038a81166004830152919091169063e6ae1a979060240160206040518083038186803b15801561125b57600080fd5b505afa15801561126f573d6000803e3d6000fd5b505050506040513d601f19601f820116820180604052508101906112939190612f88565b9050600061129f612a51565b604051636e76408b60e11b81526001600160a01b038b81166004830152919091169063dcec81169060240160206040518083038186803b1580156112e257600080fd5b505afa1580156112f6573d6000803e3d6000fd5b505050506040513d601f19601f8201168201806040525081019061131a9190612cce565b90506001600160a01b038116156113b9576000816001600160a01b03166318160ddd6040518163ffffffff1660e01b815260040160206040518083038186803b15801561136657600080fd5b505afa15801561137a573d6000803e3d6000fd5b505050506040513d601f19601f8201168201806040525081019061139e9190612f88565b90506113ab818585612867565b6113b5908661310e565b9450505b6113c4878585610926565b95506113d1878584610926565b94505050505093509350939050565b600080826113ee8587613146565b6113f89190613146565b90506000611406858761310e565b611410868861310e565b61141a9190613146565b9050610bdb8183613126565b60006127108311156114745760405162461bcd60e51b815260206004820152601260248201527104d75737420626520636f72726563742042560741b60448201526064015b60405180910390fd5b6109528361271084610926565b600080826113ee8680613146565b600061095283836064610926565b6000806114b3836301e1338061027b8888611c60565b90506114be85611011565b156114d4576114cd8482612558565b915061156a565b6114dc612a51565b604051632f011bf560e11b81526001600160a01b0387811660048301529190911690635e0237ea9060240160206040518083038186803b15801561151f57600080fd5b505afa158015611533573d6000803e3d6000fd5b505050506040513d601f19601f820116820180604052508101906115579190612f6c565b1561156a57611567848287612603565b91505b509392505050565b60008061157d612be7565b6001600160a01b03166382eb723385856040518363ffffffff1660e01b81526004016115aa9291906130b0565b60206040518083038186803b1580156115c257600080fd5b505afa1580156115d6573d6000803e3d6000fd5b505050506040513d601f19601f820116820180604052508101906115fa9190612f88565b90506000611606612986565b60405163e6ae1a9760e01b81526001600160a01b038681166004830152919091169063e6ae1a979060240160206040518083038186803b15801561164957600080fd5b505afa15801561165d573d6000803e3d6000fd5b505050506040513d601f19601f820116820180604052508101906116819190612f88565b90508061169083612710613146565b6110089190613126565b60007f00000000000000000000000000000000000000000000000000000000000000006001600160a01b0316630781f4d26040518163ffffffff1660e01b815260040160206040518083038186803b1580156116f557600080fd5b505afa158015611709573d6000803e3d6000fd5b505050506040513d601f19601f8201168201806040525081019061172d9190612f6c565b80156117b7575061173c61287e565b604051631dd35c3960e21b81526001600160a01b038581166004830152919091169063774d70e49060240160206040518083038186803b15801561177f57600080fd5b505afa158015611793573d6000803e3d6000fd5b505050506040513d601f19601f820116820180604052508101906117b79190612f6c565b156109205760006117c6612986565b60405163b34c8afb60e01b81526001600160a01b038681166004830152919091169063b34c8afb9060240160206040518083038186803b15801561180957600080fd5b505afa15801561181d573d6000803e3d6000fd5b505050506040513d601f19601f820116820180604052508101906118419190612f88565b905061184b612986565b60405163643fd21560e11b81526001600160a01b038681166004830152919091169063c87fa42a9060240160206040518083038186803b15801561188e57600080fd5b505afa1580156118a2573d6000803e3d6000fd5b505050506040513d601f19601f820116820180604052508101906118c69190612f6c565b1561199d576000611989826118d9612986565b6001600160a01b031663a9652dca6040518163ffffffff1660e01b815260040160206040518083038186803b15801561191157600080fd5b505afa158015611925573d6000803e3d6000fd5b505050506040513d601f19601f820116820180604052508101906119499190612f88565b61195161287e565b6001600160a01b031663de6ad44e6040518163ffffffff1660e01b815260040160206040518083038186803b15801561080f57600080fd5b90506119958185611b8c565b925050611aef565b6119a5612986565b604051636c66769560e11b81526001600160a01b038681166004830152919091169063d8cced2a9060240160206040518083038186803b1580156119e857600080fd5b505afa1580156119fc573d6000803e3d6000fd5b505050506040513d601f19601f82011682018060405250810190611a209190612f6c565b15611aef576000611ae382611a33612986565b6001600160a01b031663dd5a2bd86040518163ffffffff1660e01b815260040160206040518083038186803b158015611a6b57600080fd5b505afa158015611a7f573d6000803e3d6000fd5b505050506040513d601f19601f82011682018060405250810190611aa39190612f88565b611aab61287e565b6001600160a01b03166362cea3406040518163ffffffff1660e01b815260040160206040518083038186803b15801561080f57600080fd5b90506110088185611b8c565b5092915050565b6000806000611b03612986565b60405163903443b960e01b81526001600160a01b038781166004830152919091169063903443b990602401604080518083038186803b158015611b4557600080fd5b505afa158015611b59573d6000803e3d6000fd5b505050506040513d601f19601f82011682018060405250810190611b7d9190612ff7565b915091506110088482846113e0565b600061095260018385610926565b6000806000611ba7612986565b60405163903443b960e01b81526001600160a01b038781166004830152919091169063903443b990602401604080518083038186803b158015611be957600080fd5b505afa158015611bfd573d6000803e3d6000fd5b505050506040513d601f19601f82011682018060405250810190611c219190612ff7565b91509150600082118015611c355750600081115b15611c585781611c458286613146565b611c4f9190613126565b92505050610920565b505092915050565b600080611c6d8484611572565b9050612710611c7a612be7565b6001600160a01b03166382eb723386866040518363ffffffff1660e01b8152600401611ca79291906130b0565b60206040518083038186803b158015611cbf57600080fd5b505afa158015611cd3573d6000803e3d6000fd5b505050506040513d601f19601f82011682018060405250810190611cf79190612f88565b611d019083613146565b6105969190613126565b600081611d19575084611008565b6000611d27878787876104e3565b90506000611d358787613146565b90506000611d438987613146565b9050600088611d53886002613146565b611d5d9190613146565b9050600081611d6c848661310e565b611d769089613146565b611d809190613126565b9050670de0b6b3a7640000611d958683613146565b611d9f9190613126565b9b9a5050505050505050505050565b7f00000000000000000000000000000000000000000000000000000000000000006001600160a01b0316826001600160a01b03161415611ea957611df0612986565b604051636c66769560e11b81526001600160a01b038381166004830152919091169063d8cced2a906024015b60206040518083038186803b158015611e3457600080fd5b505afa158015611e48573d6000803e3d6000fd5b505050506040513d601f19601f82011682018060405250810190611e6c9190612f6c565b611ea45760405162461bcd60e51b815260206004820152600960248201526842616420436f6d626f60b81b604482015260640161146b565b6122e3565b611eb1612b1c565b6001600160a01b0316826001600160a01b03161415611f0257611ed2612986565b60405163643fd21560e11b81526001600160a01b038381166004830152919091169063c87fa42a90602401611e1c565b611f0a612986565b604051632f011bf560e11b81526001600160a01b0384811660048301529190911690635e0237ea90602401602060405180830381600087803b158015611f4f57600080fd5b505af1158015611f63573d6000803e3d6000fd5b505050506040513d601f19601f82011682018060405250810190611f879190612f6c565b801561208c5750611f96612986565b6001600160a01b031663d8cced2a836001600160a01b03166382bfefc86040518163ffffffff1660e01b815260040160206040518083038186803b158015611fdd57600080fd5b505afa158015611ff1573d6000803e3d6000fd5b505050506040513d601f19601f820116820180604052508101906120159190612cce565b6040516001600160e01b031960e084901b1681526001600160a01b03909116600482015260240160206040518083038186803b15801561205457600080fd5b505afa158015612068573d6000803e3d6000fd5b505050506040513d601f19601f8201168201806040525081019061208c9190612f6c565b1561209957611df0612986565b6120a1612986565b604051632f011bf560e11b81526001600160a01b0384811660048301529190911690635e0237ea90602401602060405180830381600087803b1580156120e657600080fd5b505af11580156120fa573d6000803e3d6000fd5b505050506040513d601f19601f8201168201806040525081019061211e9190612f6c565b8015612223575061212d612986565b6001600160a01b031663c87fa42a836001600160a01b03166382bfefc86040518163ffffffff1660e01b815260040160206040518083038186803b15801561217457600080fd5b505afa158015612188573d6000803e3d6000fd5b505050506040513d601f19601f820116820180604052508101906121ac9190612cce565b6040516001600160e01b031960e084901b1681526001600160a01b03909116600482015260240160206040518083038186803b1580156121eb57600080fd5b505afa1580156121ff573d6000803e3d6000fd5b505050506040513d601f19601f820116820180604052508101906122239190612f6c565b156122e357612230612986565b60405163643fd21560e11b81526001600160a01b038381166004830152919091169063c87fa42a9060240160206040518083038186803b15801561227357600080fd5b505afa158015612287573d6000803e3d6000fd5b505050506040513d601f19601f820116820180604052508101906122ab9190612f6c565b6122e35760405162461bcd60e51b815260206004820152600960248201526842616420436f6d626f60b81b604482015260640161146b565b5050565b60008060006122f4612be7565b60405163cbc17db360e01b81526001600160a01b03898116600483015287811660248301528681166044830152919091169063cbc17db39060640160206040518083038186803b15801561234757600080fd5b505afa15801561235b573d6000803e3d6000fd5b505050506040513d601f19601f8201168201806040525081019061237f9190612f88565b9050600061238b612be7565b60405163fde3bbe960e01b81526001600160a01b038a8116600483015288811660248301528781166044830152919091169063fde3bbe99060640160206040518083038186803b1580156123de57600080fd5b505afa1580156123f2573d6000803e3d6000fd5b505050506040513d601f19601f820116820180604052508101906124169190612f88565b90506000612422612be7565b6001600160a01b031663e672f6ad88886040518363ffffffff1660e01b815260040161244f9291906130b0565b60206040518083038186803b15801561246757600080fd5b505afa15801561247b573d6000803e3d6000fd5b505050506040513d601f19601f8201168201806040525081019061249f9190612f88565b905060006124ab612be7565b6001600160a01b031663e0f52db389896040518363ffffffff1660e01b81526004016124d89291906130b0565b60206040518083038186803b1580156124f057600080fd5b505afa158015612504573d6000803e3d6000fd5b505050506040513d601f19601f820116820180604052508101906125289190612f88565b90506000612537848484610926565b905060006125468b8787610926565b9c919b50909950505050505050505050565b6000806000612565612986565b60405163903443b960e01b81526001600160a01b038781166004830152919091169063903443b990602401604080518083038186803b1580156125a757600080fd5b505afa1580156125bb573d6000803e3d6000fd5b505050506040513d601f19601f820116820180604052508101906125df9190612ff7565b915091506000821180156125f35750600081115b15611c585780611c458386613146565b600061094f826104248686612558565b805160609060005b8181101561276557600061263082600161310e565b90505b828110156127525784818151811061265b57634e487b7160e01b600052603260045260246000fd5b602002602001015185838151811061268357634e487b7160e01b600052603260045260246000fd5b602002602001015111156127405760008583815181106126b357634e487b7160e01b600052603260045260246000fd5b602002602001015190508582815181106126dd57634e487b7160e01b600052603260045260246000fd5b602002602001015186848151811061270557634e487b7160e01b600052603260045260246000fd5b6020026020010181815250508086838151811061273257634e487b7160e01b600052603260045260246000fd5b602002602001018181525050505b8061274a8161317c565b915050612633565b508061275d8161317c565b91505061261b565b509192915050565b600061278185670de0b6b3a7640000612558565b9050600061279a61279486612710613165565b84611426565b905060006127106127ab878261310e565b6127b59086613146565b6127bf9190613126565b90508415612815578183101580156127d75750808311155b6128105760405162461bcd60e51b815260206004820152600a6024820152694e6f7420696e7369646560b01b604482015260640161146b565b61285e565b81831115806128245750808310155b61285e5760405162461bcd60e51b815260206004820152600b60248201526a4e6f74206f75747369646560a81b604482015260640161146b565b50505050505050565b6000612874826002613146565b6109458486613146565b60007f00000000000000000000000000000000000000000000000000000000000000006001600160a01b03166398fabd3a6040518163ffffffff1660e01b815260040160206040518083038186803b1580156128d957600080fd5b505afa1580156128ed573d6000803e3d6000fd5b505050506040513d601f19601f820116820180604052508101906129119190612cce565b6001600160a01b03166332fe7b266040518163ffffffff1660e01b815260040160206040518083038186803b15801561294957600080fd5b505afa15801561295d573d6000803e3d6000fd5b505050506040513d601f19601f820116820180604052508101906129819190612cce565b905090565b60007f00000000000000000000000000000000000000000000000000000000000000006001600160a01b03166398fabd3a6040518163ffffffff1660e01b815260040160206040518083038186803b1580156129e157600080fd5b505afa1580156129f5573d6000803e3d6000fd5b505050506040513d601f19601f82011682018060405250810190612a199190612cce565b6001600160a01b031663ebccb5b26040518163ffffffff1660e01b815260040160206040518083038186803b15801561294957600080fd5b60007f00000000000000000000000000000000000000000000000000000000000000006001600160a01b03166398fabd3a6040518163ffffffff1660e01b815260040160206040518083038186803b158015612aac57600080fd5b505afa158015612ac0573d6000803e3d6000fd5b505050506040513d601f19601f82011682018060405250810190612ae49190612cce565b6001600160a01b0316632dd310006040518163ffffffff1660e01b815260040160206040518083038186803b15801561294957600080fd5b60007f00000000000000000000000000000000000000000000000000000000000000006001600160a01b03166398fabd3a6040518163ffffffff1660e01b815260040160206040518083038186803b158015612b7757600080fd5b505afa158015612b8b573d6000803e3d6000fd5b505050506040513d601f19601f82011682018060405250810190612baf9190612cce565b6001600160a01b031663e2c3b0466040518163ffffffff1660e01b815260040160206040518083038186803b15801561294957600080fd5b60007f00000000000000000000000000000000000000000000000000000000000000006001600160a01b03166398fabd3a6040518163ffffffff1660e01b815260040160206040518083038186803b158015612c4257600080fd5b505afa158015612c56573d6000803e3d6000fd5b505050506040513d601f19601f82011682018060405250810190612c7a9190612cce565b6001600160a01b03166338a1046d6040518163ffffffff1660e01b815260040160206040518083038186803b15801561294957600080fd5b600060208284031215612cc3578081fd5b8135610952816131c3565b600060208284031215612cdf578081fd5b8151610952816131c3565b60008060408385031215612cfc578081fd5b8235612d07816131c3565b91506020830135612d17816131c3565b809150509250929050565b600080600060608486031215612d36578081fd5b8335612d41816131c3565b92506020840135612d51816131c3565b929592945050506040919091013590565b60008060008060808587031215612d77578081fd5b8435612d82816131c3565b93506020850135612d92816131c3565b93969395505050506040820135916060013590565b60008060408385031215612db9578182fd5b8235612dc4816131c3565b946020939093013593505050565b600080600060608486031215612de6578283fd5b8335612df1816131c3565b9250602084013591506040840135612e08816131c3565b809150509250925092565b60008060008060808587031215612e28578384fd5b8435612e33816131c3565b9350602085013592506040850135612e4a816131c3565b91506060850135612e5a816131c3565b939692955090935050565b60008060008060808587031215612e7a578384fd5b8435612e85816131c3565b9350602085013592506040850135612e9c816131db565b9396929550929360600135925050565b60006020808385031215612ebe578182fd5b823567ffffffffffffffff80821115612ed5578384fd5b818501915085601f830112612ee8578384fd5b813581811115612efa57612efa6131ad565b8060051b604051601f19603f83011681018181108582111715612f1f57612f1f6131ad565b604052828152858101935084860182860187018a1015612f3d578788fd5b8795505b83861015612f5f578035855260019590950194938601938601612f41565b5098975050505050505050565b600060208284031215612f7d578081fd5b8151610952816131db565b600060208284031215612f99578081fd5b5051919050565b600080600060608486031215612fb4578283fd5b833592506020840135612fc6816131c3565b91506040840135612e08816131c3565b60008060408385031215612fe8578182fd5b50508035926020909101359150565b60008060408385031215613009578182fd5b505080516020909101519092909150565b60008060006060848603121561302e578081fd5b505081359360208301359350604090920135919050565b6000806000806080858703121561305a578182fd5b5050823594602084013594506040840135936060013592509050565b600080600080600060a0868803121561308d578283fd5b505083359560208501359550604085013594606081013594506080013592509050565b6001600160a01b0392831681529116602082015260400190565b6020808252825182820181905260009190848201906040850190845b81811015613102578351835292840192918401916001016130e6565b50909695505050505050565b6000821982111561312157613121613197565b500190565b60008261314157634e487b7160e01b81526012600452602481fd5b500490565b600081600019048311821515161561316057613160613197565b500290565b60008282101561317757613177613197565b500390565b600060001982141561319057613190613197565b5060010190565b634e487b7160e01b600052601160045260246000fd5b634e487b7160e01b600052604160045260246000fd5b6001600160a01b03811681146131d857600080fd5b50565b80151581146131d857600080fdfea2646970667358221220296fccf68a43655e5ec3f1f3489f13272a6457b2357e50f7846b6b76f840f9c664736f6c63430008030033",
  "linkReferences": {},
  "deployedLinkReferences": {}
}