{
  "_format": "hh-sol-artifact-1",
  "contractName": "Reserve",
  "sourceName": "contracts/Reserve.sol",
  "abi": [
    {
      "inputs": [],
      "stateMutability": "nonpayable",
      "type": "constructor"
    },
    {
      "inputs": [],
      "name": "VADER",
      "outputs": [
        {
          "internalType": "address",
          "name": "",
          "type": "address"
        }
      ],
      "stateMutability": "view",
      "type": "function"
    },
    {
      "inputs": [],
      "name": "allocatedVADER",
      "outputs": [
        {
          "internalType": "uint256",
          "name": "",
          "type": "uint256"
        }
      ],
      "stateMutability": "view",
      "type": "function"
    },
    {
      "inputs": [],
      "name": "checkReserve",
      "outputs": [],
      "stateMutability": "nonpayable",
      "type": "function"
    },
    {
      "inputs": [],
      "name": "getVaultReward",
      "outputs": [
        {
          "internalType": "uint256",
          "name": "",
          "type": "uint256"
        }
      ],
      "stateMutability": "view",
      "type": "function"
    },
    {
      "inputs": [
        {
          "internalType": "address",
          "name": "recipient",
          "type": "address"
        },
        {
          "internalType": "uint256",
          "name": "amount",
          "type": "uint256"
        }
      ],
      "name": "grant",
      "outputs": [],
      "stateMutability": "nonpayable",
      "type": "function"
    },
    {
      "inputs": [
        {
          "internalType": "address",
          "name": "_vader",
          "type": "address"
        }
      ],
      "name": "init",
      "outputs": [],
      "stateMutability": "nonpayable",
      "type": "function"
    },
    {
      "inputs": [],
      "name": "lastGranted",
      "outputs": [
        {
          "internalType": "uint256",
          "name": "",
          "type": "uint256"
        }
      ],
      "stateMutability": "view",
      "type": "function"
    },
    {
      "inputs": [],
      "name": "minGrantTime",
      "outputs": [
        {
          "internalType": "uint256",
          "name": "",
          "type": "uint256"
        }
      ],
      "stateMutability": "view",
      "type": "function"
    },
    {
      "inputs": [],
      "name": "nextEraTime",
      "outputs": [
        {
          "internalType": "uint256",
          "name": "",
          "type": "uint256"
        }
      ],
      "stateMutability": "view",
      "type": "function"
    },
    {
      "inputs": [
        {
          "internalType": "address",
          "name": "base",
          "type": "address"
        },
        {
          "internalType": "address",
          "name": "recipient",
          "type": "address"
        },
        {
          "internalType": "uint256",
          "name": "amount",
          "type": "uint256"
        }
      ],
      "name": "requestFunds",
      "outputs": [
        {
          "internalType": "uint256",
          "name": "",
          "type": "uint256"
        }
      ],
      "stateMutability": "nonpayable",
      "type": "function"
    },
    {
      "inputs": [
        {
          "internalType": "address",
          "name": "base",
          "type": "address"
        },
        {
          "internalType": "address",
          "name": "recipient",
          "type": "address"
        },
        {
          "internalType": "uint256",
          "name": "amount",
          "type": "uint256"
        }
      ],
      "name": "requestFundsStrict",
      "outputs": [
        {
          "internalType": "uint256",
          "name": "",
          "type": "uint256"
        }
      ],
      "stateMutability": "nonpayable",
      "type": "function"
    },
    {
      "inputs": [],
      "name": "reserveUSDV",
      "outputs": [
        {
          "internalType": "uint256",
          "name": "",
          "type": "uint256"
        }
      ],
      "stateMutability": "view",
      "type": "function"
    },
    {
      "inputs": [],
      "name": "reserveVADER",
      "outputs": [
        {
          "internalType": "uint256",
          "name": "",
          "type": "uint256"
        }
      ],
      "stateMutability": "view",
      "type": "function"
    },
    {
      "inputs": [
        {
          "internalType": "uint256",
          "name": "newSplit",
          "type": "uint256"
        },
        {
          "internalType": "uint256",
          "name": "newDelay",
          "type": "uint256"
        },
        {
          "internalType": "uint256",
          "name": "newShare",
          "type": "uint256"
        }
      ],
      "name": "setParams",
      "outputs": [],
      "stateMutability": "nonpayable",
      "type": "function"
    },
    {
      "inputs": [],
      "name": "splitForUSDV",
      "outputs": [
        {
          "internalType": "uint256",
          "name": "",
          "type": "uint256"
        }
      ],
      "stateMutability": "view",
      "type": "function"
    },
    {
      "inputs": [],
      "name": "unallocatedVADER",
      "outputs": [
        {
          "internalType": "uint256",
          "name": "amount",
          "type": "uint256"
        }
      ],
      "stateMutability": "view",
      "type": "function"
    },
    {
      "inputs": [],
      "name": "vaultShare",
      "outputs": [
        {
          "internalType": "uint256",
          "name": "",
          "type": "uint256"
        }
      ],
      "stateMutability": "view",
      "type": "function"
    }
  ],
  "bytecode": "0x608060405234801561001057600080fd5b5062278d006002908155611a2c6004556006556112a9806100326000396000f3fe608060405234801561001057600080fd5b506004361061010b5760003560e01c8063732e86fe116100a2578063d6a6a1c711610071578063d6a6a1c7146101e3578063d9ded2cc146101ec578063de6ad44e146101f4578063e1ac7cfe146101fc578063f22454aa146102045761010b565b8063732e86fe146101b65780637eabe37d146101bf578063a4b82cb6146101c7578063a76a50d4146101d05761010b565b80635a0ce676116100de5780635a0ce6761461017557806362cea340146101885780636370920e146101905780636a529026146101a35761010b565b80630168131514610110578063090bbb011461014057806319ab453c1461015757806323ee27921461016c575b600080fd5b600054610123906001600160a01b031681565b6040516001600160a01b0390911681526020015b60405180910390f35b61014960035481565b604051908152602001610137565b61016a610165366004611059565b61020d565b005b61014960045481565b61016a610183366004611134565b610355565b6101496103bd565b61016a61019e3660046110d1565b610440565b6101496101b1366004611091565b610598565b61014960065481565b610149610632565b61014960015481565b6101496101de366004611091565b61065a565b61014960055481565b610149610779565b610149610790565b61016a6107c8565b61014960025481565b6000546001600160a01b031661035257600080546001600160a01b0319166001600160a01b038316908117909155604080516335c951db60e11b81529051636b92a3b691600480820192602092909190829003018186803b15801561027157600080fd5b505afa158015610285573d6000803e3d6000fd5b505050506040513d601f19601f820116820180604052508101906102a9919061111c565b6102b390426111ae565b6003556000546001600160a01b031663095ea7b36102cf6109c3565b6040516001600160e01b031960e084901b1681526001600160a01b0390911660048201526000196024820152604401602060405180830381600087803b15801561031857600080fd5b505af115801561032c573d6000803e3d6000fd5b505050506040513d601f19601f8201168201806040525081019061035091906110fc565b505b50565b61035d610aba565b6001600160a01b0316336001600160a01b0316146103af5760405162461bcd60e51b81526004016103a6906020808252600490820152632144414f60e01b604082015260600190565b60405180910390fd5b600492909255600255600655565b600080546040516370a0823160e01b81523060048201526001600160a01b03909116906370a08231906024015b60206040518083038186803b15801561040257600080fd5b505afa158015610416573d6000803e3d6000fd5b505050506040513d601f19601f8201168201806040525081019061043a919061111c565b90505b90565b610448610aba565b6001600160a01b0316336001600160a01b0316146104915760405162461bcd60e51b81526004016103a6906020808252600490820152632144414f60e01b604082015260600190565b6002546001546104a19042611205565b10156104de5760405162461bcd60e51b815260206004820152600c60248201526b1b9bdd081d1bdbc819985cdd60a21b60448201526064016103a6565b426001556000600a6104ee610790565b6104f891906111c6565b905080821115610506578091505b61050e6109c3565b60405163a9059cbb60e01b81526001600160a01b03858116600483015260248201859052919091169063a9059cbb90604401602060405180830381600087803b15801561055a57600080fd5b505af115801561056e573d6000803e3d6000fd5b505050506040513d601f19601f8201168201806040525081019061059291906110fc565b50505050565b60006105a333610b09565b6105ac57600080fd5b6105b46107c8565b600080546001600160a01b03868116911614156105da576105d36103bd565b9050610606565b6105e26109c3565b6001600160a01b0316856001600160a01b0316141561060657610603610790565b90505b80831115610612578092505b6106266001600160a01b0386168585610b7b565b829150505b9392505050565b600060055461063f6103bd565b111561043d576005546106506103bd565b61043a9190611205565b600061066533610b09565b61066e57600080fd5b6106766107c8565b6000546001600160a01b03858116911614156106e757816106956103bd565b116106e25760405162461bcd60e51b815260206004820152601a60248201527f496e73756666696369656e74205641444552205265736572766500000000000060448201526064016103a6565b61075e565b6106ef6109c3565b6001600160a01b0316846001600160a01b0316141561075e5781610711610790565b1161075e5760405162461bcd60e51b815260206004820152601960248201527f496e73756666696369656e74205553445620526573657276650000000000000060448201526064016103a6565b6107726001600160a01b0385168484610b7b565b5092915050565b6000600654610786610790565b61043a91906111c6565b600061079a6109c3565b6040516370a0823160e01b81523060048201526001600160a01b0391909116906370a08231906024016103ea565b6107d133610b09565b6107da57600080fd5b600354421015801561086b575060008054906101000a90046001600160a01b03166001600160a01b0316630781f4d26040518163ffffffff1660e01b815260040160206040518083038186803b15801561083357600080fd5b505afa158015610847573d6000803e3d6000fd5b505050506040513d601f19601f8201168201806040525081019061086b91906110fc565b156109c15760008054906101000a90046001600160a01b03166001600160a01b0316636b92a3b66040518163ffffffff1660e01b815260040160206040518083038186803b1580156108bc57600080fd5b505afa1580156108d0573d6000803e3d6000fd5b505050506040513d601f19601f820116820180604052508101906108f4919061111c565b6108fe90426111ae565b600355600061090b610632565b9050600281106109b45760006127106004548361092891906111e6565b61093291906111c6565b600054604051630d526ddf60e21b8152600481018390529192506001600160a01b031690633549b77c90602401602060405180830381600087803b15801561097957600080fd5b505af115801561098d573d6000803e3d6000fd5b505050506040513d601f19601f820116820180604052508101906109b1919061111c565b50505b6109bc6103bd565b600555505b565b60008060009054906101000a90046001600160a01b03166001600160a01b03166398fabd3a6040518163ffffffff1660e01b815260040160206040518083038186803b158015610a1257600080fd5b505afa158015610a26573d6000803e3d6000fd5b505050506040513d601f19601f82011682018060405250810190610a4a9190611075565b6001600160a01b031663e2c3b0466040518163ffffffff1660e01b815260040160206040518083038186803b158015610a8257600080fd5b505afa158015610a96573d6000803e3d6000fd5b505050506040513d601f19601f8201168201806040525081019061043a9190611075565b60008060009054906101000a90046001600160a01b03166001600160a01b03166398fabd3a6040518163ffffffff1660e01b815260040160206040518083038186803b158015610a8257600080fd5b6000610b13610bd2565b6001600160a01b0316826001600160a01b03161480610b4a5750610b35610c91565b6001600160a01b0316826001600160a01b0316145b80610b6d5750610b58610d50565b6001600160a01b0316826001600160a01b0316145b15610b76575060015b919050565b604080516001600160a01b038416602482015260448082018490528251808303909101815260649091019091526020810180516001600160e01b031663a9059cbb60e01b179052610bcd908490610e0f565b505050565b60008060009054906101000a90046001600160a01b03166001600160a01b03166398fabd3a6040518163ffffffff1660e01b815260040160206040518083038186803b158015610c2157600080fd5b505afa158015610c35573d6000803e3d6000fd5b505050506040513d601f19601f82011682018060405250810190610c599190611075565b6001600160a01b031663411557d16040518163ffffffff1660e01b815260040160206040518083038186803b158015610a8257600080fd5b60008060009054906101000a90046001600160a01b03166001600160a01b03166398fabd3a6040518163ffffffff1660e01b815260040160206040518083038186803b158015610ce057600080fd5b505afa158015610cf4573d6000803e3d6000fd5b505050506040513d601f19601f82011682018060405250810190610d189190611075565b6001600160a01b03166332fe7b266040518163ffffffff1660e01b815260040160206040518083038186803b158015610a8257600080fd5b60008060009054906101000a90046001600160a01b03166001600160a01b03166398fabd3a6040518163ffffffff1660e01b815260040160206040518083038186803b158015610d9f57600080fd5b505afa158015610db3573d6000803e3d6000fd5b505050506040513d601f19601f82011682018060405250810190610dd79190611075565b6001600160a01b03166338a1046d6040518163ffffffff1660e01b815260040160206040518083038186803b158015610a8257600080fd5b6000610e64826040518060400160405280602081526020017f5361666545524332303a206c6f772d6c6576656c2063616c6c206661696c6564815250856001600160a01b0316610ee19092919063ffffffff16565b805190915015610bcd5780806020019051810190610e8291906110fc565b610bcd5760405162461bcd60e51b815260206004820152602a60248201527f5361666545524332303a204552433230206f7065726174696f6e20646964206e6044820152691bdd081cdd58d8d9595960b21b60648201526084016103a6565b6060610ef08484600085610ef8565b949350505050565b606082471015610f595760405162461bcd60e51b815260206004820152602660248201527f416464726573733a20696e73756666696369656e742062616c616e636520666f6044820152651c8818d85b1b60d21b60648201526084016103a6565b843b610fa75760405162461bcd60e51b815260206004820152601d60248201527f416464726573733a2063616c6c20746f206e6f6e2d636f6e747261637400000060448201526064016103a6565b600080866001600160a01b03168587604051610fc3919061115f565b60006040518083038185875af1925050503d8060008114611000576040519150601f19603f3d011682016040523d82523d6000602084013e611005565b606091505b5091509150611015828286611020565b979650505050505050565b6060831561102f57508161062b565b82511561103f5782518084602001fd5b8160405162461bcd60e51b81526004016103a6919061117b565b60006020828403121561106a578081fd5b813561062b8161125e565b600060208284031215611086578081fd5b815161062b8161125e565b6000806000606084860312156110a5578182fd5b83356110b08161125e565b925060208401356110c08161125e565b929592945050506040919091013590565b600080604083850312156110e3578182fd5b82356110ee8161125e565b946020939093013593505050565b60006020828403121561110d578081fd5b8151801515811461062b578182fd5b60006020828403121561112d578081fd5b5051919050565b600080600060608486031215611148578283fd5b505081359360208301359350604090920135919050565b6000825161117181846020870161121c565b9190910192915050565b600060208252825180602084015261119a81604085016020870161121c565b601f01601f19169190910160400192915050565b600082198211156111c1576111c1611248565b500190565b6000826111e157634e487b7160e01b81526012600452602481fd5b500490565b600081600019048311821515161561120057611200611248565b500290565b60008282101561121757611217611248565b500390565b60005b8381101561123757818101518382015260200161121f565b838111156105925750506000910152565b634e487b7160e01b600052601160045260246000fd5b6001600160a01b038116811461035257600080fdfea2646970667358221220039ed97e7280577ab403d3f1cad833090df7da27722167e94f9e2d3eef3a5dac64736f6c63430008030033",
  "linkReferences": {},
  "deployedLinkReferences": {}
}