{
  "_format": "hh-sol-artifact-1",
  "contractName": "Lender",
  "sourceName": "contracts/Lender.sol",
  "abi": [
    {
      "inputs": [
        {
          "internalType": "address",
          "name": "_vader",
          "type": "address"
        }
      ],
      "stateMutability": "nonpayable",
      "type": "constructor"
    },
    {
      "anonymous": false,
      "inputs": [
        {
          "indexed": true,
          "internalType": "address",
          "name": "member",
          "type": "address"
        },
        {
          "indexed": true,
          "internalType": "address",
          "name": "collateralAsset",
          "type": "address"
        },
        {
          "indexed": false,
          "internalType": "uint256",
          "name": "collateralLocked",
          "type": "uint256"
        },
        {
          "indexed": true,
          "internalType": "address",
          "name": "debtAsset",
          "type": "address"
        },
        {
          "indexed": false,
          "internalType": "uint256",
          "name": "debtIssued",
          "type": "uint256"
        }
      ],
      "name": "AddCollateral",
      "type": "event"
    },
    {
      "anonymous": false,
      "inputs": [
        {
          "indexed": true,
          "internalType": "address",
          "name": "member",
          "type": "address"
        },
        {
          "indexed": true,
          "internalType": "address",
          "name": "collateralAsset",
          "type": "address"
        },
        {
          "indexed": false,
          "internalType": "uint256",
          "name": "collateralUnlocked",
          "type": "uint256"
        },
        {
          "indexed": true,
          "internalType": "address",
          "name": "debtAsset",
          "type": "address"
        },
        {
          "indexed": false,
          "internalType": "uint256",
          "name": "debtReturned",
          "type": "uint256"
        }
      ],
      "name": "RemoveCollateral",
      "type": "event"
    },
    {
      "inputs": [],
      "name": "VADER",
      "outputs": [
        {
          "internalType": "address",
          "name": "",
          "type": "address"
        }
      ],
      "stateMutability": "view",
      "type": "function"
    },
    {
      "inputs": [
        {
          "internalType": "uint256",
          "name": "amount",
          "type": "uint256"
        },
        {
          "internalType": "address",
          "name": "collateralAsset",
          "type": "address"
        },
        {
          "internalType": "address",
          "name": "debtAsset",
          "type": "address"
        }
      ],
      "name": "borrow",
      "outputs": [
        {
          "internalType": "uint256",
          "name": "",
          "type": "uint256"
        }
      ],
      "stateMutability": "nonpayable",
      "type": "function"
    },
    {
      "inputs": [
        {
          "internalType": "address",
          "name": "member",
          "type": "address"
        },
        {
          "internalType": "uint256",
          "name": "amount",
          "type": "uint256"
        },
        {
          "internalType": "address",
          "name": "collateralAsset",
          "type": "address"
        },
        {
          "internalType": "address",
          "name": "debtAsset",
          "type": "address"
        }
      ],
      "name": "borrowForMember",
      "outputs": [
        {
          "internalType": "uint256",
          "name": "",
          "type": "uint256"
        }
      ],
      "stateMutability": "nonpayable",
      "type": "function"
    },
    {
      "inputs": [],
      "name": "checkLiquidate",
      "outputs": [],
      "stateMutability": "nonpayable",
      "type": "function"
    },
    {
      "inputs": [],
      "name": "emitting",
      "outputs": [
        {
          "internalType": "bool",
          "name": "",
          "type": "bool"
        }
      ],
      "stateMutability": "view",
      "type": "function"
    },
    {
      "inputs": [
        {
          "internalType": "address",
          "name": "member",
          "type": "address"
        },
        {
          "internalType": "address",
          "name": "collateralAsset",
          "type": "address"
        },
        {
          "internalType": "address",
          "name": "debtAsset",
          "type": "address"
        }
      ],
      "name": "getMemberCollateral",
      "outputs": [
        {
          "internalType": "uint256",
          "name": "",
          "type": "uint256"
        }
      ],
      "stateMutability": "view",
      "type": "function"
    },
    {
      "inputs": [
        {
          "internalType": "address",
          "name": "member",
          "type": "address"
        },
        {
          "internalType": "address",
          "name": "collateralAsset",
          "type": "address"
        },
        {
          "internalType": "address",
          "name": "debtAsset",
          "type": "address"
        }
      ],
      "name": "getMemberDebt",
      "outputs": [
        {
          "internalType": "uint256",
          "name": "",
          "type": "uint256"
        }
      ],
      "stateMutability": "view",
      "type": "function"
    },
    {
      "inputs": [
        {
          "internalType": "address",
          "name": "collateralAsset",
          "type": "address"
        },
        {
          "internalType": "address",
          "name": "debtAsset",
          "type": "address"
        }
      ],
      "name": "getNextEraTime",
      "outputs": [
        {
          "internalType": "uint256",
          "name": "",
          "type": "uint256"
        }
      ],
      "stateMutability": "view",
      "type": "function"
    },
    {
      "inputs": [
        {
          "internalType": "address",
          "name": "collateralAsset",
          "type": "address"
        },
        {
          "internalType": "address",
          "name": "debtAsset",
          "type": "address"
        }
      ],
      "name": "getSystemCollateral",
      "outputs": [
        {
          "internalType": "uint256",
          "name": "",
          "type": "uint256"
        }
      ],
      "stateMutability": "view",
      "type": "function"
    },
    {
      "inputs": [
        {
          "internalType": "address",
          "name": "collateralAsset",
          "type": "address"
        },
        {
          "internalType": "address",
          "name": "debtAsset",
          "type": "address"
        }
      ],
      "name": "getSystemDebt",
      "outputs": [
        {
          "internalType": "uint256",
          "name": "",
          "type": "uint256"
        }
      ],
      "stateMutability": "view",
      "type": "function"
    },
    {
      "inputs": [
        {
          "internalType": "address",
          "name": "collateralAsset",
          "type": "address"
        },
        {
          "internalType": "address",
          "name": "debtAsset",
          "type": "address"
        }
      ],
      "name": "getSystemInterestPaid",
      "outputs": [
        {
          "internalType": "uint256",
          "name": "",
          "type": "uint256"
        }
      ],
      "stateMutability": "view",
      "type": "function"
    },
    {
      "inputs": [
        {
          "internalType": "address",
          "name": "token",
          "type": "address"
        }
      ],
      "name": "isBase",
      "outputs": [
        {
          "internalType": "bool",
          "name": "base",
          "type": "bool"
        }
      ],
      "stateMutability": "view",
      "type": "function"
    },
    {
      "inputs": [
        {
          "internalType": "address",
          "name": "token",
          "type": "address"
        }
      ],
      "name": "isPool",
      "outputs": [
        {
          "internalType": "bool",
          "name": "",
          "type": "bool"
        }
      ],
      "stateMutability": "view",
      "type": "function"
    },
    {
      "inputs": [
        {
          "internalType": "uint256",
          "name": "amount",
          "type": "uint256"
        },
        {
          "internalType": "address",
          "name": "collateralAsset",
          "type": "address"
        },
        {
          "internalType": "address",
          "name": "debtAsset",
          "type": "address"
        }
      ],
      "name": "repay",
      "outputs": [
        {
          "internalType": "uint256",
          "name": "",
          "type": "uint256"
        }
      ],
      "stateMutability": "nonpayable",
      "type": "function"
    },
    {
      "inputs": [
        {
          "internalType": "address",
          "name": "member",
          "type": "address"
        },
        {
          "internalType": "uint256",
          "name": "basisPoints",
          "type": "uint256"
        },
        {
          "internalType": "address",
          "name": "collateralAsset",
          "type": "address"
        },
        {
          "internalType": "address",
          "name": "debtAsset",
          "type": "address"
        }
      ],
      "name": "repayForMember",
      "outputs": [
        {
          "internalType": "uint256",
          "name": "",
          "type": "uint256"
        }
      ],
      "stateMutability": "nonpayable",
      "type": "function"
    }
  ],
  "bytecode": "0x60a06040523480156200001157600080fd5b50604051620027ce380380620027ce83398101604081905262000034916200004a565b60601b6001600160601b0319166080526200007a565b6000602082840312156200005c578081fd5b81516001600160a01b038116811462000073578182fd5b9392505050565b60805160601c6126db620000f36000396000818160ff015281816103220152818161055f01528181610638015281816106e901528181610b0e01528181610c5b01528181610d3401528181611103015281816113cf0152818161149a01528181611565015281816116830152611b4301526126db6000f3fe608060405234801561001057600080fd5b50600436106100f55760003560e01c806382eb723311610097578063e0f52db311610066578063e0f52db314610252578063e672f6ad1461028b578063e9b6e448146102c4578063fde3bbe9146102d7576100f5565b806382eb7233146101b2578063c883b2e5146101eb578063cbc17db3146101fe578063d51641841461023f576100f5565b806337f3d2d4116100d357806337f3d2d41461017757806358b272161461018a5780635b16ebb71461018c5780636e899aa31461019f576100f5565b806301681315146100fa5780630781f4d21461013e5780631ab73ef514610156575b600080fd5b6101217f000000000000000000000000000000000000000000000000000000000000000081565b6040516001600160a01b0390911681526020015b60405180910390f35b61014661031e565b6040519015158152602001610135565b6101696101643660046124ac565b6103b6565b604051908152602001610135565b61016961018536600461242a565b6109cf565b005b61014661019a3660046123f2565b6109fc565b6101466101ad3660046123f2565b610b0a565b6101696101c036600461242a565b6001600160a01b03918216600090815260026020908152604080832093909416825291909152205490565b6101696101f9366004612536565b610b6a565b61016961020c366004612462565b6001600160a01b039283166000908152602081815260408083209486168352938152838220929094168152925290205490565b61016961024d366004612536565b610b82565b61016961026036600461242a565b6001600160a01b03918216600090815260036020908152604080832093909416825291909152205490565b61016961029936600461242a565b6001600160a01b03918216600090815260016020908152604080832093909416825291909152205490565b6101696102d23660046124ac565b610b90565b6101696102e5366004612462565b6001600160a01b038084166000908152602081815260408083208685168452825280832093851683526001909301905220549392505050565b60007f00000000000000000000000000000000000000000000000000000000000000006001600160a01b0316630781f4d26040518163ffffffff1660e01b815260040160206040518083038186803b15801561037957600080fd5b505afa15801561038d573d6000803e3d6000fd5b505050506040513d601f19601f820116820180604052508101906103b191906124fe565b905090565b60006103c06110ff565b60405163cf975e7b60e01b81526001600160a01b0385811660048301528481166024830152919091169063cf975e7b90604401600060405180830381600087803b15801561040d57600080fd5b505af1158015610421573d6000803e3d6000fd5b505050506000610432868587611202565b905060008061043f6110ff565b604051635c22141f60e01b81526001600160a01b038a8116600483015260248201869052888116604483015287811660648301529190911690635c22141f906084016040805180830381600087803b15801561049a57600080fd5b505af11580156104ae573d6000803e3d6000fd5b505050506040513d601f19601f820116820180604052508101906104d2919061255c565b6001600160a01b038089166000908152600160209081526040808320938b1683529290529081208054939550919350859261050e90849061261c565b90915550506001600160a01b0380871660009081526002602090815260408083209389168352929052908120805484929061054a90849061261c565b9091555061055d90508884888589611338565b7f00000000000000000000000000000000000000000000000000000000000000006001600160a01b0316866001600160a01b0316148061061b57506105a06113cb565b604051636c66769560e11b81526001600160a01b038781166004830152919091169063d8cced2a9060240160206040518083038186803b1580156105e357600080fd5b505afa1580156105f7573d6000803e3d6000fd5b505050506040513d601f19601f8201168201806040525081019061061b91906124fe565b1561078357610628611496565b6001600160a01b031663a76a50d47f000000000000000000000000000000000000000000000000000000000000000061065f6113cb565b846040518463ffffffff1660e01b815260040161067e939291906125c5565b602060405180830381600087803b15801561069857600080fd5b505af11580156106ac573d6000803e3d6000fd5b505050506040513d601f19601f820116820180604052508101906106d0919061251e565b506106d96113cb565b6001600160a01b031663efc34aab7f0000000000000000000000000000000000000000000000000000000000000000878b60006040518563ffffffff1660e01b815260040161072b949392919061259b565b602060405180830381600087803b15801561074557600080fd5b505af1158015610759573d6000803e3d6000fd5b505050506040513d601f19601f8201168201806040525081019061077d919061251e565b5061095a565b61078b611561565b6001600160a01b0316866001600160a01b0316148061082857506107ad6113cb565b60405163643fd21560e11b81526001600160a01b038781166004830152919091169063c87fa42a9060240160206040518083038186803b1580156107f057600080fd5b505afa158015610804573d6000803e3d6000fd5b505050506040513d601f19601f8201168201806040525081019061082891906124fe565b1561095a57610835611496565b6001600160a01b031663a76a50d461084b611561565b6108536113cb565b846040518463ffffffff1660e01b8152600401610872939291906125c5565b602060405180830381600087803b15801561088c57600080fd5b505af11580156108a0573d6000803e3d6000fd5b505050506040513d601f19601f820116820180604052508101906108c4919061251e565b506108cd6113cb565b6001600160a01b031663efc34aab6108e3611561565b878b60006040518563ffffffff1660e01b8152600401610906949392919061259b565b602060405180830381600087803b15801561092057600080fd5b505af1158015610934573d6000803e3d6000fd5b505050506040513d601f19601f82011682018060405250810190610958919061251e565b505b846001600160a01b0316866001600160a01b0316896001600160a01b03167fae998ad28d77f73e6eb1de185a4d9c3656e19b47125aa0e732ceabecefdd30618a866040516109b2929190918252602082015260400190565b60405180910390a46109c4868661162c565b509695505050505050565b6001600160a01b038083166000908152600460209081526040808320938516835292905220545b92915050565b6000610a066113cb565b604051636c66769560e11b81526001600160a01b038481166004830152919091169063d8cced2a9060240160206040518083038186803b158015610a4957600080fd5b505afa158015610a5d573d6000803e3d6000fd5b505050506040513d601f19601f82011682018060405250810190610a8191906124fe565b806109f65750610a8f6113cb565b60405163643fd21560e11b81526001600160a01b038481166004830152919091169063c87fa42a9060240160206040518083038186803b158015610ad257600080fd5b505afa158015610ae6573d6000803e3d6000fd5b505050506040513d601f19601f820116820180604052508101906109f691906124fe565b60007f00000000000000000000000000000000000000000000000000000000000000006001600160a01b0316826001600160a01b031614806109f65750610b4f611561565b6001600160a01b0316826001600160a01b0316149050919050565b6000610b7833858585610b90565b90505b9392505050565b6000610b78338585856103b6565b600080610b9b6110ff565b6001600160a01b0387811660009081526020818152604080832089851684528252808320888516845290915290205491169063714270ab9087906040516001600160e01b031960e085901b1681526004810192909252602482015260440160206040518083038186803b158015610c1157600080fd5b505afa158015610c25573d6000803e3d6000fd5b505050506040513d601f19601f82011682018060405250810190610c49919061251e565b90506000610c578483611b3f565b90507f00000000000000000000000000000000000000000000000000000000000000006001600160a01b0316856001600160a01b03161480610d175750610c9c6113cb565b604051636c66769560e11b81526001600160a01b038681166004830152919091169063d8cced2a9060240160206040518083038186803b158015610cdf57600080fd5b505afa158015610cf3573d6000803e3d6000fd5b505050506040513d601f19601f82011682018060405250810190610d1791906124fe565b15610dd557610d246113cb565b6001600160a01b031663efc34aab7f000000000000000000000000000000000000000000000000000000000000000086610d5c611496565b60016040518563ffffffff1660e01b8152600401610d7d949392919061259b565b602060405180830381600087803b158015610d9757600080fd5b505af1158015610dab573d6000803e3d6000fd5b505050506040513d601f19601f82011682018060405250810190610dcf919061251e565b50610f1b565b610ddd611561565b6001600160a01b0316856001600160a01b03161480610e7a5750610dff6113cb565b60405163643fd21560e11b81526001600160a01b038681166004830152919091169063c87fa42a9060240160206040518083038186803b158015610e4257600080fd5b505afa158015610e56573d6000803e3d6000fd5b505050506040513d601f19601f82011682018060405250810190610e7a91906124fe565b15610f1b57610e876113cb565b6001600160a01b031663efc34aab610e9d611561565b86610ea6611496565b60016040518563ffffffff1660e01b8152600401610ec7949392919061259b565b602060405180830381600087803b158015610ee157600080fd5b505af1158015610ef5573d6000803e3d6000fd5b505050506040513d601f19601f82011682018060405250810190610f19919061251e565b505b600080610f266110ff565b604051633552687b60e21b81526001600160a01b038b811660048301526024820186905289811660448301528881166064830152919091169063d549a1ec90608401604080518083038186803b158015610f7f57600080fd5b505afa158015610f93573d6000803e3d6000fd5b505050506040513d601f19601f82011682018060405250810190610fb7919061255c565b6001600160a01b03808a166000908152600160209081526040808320938c16835292905290812080549395509193508492610ff3908490612634565b90915550506001600160a01b038088166000908152600260209081526040808320938a168352929052908120805485929061102f908490612634565b90915550506001600160a01b038088166000908152600360209081526040808320938a168352929052908120805483929061106b908490612634565b9091555061107e9050898389868a611e0c565b856001600160a01b0316876001600160a01b03168a6001600160a01b03167f80cf2752eb276900a648b467a8fe8180e3192a2370982e997e928b3dc8b99ba185876040516110d6929190918252602082015260400190565b60405180910390a46110e9898884611e93565b6110f3878761162c565b50979650505050505050565b60007f00000000000000000000000000000000000000000000000000000000000000006001600160a01b03166398fabd3a6040518163ffffffff1660e01b815260040160206040518083038186803b15801561115a57600080fd5b505afa15801561116e573d6000803e3d6000fd5b505050506040513d601f19601f82011682018060405250810190611192919061240e565b6001600160a01b0316637b0e5c456040518163ffffffff1660e01b815260040160206040518083038186803b1580156111ca57600080fd5b505afa1580156111de573d6000803e3d6000fd5b505050506040513d601f19601f820116820180604052508101906103b1919061240e565b600061120d83610b0a565b80611298575061121b6113cb565b604051632f011bf560e11b81526001600160a01b0385811660048301529190911690635e0237ea90602401602060405180830381600087803b15801561126057600080fd5b505af1158015611274573d6000803e3d6000fd5b505050506040513d601f19601f8201168201806040525081019061129891906124fe565b156112ae576112a78383612044565b9050610b7b565b6112b7836109fc565b15610b7b576112c46113cb565b60405163783ba87960e01b8152600481018490526001600160a01b0385811660248301528681166044830152919091169063783ba87990606401600060405180830381600087803b15801561131857600080fd5b505af115801561132c573d6000803e3d6000fd5b50939695505050505050565b6001600160a01b03808616600090815260208181526040808320878516845282528083209385168352929052908120805484929061137790849061261c565b90915550506001600160a01b038086166000908152602081815260408083208785168452825280832093851683526001909301905290812080548692906113bf90849061261c565b90915550505050505050565b60007f00000000000000000000000000000000000000000000000000000000000000006001600160a01b03166398fabd3a6040518163ffffffff1660e01b815260040160206040518083038186803b15801561142657600080fd5b505afa15801561143a573d6000803e3d6000fd5b505050506040513d601f19601f8201168201806040525081019061145e919061240e565b6001600160a01b031663ebccb5b26040518163ffffffff1660e01b815260040160206040518083038186803b1580156111ca57600080fd5b60007f00000000000000000000000000000000000000000000000000000000000000006001600160a01b03166398fabd3a6040518163ffffffff1660e01b815260040160206040518083038186803b1580156114f157600080fd5b505afa158015611505573d6000803e3d6000fd5b505050506040513d601f19601f82011682018060405250810190611529919061240e565b6001600160a01b0316639d2cc4366040518163ffffffff1660e01b815260040160206040518083038186803b1580156111ca57600080fd5b60007f00000000000000000000000000000000000000000000000000000000000000006001600160a01b03166398fabd3a6040518163ffffffff1660e01b815260040160206040518083038186803b1580156115bc57600080fd5b505afa1580156115d0573d6000803e3d6000fd5b505050506040513d601f19601f820116820180604052508101906115f4919061240e565b6001600160a01b031663e2c3b0466040518163ffffffff1660e01b815260040160206040518083038186803b1580156111ca57600080fd5b61163682826109cf565b4210158015611648575061164861031e565b15611b3b576001600160a01b03808316600090815260046020908152604080832093851683529290529081205461167f9042612634565b90507f00000000000000000000000000000000000000000000000000000000000000006001600160a01b0316636b92a3b66040518163ffffffff1660e01b815260040160206040518083038186803b1580156116da57600080fd5b505afa1580156116ee573d6000803e3d6000fd5b505050506040513d601f19601f82011682018060405250810190611712919061251e565b61171c904261261c565b6001600160a01b03808516600090815260046020908152604080832093871683529290529081209190915561174f6110ff565b6001600160a01b031663945821af8585856040518463ffffffff1660e01b815260040161177e939291906125c5565b602060405180830381600087803b15801561179857600080fd5b505af11580156117ac573d6000803e3d6000fd5b505050506040513d601f19601f820116820180604052508101906117d0919061251e565b6001600160a01b03808616600090815260036020908152604080832093881683529290529081208054929350839290919061180c90849061261c565b9091555061181d905081858561217c565b61182684610b0a565b1561193557836001600160a01b031663a9059cbb6118426113cb565b6040516001600160e01b031960e084901b1681526001600160a01b03909116600482015260248101849052604401602060405180830381600087803b15801561188a57600080fd5b505af115801561189e573d6000803e3d6000fd5b505050506040513d601f19601f820116820180604052508101906118c291906124fe565b506118cb6113cb565b604051633041949b60e01b81526001600160a01b03868116600483015285811660248301529190911690633041949b90604401600060405180830381600087803b15801561191857600080fd5b505af115801561192c573d6000803e3d6000fd5b50505050611b38565b61193d6113cb565b604051632f011bf560e11b81526001600160a01b0386811660048301529190911690635e0237ea90602401602060405180830381600087803b15801561198257600080fd5b505af1158015611996573d6000803e3d6000fd5b505050506040513d601f19601f820116820180604052508101906119ba91906124fe565b15611b3857836001600160a01b031663a9059cbb6119d66113cb565b6040516001600160e01b031960e084901b1681526001600160a01b03909116600482015260248101849052604401602060405180830381600087803b158015611a1e57600080fd5b505af1158015611a32573d6000803e3d6000fd5b505050506040513d601f19601f82011682018060405250810190611a5691906124fe565b50611a5f6113cb565b6001600160a01b031663469f5c1e856001600160a01b03166382bfefc86040518163ffffffff1660e01b815260040160206040518083038186803b158015611aa657600080fd5b505afa158015611aba573d6000803e3d6000fd5b505050506040513d601f19601f82011682018060405250810190611ade919061240e565b6040516001600160e01b031960e084901b1681526001600160a01b039091166004820152602401600060405180830381600087803b158015611b1f57600080fd5b505af1158015611b33573d6000803e3d6000fd5b505050505b50505b5050565b60007f00000000000000000000000000000000000000000000000000000000000000006001600160a01b0316836001600160a01b03161480611b995750611b84611561565b6001600160a01b0316836001600160a01b0316145b80611c245750611ba76113cb565b604051632f011bf560e11b81526001600160a01b0385811660048301529190911690635e0237ea90602401602060405180830381600087803b158015611bec57600080fd5b505af1158015611c00573d6000803e3d6000fd5b505050506040513d601f19601f82011682018060405250810190611c2491906124fe565b15611cba5750806001600160a01b0383166323b872dd33611c436113cb565b856040518463ffffffff1660e01b8152600401611c62939291906125c5565b602060405180830381600087803b158015611c7c57600080fd5b505af1158015611c90573d6000803e3d6000fd5b505050506040513d601f19601f82011682018060405250810190611cb491906124fe565b506109f6565b6000836001600160a01b03166370a08231611cd36113cb565b6040516001600160e01b031960e084901b1681526001600160a01b03909116600482015260240160206040518083038186803b158015611d1257600080fd5b505afa158015611d26573d6000803e3d6000fd5b505050506040513d601f19601f82011682018060405250810190611d4a919061251e565b9050611d6a33611d586113cb565b6001600160a01b0387169190866121bd565b80846001600160a01b03166370a08231611d826113cb565b6040516001600160e01b031960e084901b1681526001600160a01b0390911660048201526024015b60206040518083038186803b158015611dc257600080fd5b505afa158015611dd6573d6000803e3d6000fd5b505050506040513d601f19601f82011682018060405250810190611dfa919061251e565b611e049190612634565b949350505050565b6001600160a01b038086166000908152602081815260408083208785168452825280832093851683529290529081208054849290611e4b908490612634565b90915550506001600160a01b038086166000908152602081815260408083208785168452825280832093851683526001909301905290812080548692906113bf908490612634565b611e9c82610b0a565b80611f275750611eaa6113cb565b604051632f011bf560e11b81526001600160a01b0384811660048301529190911690635e0237ea90602401602060405180830381600087803b158015611eef57600080fd5b505af1158015611f03573d6000803e3d6000fd5b505050506040513d601f19601f82011682018060405250810190611f2791906124fe565b15611fbc5760405163a9059cbb60e01b81526001600160a01b0384811660048301526024820183905283169063a9059cbb90604401602060405180830381600087803b158015611f7657600080fd5b505af1158015611f8a573d6000803e3d6000fd5b505050506040513d601f19601f82011682018060405250810190611fae91906124fe565b611fb757600080fd5b61203f565b611fc5826109fc565b1561203f57611fd26113cb565b60405163798e23d560e01b8152600481018390526001600160a01b0384811660248301528581166044830152919091169063798e23d590606401600060405180830381600087803b15801561202657600080fd5b505af115801561203a573d6000803e3d6000fd5b505050505b505050565b6040516370a0823160e01b815230600482015260009081906001600160a01b038516906370a082319060240160206040518083038186803b15801561208857600080fd5b505afa15801561209c573d6000803e3d6000fd5b505050506040513d601f19601f820116820180604052508101906120c0919061251e565b6040516323b872dd60e01b81529091506001600160a01b038516906323b872dd906120f3903390309088906004016125c5565b602060405180830381600087803b15801561210d57600080fd5b505af1158015612121573d6000803e3d6000fd5b505050506040513d601f19601f8201168201806040525081019061214591906124fe565b61214e57600080fd5b6040516370a0823160e01b815230600482015281906001600160a01b038616906370a0823190602401611daa565b6001600160a01b038083166000908152600160209081526040808320938516835292905290812080548592906121b3908490612634565b9091555050505050565b611b38846323b872dd60e01b8585856040516024016121de939291906125c5565b60408051601f198184030181529190526020810180516001600160e01b03166001600160e01b0319909316929092179091526000612265826040518060400160405280602081526020017f5361666545524332303a206c6f772d6c6576656c2063616c6c206661696c6564815250856001600160a01b03166122e79092919063ffffffff16565b80519091501561203f578080602001905181019061228391906124fe565b61203f5760405162461bcd60e51b815260206004820152602a60248201527f5361666545524332303a204552433230206f7065726174696f6e20646964206e6044820152691bdd081cdd58d8d9595960b21b60648201526084015b60405180910390fd5b6060610b78848460008585843b6123405760405162461bcd60e51b815260206004820152601d60248201527f416464726573733a2063616c6c20746f206e6f6e2d636f6e747261637400000060448201526064016122de565b600080866001600160a01b0316858760405161235c919061257f565b60006040518083038185875af1925050503d8060008114612399576040519150601f19603f3d011682016040523d82523d6000602084013e61239e565b606091505b50915091506123ae8282866123b9565b979650505050505050565b606083156123c8575081610b7b565b8251156123d85782518084602001fd5b8160405162461bcd60e51b81526004016122de91906125e9565b600060208284031215612403578081fd5b8135610b7b8161268d565b60006020828403121561241f578081fd5b8151610b7b8161268d565b6000806040838503121561243c578081fd5b82356124478161268d565b915060208301356124578161268d565b809150509250929050565b600080600060608486031215612476578081fd5b83356124818161268d565b925060208401356124918161268d565b915060408401356124a18161268d565b809150509250925092565b600080600080608085870312156124c1578081fd5b84356124cc8161268d565b93506020850135925060408501356124e38161268d565b915060608501356124f38161268d565b939692955090935050565b60006020828403121561250f578081fd5b81518015158114610b7b578182fd5b60006020828403121561252f578081fd5b5051919050565b60008060006060848603121561254a578283fd5b8335925060208401356124918161268d565b6000806040838503121561256e578182fd5b505080516020909101519092909150565b6000825161259181846020870161264b565b9190910192915050565b6001600160a01b039485168152928416602084015292166040820152901515606082015260800190565b6001600160a01b039384168152919092166020820152604081019190915260600190565b600060208252825180602084015261260881604085016020870161264b565b601f01601f19169190910160400192915050565b6000821982111561262f5761262f612677565b500190565b60008282101561264657612646612677565b500390565b60005b8381101561266657818101518382015260200161264e565b83811115611b385750506000910152565b634e487b7160e01b600052601160045260246000fd5b6001600160a01b03811681146126a257600080fd5b5056fea2646970667358221220d20de923848bae3a9f18f8fe59bde168021c121f7a2cb2aca48bdce1175e5b2864736f6c63430008030033",
  "linkReferences": {},
  "deployedLinkReferences": {}
}