{
  "_format": "hh-sol-artifact-1",
  "contractName": "Router",
  "sourceName": "contracts/Router.sol",
  "abi": [
    {
      "inputs": [
        {
          "internalType": "address",
          "name": "_vader",
          "type": "address"
        }
      ],
      "stateMutability": "nonpayable",
      "type": "constructor"
    },
    {
      "anonymous": false,
      "inputs": [
        {
          "indexed": true,
          "internalType": "address",
          "name": "curator",
          "type": "address"
        },
        {
          "indexed": true,
          "internalType": "address",
          "name": "token",
          "type": "address"
        }
      ],
      "name": "Curated",
      "type": "event"
    },
    {
      "anonymous": false,
      "inputs": [
        {
          "indexed": true,
          "internalType": "address",
          "name": "base",
          "type": "address"
        },
        {
          "indexed": true,
          "internalType": "address",
          "name": "token",
          "type": "address"
        },
        {
          "indexed": false,
          "internalType": "uint256",
          "name": "amount",
          "type": "uint256"
        }
      ],
      "name": "PoolReward",
      "type": "event"
    },
    {
      "inputs": [],
      "name": "VADER",
      "outputs": [
        {
          "internalType": "address",
          "name": "",
          "type": "address"
        }
      ],
      "stateMutability": "view",
      "type": "function"
    },
    {
      "inputs": [],
      "name": "accumulatedPrice",
      "outputs": [
        {
          "internalType": "uint256",
          "name": "",
          "type": "uint256"
        }
      ],
      "stateMutability": "view",
      "type": "function"
    },
    {
      "inputs": [
        {
          "internalType": "address",
          "name": "base",
          "type": "address"
        },
        {
          "internalType": "uint256",
          "name": "inputBase",
          "type": "uint256"
        },
        {
          "internalType": "address",
          "name": "token",
          "type": "address"
        },
        {
          "internalType": "uint256",
          "name": "inputToken",
          "type": "uint256"
        }
      ],
      "name": "addLiquidity",
      "outputs": [
        {
          "internalType": "uint256",
          "name": "",
          "type": "uint256"
        }
      ],
      "stateMutability": "nonpayable",
      "type": "function"
    },
    {
      "inputs": [],
      "name": "anchorLimit",
      "outputs": [
        {
          "internalType": "uint256",
          "name": "",
          "type": "uint256"
        }
      ],
      "stateMutability": "view",
      "type": "function"
    },
    {
      "inputs": [
        {
          "internalType": "uint256",
          "name": "",
          "type": "uint256"
        }
      ],
      "name": "arrayAnchors",
      "outputs": [
        {
          "internalType": "address",
          "name": "",
          "type": "address"
        }
      ],
      "stateMutability": "view",
      "type": "function"
    },
    {
      "inputs": [
        {
          "internalType": "uint256",
          "name": "",
          "type": "uint256"
        }
      ],
      "name": "arrayPrices",
      "outputs": [
        {
          "internalType": "uint256",
          "name": "",
          "type": "uint256"
        }
      ],
      "stateMutability": "view",
      "type": "function"
    },
    {
      "inputs": [],
      "name": "cachedIntervalAccumulatedPrice",
      "outputs": [
        {
          "internalType": "uint256",
          "name": "",
          "type": "uint256"
        }
      ],
      "stateMutability": "view",
      "type": "function"
    },
    {
      "inputs": [],
      "name": "cachedIntervalTime",
      "outputs": [
        {
          "internalType": "uint256",
          "name": "",
          "type": "uint256"
        }
      ],
      "stateMutability": "view",
      "type": "function"
    },
    {
      "inputs": [
        {
          "internalType": "address",
          "name": "token",
          "type": "address"
        }
      ],
      "name": "curatePool",
      "outputs": [],
      "stateMutability": "nonpayable",
      "type": "function"
    },
    {
      "inputs": [],
      "name": "curatedPoolCount",
      "outputs": [
        {
          "internalType": "uint256",
          "name": "",
          "type": "uint256"
        }
      ],
      "stateMutability": "view",
      "type": "function"
    },
    {
      "inputs": [],
      "name": "curatedPoolLimit",
      "outputs": [
        {
          "internalType": "uint256",
          "name": "",
          "type": "uint256"
        }
      ],
      "stateMutability": "view",
      "type": "function"
    },
    {
      "inputs": [],
      "name": "emitting",
      "outputs": [
        {
          "internalType": "bool",
          "name": "",
          "type": "bool"
        }
      ],
      "stateMutability": "view",
      "type": "function"
    },
    {
      "inputs": [],
      "name": "getAnchorPrice",
      "outputs": [
        {
          "internalType": "uint256",
          "name": "anchorPrice",
          "type": "uint256"
        }
      ],
      "stateMutability": "view",
      "type": "function"
    },
    {
      "inputs": [
        {
          "internalType": "address",
          "name": "member",
          "type": "address"
        },
        {
          "internalType": "address",
          "name": "base",
          "type": "address"
        },
        {
          "internalType": "address",
          "name": "token",
          "type": "address"
        },
        {
          "internalType": "uint256",
          "name": "basisPoints",
          "type": "uint256"
        }
      ],
      "name": "getILProtection",
      "outputs": [
        {
          "internalType": "uint256",
          "name": "protection",
          "type": "uint256"
        }
      ],
      "stateMutability": "view",
      "type": "function"
    },
    {
      "inputs": [
        {
          "internalType": "address",
          "name": "member",
          "type": "address"
        },
        {
          "internalType": "address",
          "name": "token",
          "type": "address"
        }
      ],
      "name": "getMemberBaseDeposit",
      "outputs": [
        {
          "internalType": "uint256",
          "name": "",
          "type": "uint256"
        }
      ],
      "stateMutability": "view",
      "type": "function"
    },
    {
      "inputs": [
        {
          "internalType": "address",
          "name": "member",
          "type": "address"
        },
        {
          "internalType": "address",
          "name": "token",
          "type": "address"
        }
      ],
      "name": "getMemberLastDeposit",
      "outputs": [
        {
          "internalType": "uint256",
          "name": "",
          "type": "uint256"
        }
      ],
      "stateMutability": "view",
      "type": "function"
    },
    {
      "inputs": [
        {
          "internalType": "address",
          "name": "member",
          "type": "address"
        },
        {
          "internalType": "address",
          "name": "token",
          "type": "address"
        }
      ],
      "name": "getMemberTokenDeposit",
      "outputs": [
        {
          "internalType": "uint256",
          "name": "",
          "type": "uint256"
        }
      ],
      "stateMutability": "view",
      "type": "function"
    },
    {
      "inputs": [],
      "name": "getTWAPPrice",
      "outputs": [
        {
          "internalType": "uint256",
          "name": "",
          "type": "uint256"
        }
      ],
      "stateMutability": "view",
      "type": "function"
    },
    {
      "inputs": [
        {
          "internalType": "uint256",
          "name": "vaderAmount",
          "type": "uint256"
        }
      ],
      "name": "getUSDVAmount",
      "outputs": [
        {
          "internalType": "uint256",
          "name": "USDVAmount",
          "type": "uint256"
        }
      ],
      "stateMutability": "view",
      "type": "function"
    },
    {
      "inputs": [
        {
          "internalType": "uint256",
          "name": "USDVAmount",
          "type": "uint256"
        }
      ],
      "name": "getVADERAmount",
      "outputs": [
        {
          "internalType": "uint256",
          "name": "vaderAmount",
          "type": "uint256"
        }
      ],
      "stateMutability": "view",
      "type": "function"
    },
    {
      "inputs": [],
      "name": "insidePriceLimit",
      "outputs": [
        {
          "internalType": "uint256",
          "name": "",
          "type": "uint256"
        }
      ],
      "stateMutability": "view",
      "type": "function"
    },
    {
      "inputs": [],
      "name": "intervalTWAP",
      "outputs": [
        {
          "internalType": "uint256",
          "name": "",
          "type": "uint256"
        }
      ],
      "stateMutability": "view",
      "type": "function"
    },
    {
      "inputs": [
        {
          "internalType": "address",
          "name": "token",
          "type": "address"
        }
      ],
      "name": "isBase",
      "outputs": [
        {
          "internalType": "bool",
          "name": "base",
          "type": "bool"
        }
      ],
      "stateMutability": "view",
      "type": "function"
    },
    {
      "inputs": [
        {
          "internalType": "address",
          "name": "token",
          "type": "address"
        }
      ],
      "name": "isCurated",
      "outputs": [
        {
          "internalType": "bool",
          "name": "",
          "type": "bool"
        }
      ],
      "stateMutability": "view",
      "type": "function"
    },
    {
      "inputs": [
        {
          "internalType": "address",
          "name": "token",
          "type": "address"
        }
      ],
      "name": "isPool",
      "outputs": [
        {
          "internalType": "bool",
          "name": "",
          "type": "bool"
        }
      ],
      "stateMutability": "view",
      "type": "function"
    },
    {
      "inputs": [],
      "name": "lastUpdatedTime",
      "outputs": [
        {
          "internalType": "uint256",
          "name": "",
          "type": "uint256"
        }
      ],
      "stateMutability": "view",
      "type": "function"
    },
    {
      "inputs": [
        {
          "internalType": "address",
          "name": "token",
          "type": "address"
        }
      ],
      "name": "listAnchor",
      "outputs": [],
      "stateMutability": "nonpayable",
      "type": "function"
    },
    {
      "inputs": [
        {
          "internalType": "address",
          "name": "",
          "type": "address"
        }
      ],
      "name": "mapAnchorAddress_arrayAnchorsIndex1",
      "outputs": [
        {
          "internalType": "uint256",
          "name": "",
          "type": "uint256"
        }
      ],
      "stateMutability": "view",
      "type": "function"
    },
    {
      "inputs": [
        {
          "internalType": "address",
          "name": "",
          "type": "address"
        },
        {
          "internalType": "address",
          "name": "",
          "type": "address"
        }
      ],
      "name": "mapMemberToken_depositBase",
      "outputs": [
        {
          "internalType": "uint256",
          "name": "",
          "type": "uint256"
        }
      ],
      "stateMutability": "view",
      "type": "function"
    },
    {
      "inputs": [
        {
          "internalType": "address",
          "name": "",
          "type": "address"
        },
        {
          "internalType": "address",
          "name": "",
          "type": "address"
        }
      ],
      "name": "mapMemberToken_depositToken",
      "outputs": [
        {
          "internalType": "uint256",
          "name": "",
          "type": "uint256"
        }
      ],
      "stateMutability": "view",
      "type": "function"
    },
    {
      "inputs": [
        {
          "internalType": "address",
          "name": "",
          "type": "address"
        },
        {
          "internalType": "address",
          "name": "",
          "type": "address"
        }
      ],
      "name": "mapMemberToken_lastDeposited",
      "outputs": [
        {
          "internalType": "uint256",
          "name": "",
          "type": "uint256"
        }
      ],
      "stateMutability": "view",
      "type": "function"
    },
    {
      "inputs": [],
      "name": "outsidePriceLimit",
      "outputs": [
        {
          "internalType": "uint256",
          "name": "",
          "type": "uint256"
        }
      ],
      "stateMutability": "view",
      "type": "function"
    },
    {
      "inputs": [
        {
          "internalType": "address",
          "name": "base",
          "type": "address"
        },
        {
          "internalType": "address",
          "name": "token",
          "type": "address"
        },
        {
          "internalType": "uint256",
          "name": "basisPoints",
          "type": "uint256"
        }
      ],
      "name": "removeLiquidity",
      "outputs": [
        {
          "internalType": "uint256",
          "name": "units",
          "type": "uint256"
        },
        {
          "internalType": "uint256",
          "name": "amountBase",
          "type": "uint256"
        },
        {
          "internalType": "uint256",
          "name": "amountToken",
          "type": "uint256"
        }
      ],
      "stateMutability": "nonpayable",
      "type": "function"
    },
    {
      "inputs": [
        {
          "internalType": "address",
          "name": "oldToken",
          "type": "address"
        },
        {
          "internalType": "address",
          "name": "newToken",
          "type": "address"
        }
      ],
      "name": "replaceAnchor",
      "outputs": [],
      "stateMutability": "nonpayable",
      "type": "function"
    },
    {
      "inputs": [
        {
          "internalType": "address",
          "name": "oldToken",
          "type": "address"
        },
        {
          "internalType": "address",
          "name": "newToken",
          "type": "address"
        }
      ],
      "name": "replacePool",
      "outputs": [],
      "stateMutability": "nonpayable",
      "type": "function"
    },
    {
      "inputs": [],
      "name": "reserveUSDV",
      "outputs": [
        {
          "internalType": "uint256",
          "name": "",
          "type": "uint256"
        }
      ],
      "stateMutability": "view",
      "type": "function"
    },
    {
      "inputs": [],
      "name": "reserveVADER",
      "outputs": [
        {
          "internalType": "uint256",
          "name": "",
          "type": "uint256"
        }
      ],
      "stateMutability": "view",
      "type": "function"
    },
    {
      "inputs": [],
      "name": "rewardReductionFactor",
      "outputs": [
        {
          "internalType": "uint256",
          "name": "",
          "type": "uint256"
        }
      ],
      "stateMutability": "view",
      "type": "function"
    },
    {
      "inputs": [
        {
          "internalType": "uint256",
          "name": "newLimit",
          "type": "uint256"
        },
        {
          "internalType": "uint256",
          "name": "newInside",
          "type": "uint256"
        },
        {
          "internalType": "uint256",
          "name": "newOutside",
          "type": "uint256"
        }
      ],
      "name": "setAnchorParams",
      "outputs": [],
      "stateMutability": "nonpayable",
      "type": "function"
    },
    {
      "inputs": [
        {
          "internalType": "uint256",
          "name": "newFactor",
          "type": "uint256"
        },
        {
          "internalType": "uint256",
          "name": "newTime",
          "type": "uint256"
        },
        {
          "internalType": "uint256",
          "name": "newLimit",
          "type": "uint256"
        },
        {
          "internalType": "uint256",
          "name": "newInterval",
          "type": "uint256"
        }
      ],
      "name": "setParams",
      "outputs": [],
      "stateMutability": "nonpayable",
      "type": "function"
    },
    {
      "inputs": [],
      "name": "startIntervalAccumulatedPrice",
      "outputs": [
        {
          "internalType": "uint256",
          "name": "",
          "type": "uint256"
        }
      ],
      "stateMutability": "view",
      "type": "function"
    },
    {
      "inputs": [],
      "name": "startIntervalTime",
      "outputs": [
        {
          "internalType": "uint256",
          "name": "",
          "type": "uint256"
        }
      ],
      "stateMutability": "view",
      "type": "function"
    },
    {
      "inputs": [
        {
          "internalType": "uint256",
          "name": "inputAmount",
          "type": "uint256"
        },
        {
          "internalType": "address",
          "name": "inputToken",
          "type": "address"
        },
        {
          "internalType": "address",
          "name": "outputToken",
          "type": "address"
        }
      ],
      "name": "swap",
      "outputs": [
        {
          "internalType": "uint256",
          "name": "outputAmount",
          "type": "uint256"
        }
      ],
      "stateMutability": "nonpayable",
      "type": "function"
    },
    {
      "inputs": [
        {
          "internalType": "uint256",
          "name": "inputAmount",
          "type": "uint256"
        },
        {
          "internalType": "address",
          "name": "inputToken",
          "type": "address"
        },
        {
          "internalType": "address",
          "name": "outputToken",
          "type": "address"
        },
        {
          "internalType": "uint256",
          "name": "slipLimit",
          "type": "uint256"
        }
      ],
      "name": "swapWithLimit",
      "outputs": [
        {
          "internalType": "uint256",
          "name": "outputAmount",
          "type": "uint256"
        }
      ],
      "stateMutability": "nonpayable",
      "type": "function"
    },
    {
      "inputs": [
        {
          "internalType": "uint256",
          "name": "inputAmount",
          "type": "uint256"
        },
        {
          "internalType": "address",
          "name": "inputToken",
          "type": "address"
        },
        {
          "internalType": "bool",
          "name": "inSynth",
          "type": "bool"
        },
        {
          "internalType": "address",
          "name": "outputToken",
          "type": "address"
        },
        {
          "internalType": "bool",
          "name": "outSynth",
          "type": "bool"
        }
      ],
      "name": "swapWithSynths",
      "outputs": [
        {
          "internalType": "uint256",
          "name": "outputAmount",
          "type": "uint256"
        }
      ],
      "stateMutability": "nonpayable",
      "type": "function"
    },
    {
      "inputs": [
        {
          "internalType": "uint256",
          "name": "inputAmount",
          "type": "uint256"
        },
        {
          "internalType": "address",
          "name": "inputToken",
          "type": "address"
        },
        {
          "internalType": "bool",
          "name": "inSynth",
          "type": "bool"
        },
        {
          "internalType": "address",
          "name": "outputToken",
          "type": "address"
        },
        {
          "internalType": "bool",
          "name": "outSynth",
          "type": "bool"
        },
        {
          "internalType": "uint256",
          "name": "slipLimit",
          "type": "uint256"
        }
      ],
      "name": "swapWithSynthsWithLimit",
      "outputs": [
        {
          "internalType": "uint256",
          "name": "outputAmount",
          "type": "uint256"
        }
      ],
      "stateMutability": "nonpayable",
      "type": "function"
    },
    {
      "inputs": [],
      "name": "timeForFullProtection",
      "outputs": [
        {
          "internalType": "uint256",
          "name": "",
          "type": "uint256"
        }
      ],
      "stateMutability": "view",
      "type": "function"
    },
    {
      "inputs": [
        {
          "internalType": "address",
          "name": "token",
          "type": "address"
        }
      ],
      "name": "updateAnchorPrice",
      "outputs": [],
      "stateMutability": "nonpayable",
      "type": "function"
    },
    {
      "inputs": [],
      "name": "updateTWAPPrice",
      "outputs": [],
      "stateMutability": "nonpayable",
      "type": "function"
    }
  ],
  "bytecode": "0x60a06040523480156200001157600080fd5b5060405162003f4f38038062003f4f833981016040819052620000349162000079565b60601b6001600160601b031916608052600160008190558080556002556005805560c86006556101f46007556003600b5542600d819055600f819055601155620000a9565b6000602082840312156200008b578081fd5b81516001600160a01b0381168114620000a2578182fd5b9392505050565b60805160601c613e3a62000115600039600081816102c501528181610860015281816111cb01528181611fa1015281816126d70152818161296c01528181612a6f01528181612b3a01528181612c0501528181612c6001528181612d2b01526130950152613e3a6000f3fe608060405234801561001057600080fd5b50600436106102bb5760003560e01c80636e899aa311610182578063d262271d116100e9578063e6048ff8116100a2578063f9b874671161007c578063f9b8746714610661578063fcf476861461066a578063fdc59b821461067d578063ff8b83a6146106a8576102bb565b8063e6048ff814610610578063e8b8cfa014610623578063f550394e14610636576102bb565b8063d262271d146105a3578063d2b43373146105ab578063d752fab2146105be578063d8489152146105ec578063de6ad44e146105f5578063e2e1e48f146105fd576102bb565b8063ae746f021161013b578063ae746f021461053d578063bf85689514610546578063c51cc0001461054f578063ceb1a49314610558578063cf8bc71514610561578063cfa701c51461056a576102bb565b80636e899aa3146104a4578063774d70e4146104b75780637ece45e8146104e35780638bc51e36146104f657806399a485f5146104ff578063a9d1c09e14610512576102bb565b806337785d21116102265780635b16ebb7116101df5780635b16ebb71461042b5780635ead19e31461043e5780635edf085a1461044757806362cea340146104505780636a87def5146104585780636cc06ded14610491576102bb565b806337785d21146103c157806339e68f53146103d45780634139f111146103e757806345263b2114610407578063531984381461040f5780635a4dd3f214610418576102bb565b80631df6acfd116102785780631df6acfd14610361578063273961e6146103765780632b7f09231461037f5780632e2d0856146103925780633494c8e8146103a5578063376d3d5d146103ae576102bb565b806301681315146102c0578063038e5eaa146103045780630781f4d21461031a57806317af50e51461033257806318026396146103455780631a6098271461034e575b600080fd5b6102e77f000000000000000000000000000000000000000000000000000000000000000081565b6040516001600160a01b0390911681526020015b60405180910390f35b61030c6106e1565b6040519081526020016102fb565b61032261085c565b60405190151581526020016102fb565b61030c610340366004613a40565b6108f5565b61030c60115481565b61030c61035c366004613ab1565b610916565b61037461036f366004613865565b610933565b005b61030c60015481565b61030c61038d366004613a70565b610e5a565b6103746103a0366004613bae565b610e78565b61030c60055481565b61030c6103bc36600461392d565b610ed7565b61030c6103cf366004613b3f565b611005565b6103746103e236600461382d565b611aca565b61030c6103f536600461382d565b600a6020526000908152604090205481565b610374611d52565b61030c60025481565b61030c610426366004613a40565b611dc5565b61032261043936600461382d565b611def565b61030c600f5481565b61030c600b5481565b61030c611f03565b61030c610466366004613865565b6001600160a01b03918216600090815260146020908152604080832093909416825291909152205490565b61030c61049f366004613a40565b611f7d565b6103226104b236600461382d565b611f9d565b6103226104c536600461382d565b6001600160a01b031660009081526004602052604090205460ff1690565b6103746104f1366004613c06565b611ffd565b61030c60035481565b61030c61050d366004613ad8565b612062565b61030c610520366004613865565b601460209081526000928352604080842090915290825290205481565b61030c60065481565b61030c600d5481565b61030c60105481565b61030c600e5481565b61030c60005481565b61030c610578366004613865565b6001600160a01b03918216600090815260136020908152604080832093909416825291909152205490565b61030c61207e565b6103746105b936600461382d565b6120be565b6105d16105cc3660046138ed565b612277565b604080519384526020840192909252908201526060016102fb565b61030c60075481565b61030c612509565b61037461060b36600461382d565b61254b565b61030c61061e36600461389d565b612636565b610374610631366004613865565b612743565b61030c610644366004613865565b601260209081526000928352604080842090915290825290205481565b61030c600c5481565b6102e7610678366004613a40565b61293e565b61030c61068b366004613865565b601360209081526000928352604080842090915290825290205481565b61030c6106b6366004613865565b6001600160a01b03918216600090815260126020908152604080832093909416825291909152205490565b60095460009081906106f590600290613d33565b90506000610701612968565b6001600160a01b031663e379976e60096040518263ffffffff1660e01b815260040161072d9190613ca1565b60006040518083038186803b15801561074557600080fd5b505afa158015610759573d6000803e3d6000fd5b505050506040513d6000823e601f3d908101601f191682016040526107819190810190613964565b60095490915061079b57670de0b6b3a76400009250610857565b600954600190811614156107d8578082815181106107c957634e487b7160e01b600052603260045260246000fd5b60200260200101519250610857565b6002816107e6600185613d72565b8151811061080457634e487b7160e01b600052603260045260246000fd5b60200260200101516108169190613d33565b600282848151811061083857634e487b7160e01b600052603260045260246000fd5b602002602001015161084a9190613d33565b6108549190613d1b565b92505b505090565b60007f00000000000000000000000000000000000000000000000000000000000000006001600160a01b0316630781f4d26040518163ffffffff1660e01b815260040160206040518083038186803b1580156108b757600080fd5b505afa1580156108cb573d6000803e3d6000fd5b505050506040513d601f19601f820116820180604052508101906108ef9190613a24565b90505b90565b6009818154811061090557600080fd5b600091825260209091200154905081565b60006109288585600086600087611005565b90505b949350505050565b816001600160a01b0316816001600160a01b0316141561098e5760405162461bcd60e51b81526020600482015260116024820152704e657720746f6b656e206e6f74206e657760781b60448201526064015b60405180910390fd5b6001600160a01b0382166000908152600a6020526040902054806109e85760405162461bcd60e51b815260206004820152601160248201527027379039bab1b41037b632103a37b5b2b760791b6044820152606401610985565b6109f0612a6b565b604051636c66769560e11b81526001600160a01b038481166004830152919091169063d8cced2a9060240160206040518083038186803b158015610a3357600080fd5b505afa158015610a47573d6000803e3d6000fd5b505050506040513d601f19601f82011682018060405250810190610a6b9190613a24565b610aa15760405162461bcd60e51b815260206004820152600760248201526610a0b731b437b960c91b6044820152606401610985565b610aa9612b36565b604051632f011bf560e11b81526001600160a01b0384811660048301529190911690635e0237ea9060240160206040518083038186803b158015610aec57600080fd5b505afa158015610b00573d6000803e3d6000fd5b505050506040513d601f19601f82011682018060405250810190610b249190613a24565b15610b5a5760405162461bcd60e51b815260206004820152600660248201526553796e74682160d01b6044820152606401610985565b610b62612a6b565b60405163b34c8afb60e01b81526001600160a01b038581166004830152919091169063b34c8afb9060240160206040518083038186803b158015610ba557600080fd5b505afa158015610bb9573d6000803e3d6000fd5b505050506040513d601f19601f82011682018060405250810190610bdd9190613a58565b610be5612a6b565b60405163b34c8afb60e01b81526001600160a01b038581166004830152919091169063b34c8afb9060240160206040518083038186803b158015610c2857600080fd5b505afa158015610c3c573d6000803e3d6000fd5b505050506040513d601f19601f82011682018060405250810190610c609190613a58565b11610c9a5760405162461bcd60e51b815260206004820152600a6024820152692737ba103232b2b832b960b11b6044820152606401610985565b610ca2612968565b6001600160a01b031663eb7d5ddf846007546000610cbe6106e1565b6040516001600160e01b031960e087901b1681526001600160a01b039094166004850152602484019290925215156044830152606482015260840160006040518083038186803b158015610d1157600080fd5b505afa158015610d25573d6000803e3d6000fd5b50505050610d31612968565b6001600160a01b031663eb7d5ddf836006546001610d4d6106e1565b6040516001600160e01b031960e087901b1681526001600160a01b039094166004850152602484019290925215156044830152606482015260840160006040518083038186803b158015610da057600080fd5b505afa158015610db4573d6000803e3d6000fd5b5050506001600160a01b03808516600090815260046020526040808220805460ff199081169091559286168252902080549091166001908117909155839150600890610e009084613d72565b81548110610e1e57634e487b7160e01b600052603260045260246000fd5b9060005260206000200160006101000a8154816001600160a01b0302191690836001600160a01b03160217905550610e558261254b565b505050565b6000610e6e84846000856000612710611005565b90505b9392505050565b610e80612c01565b6001600160a01b0316336001600160a01b031614610ec95760405162461bcd60e51b8152600401610985906020808252600490820152632144414f60e01b604082015260600190565b600592909255600655600755565b6000610ee1612c5c565b6001600160a01b031663e1ac7cfe6040518163ffffffff1660e01b8152600401600060405180830381600087803b158015610f1b57600080fd5b505af1158015610f2f573d6000803e3d6000fd5b505050506000610f3f8686612d27565b90506000610f4d8585612d27565b905033610f5c81878585612feb565b610f64611d52565b610f6c612a6b565b60405163fde3b26560e01b81526001600160a01b038a8116600483015288811660248301528381166044830152919091169063fde3b26590606401602060405180830381600087803b158015610fc157600080fd5b505af1158015610fd5573d6000803e3d6000fd5b505050506040513d601f19601f82011682018060405250810190610ff99190613a58565b98975050505050505050565b600061100f611d52565b33856110255761101f8789612d27565b506110b5565b6110b3611030612a6b565b604051636e76408b60e11b81526001600160a01b038a81166004830152919091169063dcec811690602401602060405180830381600087803b15801561107557600080fd5b505af1158015611089573d6000803e3d6000fd5b505050506040513d601f19601f820116820180604052508101906110ad9190613849565b89612d27565b505b60006110bf612a6b565b604051636c66769560e11b81526001600160a01b038a81166004830152919091169063d8cced2a9060240160206040518083038186803b15801561110257600080fd5b505afa158015611116573d6000803e3d6000fd5b505050506040513d601f19601f8201168201806040525081019061113a9190613a24565b806111c35750611148612a6b565b604051636c66769560e11b81526001600160a01b038881166004830152919091169063d8cced2a9060240160206040518083038186803b15801561118b57600080fd5b505afa15801561119f573d6000803e3d6000fd5b505050506040513d601f19601f820116820180604052508101906111c39190613a24565b156111ef57507f00000000000000000000000000000000000000000000000000000000000000006111fa565b6111f7613091565b90505b61120386611f9d565b156114505783611211612968565b6001600160a01b0316632db6e4888b611228612a6b565b60405163e6ae1a9760e01b81526001600160a01b038e81166004830152919091169063e6ae1a979060240160206040518083038186803b15801561126b57600080fd5b505afa15801561127f573d6000803e3d6000fd5b505050506040513d601f19601f820116820180604052508101906112a39190613a58565b6040516001600160e01b031960e085901b1681526004810192909252602482015260440160206040518083038186803b1580156112df57600080fd5b505afa1580156112f3573d6000803e3d6000fd5b505050506040513d601f19601f820116820180604052508101906113179190613a58565b111561132257600080fd5b866113ba5761132f612a6b565b6001600160a01b031663efc34aab828a8560016040518563ffffffff1660e01b81526004016113619493929190613c53565b602060405180830381600087803b15801561137b57600080fd5b505af115801561138f573d6000803e3d6000fd5b505050506040513d601f19601f820116820180604052508101906113b39190613a58565b925061144b565b6113c2612a6b565b604051631abfe51560e21b81526001600160a01b038a8116600483015284811660248301529190911690636aff9454906044015b602060405180830381600087803b15801561141057600080fd5b505af1158015611424573d6000803e3d6000fd5b505050506040513d601f19601f820116820180604052508101906114489190613a58565b92505b611a98565b61145988611f9d565b156115f75783611467612968565b6001600160a01b0316632db6e4888b61147e612a6b565b60405163b34c8afb60e01b81526001600160a01b038c81166004830152919091169063b34c8afb9060240160206040518083038186803b1580156114c157600080fd5b505afa1580156114d5573d6000803e3d6000fd5b505050506040513d601f19601f820116820180604052508101906114f99190613a58565b6040516001600160e01b031960e085901b1681526004810192909252602482015260440160206040518083038186803b15801561153557600080fd5b505afa158015611549573d6000803e3d6000fd5b505050506040513d601f19601f8201168201806040525081019061156d9190613a58565b111561157857600080fd5b846115b757611585612a6b565b6001600160a01b031663efc34aab82888560006040518563ffffffff1660e01b81526004016113619493929190613c53565b6115bf612a6b565b604051632e29b9c360e11b81526001600160a01b03888116600483015284811660248301529190911690635c537386906044016113f6565b83611600612968565b6001600160a01b0316632db6e4888b611617612a6b565b60405163e6ae1a9760e01b81526001600160a01b038e81166004830152919091169063e6ae1a979060240160206040518083038186803b15801561165a57600080fd5b505afa15801561166e573d6000803e3d6000fd5b505050506040513d601f19601f820116820180604052508101906116929190613a58565b6040516001600160e01b031960e085901b1681526004810192909252602482015260440160206040518083038186803b1580156116ce57600080fd5b505afa1580156116e2573d6000803e3d6000fd5b505050506040513d601f19601f820116820180604052508101906117069190613a58565b111561171157600080fd5b6000876117b257611720612a6b565b6001600160a01b031663efc34aab838b611738612a6b565b60016040518563ffffffff1660e01b81526004016117599493929190613c53565b602060405180830381600087803b15801561177357600080fd5b505af1158015611787573d6000803e3d6000fd5b505050506040513d601f19601f820116820180604052508101906117ab9190613a58565b9050611854565b6117ba612a6b565b6001600160a01b0316636aff94548a6117d1612a6b565b6040516001600160e01b031960e085901b1681526001600160a01b03928316600482015291166024820152604401602060405180830381600087803b15801561181957600080fd5b505af115801561182d573d6000803e3d6000fd5b505050506040513d601f19601f820116820180604052508101906118519190613a58565b90505b8461185d612968565b6001600160a01b0316632db6e48883611874612a6b565b60405163b34c8afb60e01b81526001600160a01b038d81166004830152919091169063b34c8afb9060240160206040518083038186803b1580156118b757600080fd5b505afa1580156118cb573d6000803e3d6000fd5b505050506040513d601f19601f820116820180604052508101906118ef9190613a58565b6040516001600160e01b031960e085901b1681526004810192909252602482015260440160206040518083038186803b15801561192b57600080fd5b505afa15801561193f573d6000803e3d6000fd5b505050506040513d601f19601f820116820180604052508101906119639190613a58565b111561196e57600080fd5b85611a065761197b612a6b565b6001600160a01b031663efc34aab83898660006040518563ffffffff1660e01b81526004016119ad9493929190613c53565b602060405180830381600087803b1580156119c757600080fd5b505af11580156119db573d6000803e3d6000fd5b505050506040513d601f19601f820116820180604052508101906119ff9190613a58565b9350611a96565b611a0e612a6b565b604051632e29b9c360e11b81526001600160a01b03898116600483015285811660248301529190911690635c53738690604401602060405180830381600087803b158015611a5b57600080fd5b505af1158015611a6f573d6000803e3d6000fd5b505050506040513d601f19601f82011682018060405250810190611a939190613a58565b93505b505b611aa2818961315c565b611aac818761315c565b611ab588613349565b611abe86613349565b50509695505050505050565b60055460085410611ada57600080fd5b611ae2612a6b565b604051636c66769560e11b81526001600160a01b038381166004830152919091169063d8cced2a9060240160206040518083038186803b158015611b2557600080fd5b505afa158015611b39573d6000803e3d6000fd5b505050506040513d601f19601f82011682018060405250810190611b5d9190613a24565b611b6657600080fd5b611b6e612b36565b604051632f011bf560e11b81526001600160a01b0383811660048301529190911690635e0237ea9060240160206040518083038186803b158015611bb157600080fd5b505afa158015611bc5573d6000803e3d6000fd5b505050506040513d601f19601f82011682018060405250810190611be99190613a24565b15611c1f5760405162461bcd60e51b815260206004820152600660248201526553796e74682160d01b6044820152606401610985565b600880546001810182557ff3f7a9fe364faab93b216da50a3214154f22a0a2b415b23a84c8169e8b636ee30180546001600160a01b0319166001600160a01b03841690811790915590546000918252600a6020526040909120556009611c83612968565b60405163db39dc7960e01b81526001600160a01b038481166004830152670de0b6b3a76400006024830152919091169063db39dc799060440160206040518083038186803b158015611cd457600080fd5b505afa158015611ce8573d6000803e3d6000fd5b505050506040513d601f19601f82011682018060405250810190611d0c9190613a58565b81546001818101845560009384526020808520909201929092556001600160a01b0384168352600490526040909120805460ff19169091179055611d4f8161254b565b50565b600d544290600090611d649083613d72565b9050611d6e6106e1565b611d789082613d53565b600c6000828254611d899190613d1b565b9091555050600d829055600b54601154611da39084613d72565b1115611dc15760108054600e5560118054600f55600c549091558290555b5050565b600080611dd061207e565b905080611de5670de0b6b3a764000085613d53565b610e719190613d33565b6000611df9612a6b565b604051636c66769560e11b81526001600160a01b038481166004830152919091169063d8cced2a9060240160206040518083038186803b158015611e3c57600080fd5b505afa158015611e50573d6000803e3d6000fd5b505050506040513d601f19601f82011682018060405250810190611e749190613a24565b80611efd5750611e82612a6b565b60405163643fd21560e11b81526001600160a01b038481166004830152919091169063c87fa42a9060240160206040518083038186803b158015611ec557600080fd5b505afa158015611ed9573d6000803e3d6000fd5b505050506040513d601f19601f82011682018060405250810190611efd9190613a24565b92915050565b6000611f0d612c5c565b6001600160a01b03166362cea3406040518163ffffffff1660e01b815260040160206040518083038186803b158015611f4557600080fd5b505afa158015611f59573d6000803e3d6000fd5b505050506040513d601f19601f820116820180604052508101906108ef9190613a58565b600080611f8861207e565b9050670de0b6b3a7640000611de58483613d53565b60007f00000000000000000000000000000000000000000000000000000000000000006001600160a01b0316826001600160a01b03161480611efd5750611fe2613091565b6001600160a01b0316826001600160a01b0316149050919050565b612005612c01565b6001600160a01b0316336001600160a01b03161461204e5760405162461bcd60e51b8152600401610985906020808252600490820152632144414f60e01b604082015260600190565b600093909355600191909155600255600b55565b60006120748686868686612710611005565b9695505050505050565b6009546000906120975750670de0b6b3a76400006108f2565b600f546120a49042613d72565b600e54600c546120b49190613d72565b6108ef9190613d33565b6120c6612a6b565b60405163643fd21560e11b81526001600160a01b038381166004830152919091169063c87fa42a9060240160206040518083038186803b15801561210957600080fd5b505afa15801561211d573d6000803e3d6000fd5b505050506040513d601f19601f820116820180604052508101906121419190613a24565b806121ca575061214f612a6b565b604051636c66769560e11b81526001600160a01b038381166004830152919091169063d8cced2a9060240160206040518083038186803b15801561219257600080fd5b505afa1580156121a6573d6000803e3d6000fd5b505050506040513d601f19601f820116820180604052508101906121ca9190613a24565b6121d357600080fd5b6001600160a01b03811660009081526004602052604090205460ff1661223e57600254600354101561223e576001600160a01b0381166000908152600460205260408120805460ff191660019081179091556003805491929091612238908490613d1b565b90915550505b6040516001600160a01b0382169033907fb2f6cc014bc6265032f32972254d5e024ec51ed94c0aaf2280128336be54a04190600090a350565b60008080338161228982898989612636565b905080156123f557612299612c5c565b6001600160a01b0316636a529026896122b0612a6b565b846040518463ffffffff1660e01b81526004016122cf93929190613c7d565b602060405180830381600087803b1580156122e957600080fd5b505af11580156122fd573d6000803e3d6000fd5b505050506040513d601f19601f820116820180604052508101906123219190613a58565b5061232a612a6b565b60405163fde3b26560e01b81526001600160a01b038a8116600483015289811660248301528481166044830152919091169063fde3b26590606401602060405180830381600087803b15801561237f57600080fd5b505af1158015612393573d6000803e3d6000fd5b505050506040513d601f19601f820116820180604052508101906123b79190613a58565b506001600160a01b038083166000908152601260209081526040808320938b16835292905290812080548392906123ef908490613d1b565b90915550505b6123fd612a6b565b604051630d74dd9960e21b81526001600160a01b038a81166004830152898116602483015260448201899052848116606483015291909116906335d3766490608401606060405180830381600087803b15801561245957600080fd5b505af115801561246d573d6000803e3d6000fd5b505050506040513d601f19601f820116820180604052508101906124919190613bd9565b919650945092506124a4828888846133da565b6124ac612c5c565b6001600160a01b031663e1ac7cfe6040518163ffffffff1660e01b8152600401600060405180830381600087803b1580156124e657600080fd5b505af11580156124fa573d6000803e3d6000fd5b50505050505093509350939050565b6000612513612c5c565b6001600160a01b031663de6ad44e6040518163ffffffff1660e01b815260040160206040518083038186803b158015611f4557600080fd5b6001600160a01b0381166000908152600a60205260409020548015611dc157612572612968565b60405163db39dc7960e01b81526001600160a01b038481166004830152670de0b6b3a76400006024830152919091169063db39dc799060440160206040518083038186803b1580156125c357600080fd5b505afa1580156125d7573d6000803e3d6000fd5b505050506040513d601f19601f820116820180604052508101906125fb9190613a58565b6009612608600184613d72565b8154811061262657634e487b7160e01b600052603260045260246000fd5b6000918252602090912001555050565b6000612640612968565b600154604051635b0b602d60e01b81526001600160a01b0388811660048301528681166024830152604482018690526064820192909252911690635b0b602d9060840160206040518083038186803b15801561269b57600080fd5b505afa1580156126af573d6000803e3d6000fd5b505050506040513d601f19601f820116820180604052508101906126d39190613a58565b90507f00000000000000000000000000000000000000000000000000000000000000006001600160a01b0316846001600160a01b0316141561272d57612717611f03565b811061272857612725611f03565b90505b61092b565b612735612509565b811061092b57610928612509565b61274b612a6b565b60405163643fd21560e11b81526001600160a01b038381166004830152919091169063c87fa42a9060240160206040518083038186803b15801561278e57600080fd5b505afa1580156127a2573d6000803e3d6000fd5b505050506040513d601f19601f820116820180604052508101906127c69190613a24565b6127cf57600080fd5b6127d7612a6b565b60405163b34c8afb60e01b81526001600160a01b038481166004830152919091169063b34c8afb9060240160206040518083038186803b15801561281a57600080fd5b505afa15801561282e573d6000803e3d6000fd5b505050506040513d601f19601f820116820180604052508101906128529190613a58565b61285a612a6b565b60405163b34c8afb60e01b81526001600160a01b038481166004830152919091169063b34c8afb9060240160206040518083038186803b15801561289d57600080fd5b505afa1580156128b1573d6000803e3d6000fd5b505050506040513d601f19601f820116820180604052508101906128d59190613a58565b1115611dc1576001600160a01b03808316600090815260046020526040808220805460ff1990811690915592841680835281832080549094166001179093555133917fb2f6cc014bc6265032f32972254d5e024ec51ed94c0aaf2280128336be54a04191a35050565b6008818154811061294e57600080fd5b6000918252602090912001546001600160a01b0316905081565b60007f00000000000000000000000000000000000000000000000000000000000000006001600160a01b03166398fabd3a6040518163ffffffff1660e01b815260040160206040518083038186803b1580156129c357600080fd5b505afa1580156129d7573d6000803e3d6000fd5b505050506040513d601f19601f820116820180604052508101906129fb9190613849565b6001600160a01b0316637b0e5c456040518163ffffffff1660e01b815260040160206040518083038186803b158015612a3357600080fd5b505afa158015612a47573d6000803e3d6000fd5b505050506040513d601f19601f820116820180604052508101906108ef9190613849565b60007f00000000000000000000000000000000000000000000000000000000000000006001600160a01b03166398fabd3a6040518163ffffffff1660e01b815260040160206040518083038186803b158015612ac657600080fd5b505afa158015612ada573d6000803e3d6000fd5b505050506040513d601f19601f82011682018060405250810190612afe9190613849565b6001600160a01b031663ebccb5b26040518163ffffffff1660e01b815260040160206040518083038186803b158015612a3357600080fd5b60007f00000000000000000000000000000000000000000000000000000000000000006001600160a01b03166398fabd3a6040518163ffffffff1660e01b815260040160206040518083038186803b158015612b9157600080fd5b505afa158015612ba5573d6000803e3d6000fd5b505050506040513d601f19601f82011682018060405250810190612bc99190613849565b6001600160a01b0316632dd310006040518163ffffffff1660e01b815260040160206040518083038186803b158015612a3357600080fd5b60007f00000000000000000000000000000000000000000000000000000000000000006001600160a01b03166398fabd3a6040518163ffffffff1660e01b815260040160206040518083038186803b158015612a3357600080fd5b60007f00000000000000000000000000000000000000000000000000000000000000006001600160a01b03166398fabd3a6040518163ffffffff1660e01b815260040160206040518083038186803b158015612cb757600080fd5b505afa158015612ccb573d6000803e3d6000fd5b505050506040513d601f19601f82011682018060405250810190612cef9190613849565b6001600160a01b0316639d2cc4366040518163ffffffff1660e01b815260040160206040518083038186803b158015612a3357600080fd5b60007f00000000000000000000000000000000000000000000000000000000000000006001600160a01b0316836001600160a01b03161480612d815750612d6c613091565b6001600160a01b0316836001600160a01b0316145b80612e0c5750612d8f612a6b565b604051632f011bf560e11b81526001600160a01b0385811660048301529190911690635e0237ea90602401602060405180830381600087803b158015612dd457600080fd5b505af1158015612de8573d6000803e3d6000fd5b505050506040513d601f19601f82011682018060405250810190612e0c9190613a24565b15612ea25750806001600160a01b0383166323b872dd33612e2b612a6b565b856040518463ffffffff1660e01b8152600401612e4a93929190613c7d565b602060405180830381600087803b158015612e6457600080fd5b505af1158015612e78573d6000803e3d6000fd5b505050506040513d601f19601f82011682018060405250810190612e9c9190613a24565b50611efd565b6000836001600160a01b03166370a08231612ebb612a6b565b6040516001600160e01b031960e084901b1681526001600160a01b03909116600482015260240160206040518083038186803b158015612efa57600080fd5b505afa158015612f0e573d6000803e3d6000fd5b505050506040513d601f19601f82011682018060405250810190612f329190613a58565b9050612f5233612f40612a6b565b6001600160a01b0387169190866135f2565b80846001600160a01b03166370a08231612f6a612a6b565b6040516001600160e01b031960e084901b1681526001600160a01b03909116600482015260240160206040518083038186803b158015612fa957600080fd5b505afa158015612fbd573d6000803e3d6000fd5b505050506040513d601f19601f82011682018060405250810190612fe19190613a58565b61092b9190613d72565b6001600160a01b03808516600090815260126020908152604080832093871683529290529081208054849290613022908490613d1b565b90915550506001600160a01b0380851660009081526013602090815260408083209387168352929052908120805483929061305e908490613d1b565b9091555050506001600160a01b039283166000908152601460209081526040808320949095168252929092525020429055565b60007f00000000000000000000000000000000000000000000000000000000000000006001600160a01b03166398fabd3a6040518163ffffffff1660e01b815260040160206040518083038186803b1580156130ec57600080fd5b505afa158015613100573d6000803e3d6000fd5b505050506040513d601f19601f820116820180604052508101906131249190613849565b6001600160a01b031663e2c3b0466040518163ffffffff1660e01b815260040160206040518083038186803b158015612a3357600080fd5b61316581611f9d565b611dc1576000613173612968565b600054604051635a4a8f2560e11b81526001600160a01b038581166004830152602482019290925291169063b4951e4a9060440160206040518083038186803b1580156131bf57600080fd5b505afa1580156131d3573d6000803e3d6000fd5b505050506040513d601f19601f820116820180604052508101906131f79190613a58565b9050613201612c5c565b6001600160a01b0316636a52902684613218612a6b565b846040518463ffffffff1660e01b815260040161323793929190613c7d565b602060405180830381600087803b15801561325157600080fd5b505af1158015613265573d6000803e3d6000fd5b505050506040513d601f19601f820116820180604052508101906132899190613a58565b50613292612a6b565b604051633041949b60e01b81526001600160a01b03858116600483015284811660248301529190911690633041949b90604401600060405180830381600087803b1580156132df57600080fd5b505af11580156132f3573d6000803e3d6000fd5b50505050816001600160a01b0316836001600160a01b03167f416b0b234ccd4d6d72c4b1a3a09b472a71981d9bbf0f26ab44774e0e3425fad68360405161333c91815260200190565b60405180910390a3505050565b613351612a6b565b604051636c66769560e11b81526001600160a01b038381166004830152919091169063d8cced2a9060240160206040518083038186803b15801561339457600080fd5b505afa1580156133a8573d6000803e3d6000fd5b505050506040513d601f19601f820116820180604052508101906133cc9190613a24565b15611d4f57611d4f8161254b565b6001600160a01b03808516600090815260126020908152604080832093871683529290529081208054839290613411908490613d1b565b9091555060009050613421612968565b6001600160a01b03868116600090815260126020908152604080832089851684529091529081902054905163714270ab60e01b815260048101879052602481019190915291169063714270ab9060440160206040518083038186803b15801561348957600080fd5b505afa15801561349d573d6000803e3d6000fd5b505050506040513d601f19601f820116820180604052508101906134c19190613a58565b905060006134cd612968565b6001600160a01b0387811660009081526013602090815260408083208a851684529091529081902054905163714270ab60e01b815260048101889052602481019190915291169063714270ab9060440160206040518083038186803b15801561353557600080fd5b505afa158015613549573d6000803e3d6000fd5b505050506040513d601f19601f8201168201806040525081019061356d9190613a58565b6001600160a01b038088166000908152601260209081526040808320938a168352929052908120805492935084929091906135a9908490613d72565b90915550506001600160a01b038087166000908152601360209081526040808320938916835292905290812080548392906135e5908490613d72565b9091555050505050505050565b61364a846323b872dd60e01b85858560405160240161361393929190613c7d565b60408051601f198184030181529190526020810180516001600160e01b03166001600160e01b031990931692909217909152613650565b50505050565b60006136a5826040518060400160405280602081526020017f5361666545524332303a206c6f772d6c6576656c2063616c6c206661696c6564815250856001600160a01b03166137229092919063ffffffff16565b805190915015610e5557808060200190518101906136c39190613a24565b610e555760405162461bcd60e51b815260206004820152602a60248201527f5361666545524332303a204552433230206f7065726174696f6e20646964206e6044820152691bdd081cdd58d8d9595960b21b6064820152608401610985565b6060610e6e848460008585843b61377b5760405162461bcd60e51b815260206004820152601d60248201527f416464726573733a2063616c6c20746f206e6f6e2d636f6e74726163740000006044820152606401610985565b600080866001600160a01b031685876040516137979190613c37565b60006040518083038185875af1925050503d80600081146137d4576040519150601f19603f3d011682016040523d82523d6000602084013e6137d9565b606091505b50915091506137e98282866137f4565b979650505050505050565b60608315613803575081610e71565b8251156138135782518084602001fd5b8160405162461bcd60e51b81526004016109859190613ce8565b60006020828403121561383e578081fd5b8135610e7181613de1565b60006020828403121561385a578081fd5b8151610e7181613de1565b60008060408385031215613877578081fd5b823561388281613de1565b9150602083013561389281613de1565b809150509250929050565b600080600080608085870312156138b2578182fd5b84356138bd81613de1565b935060208501356138cd81613de1565b925060408501356138dd81613de1565b9396929550929360600135925050565b600080600060608486031215613901578283fd5b833561390c81613de1565b9250602084013561391c81613de1565b929592945050506040919091013590565b60008060008060808587031215613942578384fd5b843561394d81613de1565b93506020850135925060408501356138dd81613de1565b60006020808385031215613976578182fd5b825167ffffffffffffffff8082111561398d578384fd5b818501915085601f8301126139a0578384fd5b8151818111156139b2576139b2613dcb565b8060051b604051601f19603f830116810181811085821117156139d7576139d7613dcb565b604052828152858101935084860182860187018a10156139f5578788fd5b8795505b83861015613a175780518552600195909501949386019386016139f9565b5098975050505050505050565b600060208284031215613a35578081fd5b8151610e7181613df6565b600060208284031215613a51578081fd5b5035919050565b600060208284031215613a69578081fd5b5051919050565b600080600060608486031215613a84578283fd5b833592506020840135613a9681613de1565b91506040840135613aa681613de1565b809150509250925092565b60008060008060808587031215613ac6578384fd5b8435935060208501356138cd81613de1565b600080600080600060a08688031215613aef578081fd5b853594506020860135613b0181613de1565b93506040860135613b1181613df6565b92506060860135613b2181613de1565b91506080860135613b3181613df6565b809150509295509295909350565b60008060008060008060c08789031215613b57578384fd5b863595506020870135613b6981613de1565b94506040870135613b7981613df6565b93506060870135613b8981613de1565b92506080870135613b9981613df6565b8092505060a087013590509295509295509295565b600080600060608486031215613bc2578081fd5b505081359360208301359350604090920135919050565b600080600060608486031215613bed578081fd5b8351925060208401519150604084015190509250925092565b60008060008060808587031215613c1b578182fd5b5050823594602084013594506040840135936060013592509050565b60008251613c49818460208701613d89565b9190910192915050565b6001600160a01b039485168152928416602084015292166040820152901515606082015260800190565b6001600160a01b039384168152919092166020820152604081019190915260600190565b6020808252825482820181905260008481528281209092916040850190845b81811015613cdc57835483526001938401939285019201613cc0565b50909695505050505050565b6000602082528251806020840152613d07816040850160208701613d89565b601f01601f19169190910160400192915050565b60008219821115613d2e57613d2e613db5565b500190565b600082613d4e57634e487b7160e01b81526012600452602481fd5b500490565b6000816000190483118215151615613d6d57613d6d613db5565b500290565b600082821015613d8457613d84613db5565b500390565b60005b83811015613da4578181015183820152602001613d8c565b8381111561364a5750506000910152565b634e487b7160e01b600052601160045260246000fd5b634e487b7160e01b600052604160045260246000fd5b6001600160a01b0381168114611d4f57600080fd5b8015158114611d4f57600080fdfea26469706673582212203433beab2a43a86739cd555ac7b3c9fd64b205e70a6e17589e2cbde7647ba86264736f6c63430008030033",
  "linkReferences": {},
  "deployedLinkReferences": {}
}