{
  "_format": "hh-sol-artifact-1",
  "contractName": "USDV",
  "sourceName": "contracts/USDV.sol",
  "abi": [
    {
      "inputs": [
        {
          "internalType": "address",
          "name": "_vader",
          "type": "address"
        }
      ],
      "stateMutability": "nonpayable",
      "type": "constructor"
    },
    {
      "anonymous": false,
      "inputs": [
        {
          "indexed": true,
          "internalType": "address",
          "name": "owner",
          "type": "address"
        },
        {
          "indexed": true,
          "internalType": "address",
          "name": "spender",
          "type": "address"
        },
        {
          "indexed": false,
          "internalType": "uint256",
          "name": "value",
          "type": "uint256"
        }
      ],
      "name": "Approval",
      "type": "event"
    },
    {
      "anonymous": false,
      "inputs": [
        {
          "indexed": true,
          "internalType": "address",
          "name": "from",
          "type": "address"
        },
        {
          "indexed": true,
          "internalType": "address",
          "name": "to",
          "type": "address"
        },
        {
          "indexed": false,
          "internalType": "uint256",
          "name": "value",
          "type": "uint256"
        }
      ],
      "name": "Transfer",
      "type": "event"
    },
    {
      "inputs": [],
      "name": "VADER",
      "outputs": [
        {
          "internalType": "address",
          "name": "",
          "type": "address"
        }
      ],
      "stateMutability": "view",
      "type": "function"
    },
    {
      "inputs": [
        {
          "internalType": "address",
          "name": "owner",
          "type": "address"
        },
        {
          "internalType": "address",
          "name": "spender",
          "type": "address"
        }
      ],
      "name": "allowance",
      "outputs": [
        {
          "internalType": "uint256",
          "name": "",
          "type": "uint256"
        }
      ],
      "stateMutability": "view",
      "type": "function"
    },
    {
      "inputs": [
        {
          "internalType": "address",
          "name": "spender",
          "type": "address"
        },
        {
          "internalType": "uint256",
          "name": "amount",
          "type": "uint256"
        }
      ],
      "name": "approve",
      "outputs": [
        {
          "internalType": "bool",
          "name": "",
          "type": "bool"
        }
      ],
      "stateMutability": "nonpayable",
      "type": "function"
    },
    {
      "inputs": [
        {
          "internalType": "address",
          "name": "recipient",
          "type": "address"
        },
        {
          "internalType": "uint256",
          "name": "amount",
          "type": "uint256"
        },
        {
          "internalType": "bytes",
          "name": "data",
          "type": "bytes"
        }
      ],
      "name": "approveAndCall",
      "outputs": [
        {
          "internalType": "bool",
          "name": "",
          "type": "bool"
        }
      ],
      "stateMutability": "nonpayable",
      "type": "function"
    },
    {
      "inputs": [
        {
          "internalType": "address",
          "name": "account",
          "type": "address"
        }
      ],
      "name": "balanceOf",
      "outputs": [
        {
          "internalType": "uint256",
          "name": "",
          "type": "uint256"
        }
      ],
      "stateMutability": "view",
      "type": "function"
    },
    {
      "inputs": [],
      "name": "blockDelay",
      "outputs": [
        {
          "internalType": "uint256",
          "name": "",
          "type": "uint256"
        }
      ],
      "stateMutability": "view",
      "type": "function"
    },
    {
      "inputs": [
        {
          "internalType": "uint256",
          "name": "amount",
          "type": "uint256"
        }
      ],
      "name": "burn",
      "outputs": [],
      "stateMutability": "nonpayable",
      "type": "function"
    },
    {
      "inputs": [
        {
          "internalType": "address",
          "name": "account",
          "type": "address"
        },
        {
          "internalType": "uint256",
          "name": "amount",
          "type": "uint256"
        }
      ],
      "name": "burnFrom",
      "outputs": [],
      "stateMutability": "nonpayable",
      "type": "function"
    },
    {
      "inputs": [
        {
          "internalType": "uint256",
          "name": "amount",
          "type": "uint256"
        }
      ],
      "name": "convertToUSDV",
      "outputs": [
        {
          "internalType": "uint256",
          "name": "",
          "type": "uint256"
        }
      ],
      "stateMutability": "nonpayable",
      "type": "function"
    },
    {
      "inputs": [],
      "name": "convertToUSDVDirectly",
      "outputs": [
        {
          "internalType": "uint256",
          "name": "",
          "type": "uint256"
        }
      ],
      "stateMutability": "nonpayable",
      "type": "function"
    },
    {
      "inputs": [
        {
          "internalType": "address",
          "name": "member",
          "type": "address"
        },
        {
          "internalType": "uint256",
          "name": "amount",
          "type": "uint256"
        }
      ],
      "name": "convertToUSDVForMember",
      "outputs": [
        {
          "internalType": "uint256",
          "name": "",
          "type": "uint256"
        }
      ],
      "stateMutability": "nonpayable",
      "type": "function"
    },
    {
      "inputs": [
        {
          "internalType": "address",
          "name": "member",
          "type": "address"
        }
      ],
      "name": "convertToUSDVForMemberDirectly",
      "outputs": [
        {
          "internalType": "uint256",
          "name": "convertAmount",
          "type": "uint256"
        }
      ],
      "stateMutability": "nonpayable",
      "type": "function"
    },
    {
      "inputs": [],
      "name": "decimals",
      "outputs": [
        {
          "internalType": "uint8",
          "name": "",
          "type": "uint8"
        }
      ],
      "stateMutability": "view",
      "type": "function"
    },
    {
      "inputs": [
        {
          "internalType": "address",
          "name": "spender",
          "type": "address"
        },
        {
          "internalType": "uint256",
          "name": "subtractedValue",
          "type": "uint256"
        }
      ],
      "name": "decreaseAllowance",
      "outputs": [
        {
          "internalType": "bool",
          "name": "",
          "type": "bool"
        }
      ],
      "stateMutability": "nonpayable",
      "type": "function"
    },
    {
      "inputs": [
        {
          "internalType": "address",
          "name": "spender",
          "type": "address"
        },
        {
          "internalType": "uint256",
          "name": "addedValue",
          "type": "uint256"
        }
      ],
      "name": "increaseAllowance",
      "outputs": [
        {
          "internalType": "bool",
          "name": "",
          "type": "bool"
        }
      ],
      "stateMutability": "nonpayable",
      "type": "function"
    },
    {
      "inputs": [],
      "name": "name",
      "outputs": [
        {
          "internalType": "string",
          "name": "",
          "type": "string"
        }
      ],
      "stateMutability": "view",
      "type": "function"
    },
    {
      "inputs": [
        {
          "internalType": "uint256",
          "name": "newDelay",
          "type": "uint256"
        }
      ],
      "name": "setParams",
      "outputs": [],
      "stateMutability": "nonpayable",
      "type": "function"
    },
    {
      "inputs": [],
      "name": "symbol",
      "outputs": [
        {
          "internalType": "string",
          "name": "",
          "type": "string"
        }
      ],
      "stateMutability": "view",
      "type": "function"
    },
    {
      "inputs": [],
      "name": "totalSupply",
      "outputs": [
        {
          "internalType": "uint256",
          "name": "",
          "type": "uint256"
        }
      ],
      "stateMutability": "view",
      "type": "function"
    },
    {
      "inputs": [
        {
          "internalType": "address",
          "name": "recipient",
          "type": "address"
        },
        {
          "internalType": "uint256",
          "name": "amount",
          "type": "uint256"
        }
      ],
      "name": "transfer",
      "outputs": [
        {
          "internalType": "bool",
          "name": "",
          "type": "bool"
        }
      ],
      "stateMutability": "nonpayable",
      "type": "function"
    },
    {
      "inputs": [
        {
          "internalType": "address",
          "name": "recipient",
          "type": "address"
        },
        {
          "internalType": "uint256",
          "name": "amount",
          "type": "uint256"
        },
        {
          "internalType": "bytes",
          "name": "data",
          "type": "bytes"
        }
      ],
      "name": "transferAndCall",
      "outputs": [
        {
          "internalType": "bool",
          "name": "",
          "type": "bool"
        }
      ],
      "stateMutability": "nonpayable",
      "type": "function"
    },
    {
      "inputs": [
        {
          "internalType": "address",
          "name": "sender",
          "type": "address"
        },
        {
          "internalType": "address",
          "name": "recipient",
          "type": "address"
        },
        {
          "internalType": "uint256",
          "name": "amount",
          "type": "uint256"
        }
      ],
      "name": "transferFrom",
      "outputs": [
        {
          "internalType": "bool",
          "name": "",
          "type": "bool"
        }
      ],
      "stateMutability": "nonpayable",
      "type": "function"
    }
  ],
  "bytecode": "0x60a060405234801561001057600080fd5b5060405161137738038061137783398101604081905261002f91610044565b60601b6001600160601b031916608052610072565b600060208284031215610055578081fd5b81516001600160a01b038116811461006b578182fd5b9392505050565b60805160601c6112bd6100ba6000396000818161014c015281816104890152818161056a015281816106050152818161088801528181610c8a0152610f8301526112bd6000f3fe608060405234801561001057600080fd5b50600436106101425760003560e01c806359ded210116100b857806395d89b411161007c57806395d89b41146102fc578063a457c2d71461031f578063a9059cbb14610332578063cae9ca5114610345578063d98f608814610358578063dd62ed3e1461036157610142565b806359ded2101461029257806370a08231146102a557806379cc6790146102ce578063865520d5146102e15780638a0b970c146102f457610142565b8063313ce5671161010a578063313ce567146102175780633549b77c1461023157806336b7678b1461024457806339509351146102575780634000aea01461026a57806342966c681461027d57610142565b8063016813151461014757806306fdde031461018b578063095ea7b3146101ca57806318160ddd146101ed57806323b872dd14610204575b600080fd5b61016e7f000000000000000000000000000000000000000000000000000000000000000081565b6040516001600160a01b0390911681526020015b60405180910390f35b6101bd604051806040016040528060138152602001722b20a222a91029aa20a12622902227a62620a960691b81525081565b60405161018291906111da565b6101dd6101d836600461108a565b61039a565b6040519015158152602001610182565b6101f660005481565b604051908152602001610182565b6101dd61021236600461104a565b6103b0565b61021f601281565b60405160ff9091168152602001610182565b6101f661023f366004611159565b610473565b6101f6610252366004610fda565b610485565b6101dd61026536600461108a565b610700565b6101dd6102783660046110b5565b610737565b61029061028b366004611159565b6107b5565b005b6102906102a0366004611159565b6107c2565b6101f66102b3366004610fda565b6001600160a01b031660009081526001602052604090205490565b6102906102dc36600461108a565b610818565b6101f66102ef36600461108a565b610863565b6101f6610925565b6101bd604051806040016040528060048152602001632aa9a22b60e11b81525081565b6101dd61032d36600461108a565b610935565b6101dd61034036600461108a565b6109a8565b6101dd6103533660046110b5565b6109b5565b6101f660035481565b6101f661036f366004611012565b6001600160a01b03918216600090815260026020908152604080832093909416825291909152205490565b60006103a73384846109f6565b50600192915050565b60006103bd848484610b06565b6001600160a01b03841660009081526002602090815260408083203384529091529020546000191115610469576001600160a01b0384166000908152600260209081526040808320338452909152902054828110156104535760405162461bcd60e51b815260206004820152600d60248201526c30b63637bbb0b731b29032b93960991b60448201526064015b60405180910390fd5b61046785336104628685611245565b6109f6565b505b5060019392505050565b600061047f3383610863565b92915050565b60007f00000000000000000000000000000000000000000000000000000000000000006001600160a01b0316637dc2268c6040518163ffffffff1660e01b815260040160206040518083038186803b1580156104e057600080fd5b505afa1580156104f4573d6000803e3d6000fd5b505050506040513d601f19601f820116820180604052508101906105189190611139565b6105525760405162461bcd60e51b815260206004820152600b60248201526a6e6f74206d696e74696e6760a81b604482015260640161044a565b6040516370a0823160e01b81523060048201526000907f00000000000000000000000000000000000000000000000000000000000000006001600160a01b0316906370a082319060240160206040518083038186803b1580156105b457600080fd5b505afa1580156105c8573d6000803e3d6000fd5b505050506040513d601f19601f820116820180604052508101906105ec9190611171565b604051630852cd8d60e31b8152600481018290529091507f00000000000000000000000000000000000000000000000000000000000000006001600160a01b0316906342966c6890602401600060405180830381600087803b15801561065157600080fd5b505af1158015610665573d6000803e3d6000fd5b50505050610671610c86565b6001600160a01b0316635a4dd3f2826040518263ffffffff1660e01b815260040161069e91815260200190565b60206040518083038186803b1580156106b657600080fd5b505afa1580156106ca573d6000803e3d6000fd5b505050506040513d601f19601f820116820180604052508101906106ee9190611171565b91506106fa8383610d89565b50919050565b3360008181526002602090815260408083206001600160a01b038716845290915281205490916103a791859061046290869061122d565b6000610744338686610b06565b60405163cf4d253560e01b81526001600160a01b0386169063cf4d2535906107789030908890339089908990600401611189565b600060405180830381600087803b15801561079257600080fd5b505af11580156107a6573d6000803e3d6000fd5b50600198975050505050505050565b6107bf3382610e5b565b50565b6107ca610f7f565b6001600160a01b0316336001600160a01b0316146108135760405162461bcd60e51b815260040161044a906020808252600490820152632144414f60e01b604082015260600190565b600355565b6001600160a01b0382166000908152600260209081526040808320338452909152812054610847908390611245565b90506108548333836109f6565b61085e8383610e5b565b505050565b6040516323b872dd60e01b8152336004820152306024820152604481018290526000907f00000000000000000000000000000000000000000000000000000000000000006001600160a01b0316906323b872dd90606401602060405180830381600087803b1580156108d457600080fd5b505af11580156108e8573d6000803e3d6000fd5b505050506040513d601f19601f8201168201806040525081019061090c9190611139565b61091557600080fd5b61091e83610485565b9392505050565b600061093033610485565b905090565b3360009081526002602090815260408083206001600160a01b0386168452909152812054828110156109995760405162461bcd60e51b815260206004820152600d60248201526c30b63637bbb0b731b29032b93960991b604482015260640161044a565b61046933856104628685611245565b60006103a7338484610b06565b60006109c23386866109f6565b604051631ac562a760e01b81526001600160a01b03861690631ac562a7906107789030908890339089908990600401611189565b6001600160a01b038316610a355760405162461bcd60e51b815260206004820152600660248201526539b2b73232b960d11b604482015260640161044a565b6001600160a01b038216610a755760405162461bcd60e51b815260206004820152600760248201526639b832b73232b960c91b604482015260640161044a565b6001600160a01b03808416600090815260026020908152604080832093861683529290522054600019111561085e576001600160a01b0383811660008181526002602090815260408083209487168084529482529182902085905590518481527f8c5be1e5ebec7d5bd14f71427d1e84f3dd0314c0f7b2291e5b200ac8c7c3b92591015b60405180910390a3505050565b8015610c41576001600160a01b038316610b4b5760405162461bcd60e51b815260206004820152600660248201526539b2b73232b960d11b604482015260640161044a565b6001600160a01b038216301415610b905760405162461bcd60e51b81526020600482015260096024820152681c9958da5c1a595b9d60ba1b604482015260640161044a565b6001600160a01b038316600090815260016020526040902054811115610be65760405162461bcd60e51b815260206004820152600b60248201526a3130b630b731b29032b93960a91b604482015260640161044a565b6001600160a01b03831660009081526001602052604081208054839290610c0e908490611245565b90915550506001600160a01b03821660009081526001602052604081208054839290610c3b90849061122d565b90915550505b816001600160a01b0316836001600160a01b03167fddf252ad1be2c89b69c2b068fc378daa952ba7f163c4a11628f55a4df523b3ef83604051610af991815260200190565b60007f00000000000000000000000000000000000000000000000000000000000000006001600160a01b03166398fabd3a6040518163ffffffff1660e01b815260040160206040518083038186803b158015610ce157600080fd5b505afa158015610cf5573d6000803e3d6000fd5b505050506040513d601f19601f82011682018060405250810190610d199190610ff6565b6001600160a01b03166332fe7b266040518163ffffffff1660e01b815260040160206040518083038186803b158015610d5157600080fd5b505afa158015610d65573d6000803e3d6000fd5b505050506040513d601f19601f820116820180604052508101906109309190610ff6565b8015610e15576001600160a01b038216610dd15760405162461bcd60e51b81526020600482015260096024820152681c9958da5c1a595b9d60ba1b604482015260640161044a565b80600080828254610de2919061122d565b90915550506001600160a01b03821660009081526001602052604081208054839290610e0f90849061122d565b90915550505b6040518181526001600160a01b038316906000907fddf252ad1be2c89b69c2b068fc378daa952ba7f163c4a11628f55a4df523b3ef906020015b60405180910390a35050565b8015610f41576001600160a01b038216610ea55760405162461bcd60e51b815260206004820152600b60248201526a30b2323932b9b99032b93960a91b604482015260640161044a565b6001600160a01b038216600090815260016020526040902054811115610efb5760405162461bcd60e51b815260206004820152600b60248201526a3130b630b731b29032b93960a91b604482015260640161044a565b6001600160a01b03821660009081526001602052604081208054839290610f23908490611245565b9250508190555080600080828254610f3b9190611245565b90915550505b6040518181526000906001600160a01b038416907fddf252ad1be2c89b69c2b068fc378daa952ba7f163c4a11628f55a4df523b3ef90602001610e4f565b60007f00000000000000000000000000000000000000000000000000000000000000006001600160a01b03166398fabd3a6040518163ffffffff1660e01b815260040160206040518083038186803b158015610d5157600080fd5b600060208284031215610feb578081fd5b813561091e81611272565b600060208284031215611007578081fd5b815161091e81611272565b60008060408385031215611024578081fd5b823561102f81611272565b9150602083013561103f81611272565b809150509250929050565b60008060006060848603121561105e578081fd5b833561106981611272565b9250602084013561107981611272565b929592945050506040919091013590565b6000806040838503121561109c578182fd5b82356110a781611272565b946020939093013593505050565b600080600080606085870312156110ca578081fd5b84356110d581611272565b935060208501359250604085013567ffffffffffffffff808211156110f8578283fd5b818701915087601f83011261110b578283fd5b813581811115611119578384fd5b88602082850101111561112a578384fd5b95989497505060200194505050565b60006020828403121561114a578081fd5b8151801515811461091e578182fd5b60006020828403121561116a578081fd5b5035919050565b600060208284031215611182578081fd5b5051919050565b6001600160a01b038681168252602082018690528416604082015260806060820181905281018290526000828460a084013781830160a090810191909152601f909201601f19160101949350505050565b6000602080835283518082850152825b81811015611206578581018301518582016040015282016111ea565b818111156112175783604083870101525b50601f01601f1916929092016040019392505050565b600082198211156112405761124061125c565b500190565b6000828210156112575761125761125c565b500390565b634e487b7160e01b600052601160045260246000fd5b6001600160a01b03811681146107bf57600080fdfea264697066735822122090a7585384e3a454e676ffd87dfa6a40fd51c924b9cc44343a197625d9e2aba264736f6c63430008030033",
  "linkReferences": {},
  "deployedLinkReferences": {}
}