{
  "_format": "hh-sol-artifact-1",
  "contractName": "Synth",
  "sourceName": "contracts/Synth.sol",
  "abi": [
    {
      "inputs": [
        {
          "internalType": "address",
          "name": "_token",
          "type": "address"
        }
      ],
      "stateMutability": "nonpayable",
      "type": "constructor"
    },
    {
      "anonymous": false,
      "inputs": [
        {
          "indexed": true,
          "internalType": "address",
          "name": "owner",
          "type": "address"
        },
        {
          "indexed": true,
          "internalType": "address",
          "name": "spender",
          "type": "address"
        },
        {
          "indexed": false,
          "internalType": "uint256",
          "name": "value",
          "type": "uint256"
        }
      ],
      "name": "Approval",
      "type": "event"
    },
    {
      "anonymous": false,
      "inputs": [
        {
          "indexed": true,
          "internalType": "address",
          "name": "from",
          "type": "address"
        },
        {
          "indexed": true,
          "internalType": "address",
          "name": "to",
          "type": "address"
        },
        {
          "indexed": false,
          "internalType": "uint256",
          "name": "value",
          "type": "uint256"
        }
      ],
      "name": "Transfer",
      "type": "event"
    },
    {
      "inputs": [],
      "name": "FACTORY",
      "outputs": [
        {
          "internalType": "address",
          "name": "",
          "type": "address"
        }
      ],
      "stateMutability": "view",
      "type": "function"
    },
    {
      "inputs": [],
      "name": "TOKEN",
      "outputs": [
        {
          "internalType": "address",
          "name": "",
          "type": "address"
        }
      ],
      "stateMutability": "view",
      "type": "function"
    },
    {
      "inputs": [
        {
          "internalType": "address",
          "name": "owner",
          "type": "address"
        },
        {
          "internalType": "address",
          "name": "spender",
          "type": "address"
        }
      ],
      "name": "allowance",
      "outputs": [
        {
          "internalType": "uint256",
          "name": "",
          "type": "uint256"
        }
      ],
      "stateMutability": "view",
      "type": "function"
    },
    {
      "inputs": [
        {
          "internalType": "address",
          "name": "spender",
          "type": "address"
        },
        {
          "internalType": "uint256",
          "name": "amount",
          "type": "uint256"
        }
      ],
      "name": "approve",
      "outputs": [
        {
          "internalType": "bool",
          "name": "",
          "type": "bool"
        }
      ],
      "stateMutability": "nonpayable",
      "type": "function"
    },
    {
      "inputs": [
        {
          "internalType": "address",
          "name": "recipient",
          "type": "address"
        },
        {
          "internalType": "uint256",
          "name": "amount",
          "type": "uint256"
        },
        {
          "internalType": "bytes",
          "name": "data",
          "type": "bytes"
        }
      ],
      "name": "approveAndCall",
      "outputs": [
        {
          "internalType": "bool",
          "name": "",
          "type": "bool"
        }
      ],
      "stateMutability": "nonpayable",
      "type": "function"
    },
    {
      "inputs": [
        {
          "internalType": "address",
          "name": "account",
          "type": "address"
        }
      ],
      "name": "balanceOf",
      "outputs": [
        {
          "internalType": "uint256",
          "name": "",
          "type": "uint256"
        }
      ],
      "stateMutability": "view",
      "type": "function"
    },
    {
      "inputs": [
        {
          "internalType": "uint256",
          "name": "amount",
          "type": "uint256"
        }
      ],
      "name": "burn",
      "outputs": [],
      "stateMutability": "nonpayable",
      "type": "function"
    },
    {
      "inputs": [
        {
          "internalType": "address",
          "name": "account",
          "type": "address"
        },
        {
          "internalType": "uint256",
          "name": "amount",
          "type": "uint256"
        }
      ],
      "name": "burnFrom",
      "outputs": [],
      "stateMutability": "nonpayable",
      "type": "function"
    },
    {
      "inputs": [],
      "name": "decimals",
      "outputs": [
        {
          "internalType": "uint8",
          "name": "",
          "type": "uint8"
        }
      ],
      "stateMutability": "view",
      "type": "function"
    },
    {
      "inputs": [
        {
          "internalType": "address",
          "name": "spender",
          "type": "address"
        },
        {
          "internalType": "uint256",
          "name": "subtractedValue",
          "type": "uint256"
        }
      ],
      "name": "decreaseAllowance",
      "outputs": [
        {
          "internalType": "bool",
          "name": "",
          "type": "bool"
        }
      ],
      "stateMutability": "nonpayable",
      "type": "function"
    },
    {
      "inputs": [
        {
          "internalType": "address",
          "name": "spender",
          "type": "address"
        },
        {
          "internalType": "uint256",
          "name": "addedValue",
          "type": "uint256"
        }
      ],
      "name": "increaseAllowance",
      "outputs": [
        {
          "internalType": "bool",
          "name": "",
          "type": "bool"
        }
      ],
      "stateMutability": "nonpayable",
      "type": "function"
    },
    {
      "inputs": [
        {
          "internalType": "address",
          "name": "account",
          "type": "address"
        },
        {
          "internalType": "uint256",
          "name": "amount",
          "type": "uint256"
        }
      ],
      "name": "mint",
      "outputs": [],
      "stateMutability": "nonpayable",
      "type": "function"
    },
    {
      "inputs": [],
      "name": "name",
      "outputs": [
        {
          "internalType": "string",
          "name": "",
          "type": "string"
        }
      ],
      "stateMutability": "view",
      "type": "function"
    },
    {
      "inputs": [],
      "name": "symbol",
      "outputs": [
        {
          "internalType": "string",
          "name": "",
          "type": "string"
        }
      ],
      "stateMutability": "view",
      "type": "function"
    },
    {
      "inputs": [],
      "name": "totalSupply",
      "outputs": [
        {
          "internalType": "uint256",
          "name": "",
          "type": "uint256"
        }
      ],
      "stateMutability": "view",
      "type": "function"
    },
    {
      "inputs": [
        {
          "internalType": "address",
          "name": "recipient",
          "type": "address"
        },
        {
          "internalType": "uint256",
          "name": "amount",
          "type": "uint256"
        }
      ],
      "name": "transfer",
      "outputs": [
        {
          "internalType": "bool",
          "name": "",
          "type": "bool"
        }
      ],
      "stateMutability": "nonpayable",
      "type": "function"
    },
    {
      "inputs": [
        {
          "internalType": "address",
          "name": "recipient",
          "type": "address"
        },
        {
          "internalType": "uint256",
          "name": "amount",
          "type": "uint256"
        },
        {
          "internalType": "bytes",
          "name": "data",
          "type": "bytes"
        }
      ],
      "name": "transferAndCall",
      "outputs": [
        {
          "internalType": "bool",
          "name": "",
          "type": "bool"
        }
      ],
      "stateMutability": "nonpayable",
      "type": "function"
    },
    {
      "inputs": [
        {
          "internalType": "address",
          "name": "sender",
          "type": "address"
        },
        {
          "internalType": "address",
          "name": "recipient",
          "type": "address"
        },
        {
          "internalType": "uint256",
          "name": "amount",
          "type": "uint256"
        }
      ],
      "name": "transferFrom",
      "outputs": [
        {
          "internalType": "bool",
          "name": "",
          "type": "bool"
        }
      ],
      "stateMutability": "nonpayable",
      "type": "function"
    }
  ],
  "bytecode": "0x60c06040523480156200001157600080fd5b5060405162001266380380620012668339810160408190526200003491620002a7565b606081811b6001600160601b03191660a05233901b60805260408051808201825260098152680405a40eca6f2dce8d60bb1b602082810191909152825180840184526002815261173b60f11b9181019190915282516306fdde0360e01b81529251919290916001600160a01b038516916306fdde03916004808301926000929190829003018186803b158015620000ca57600080fd5b505afa158015620000df573d6000803e3d6000fd5b505050506040513d6000823e601f3d908101601f19168201604052620001099190810190620002d7565b826040516020016200011d9291906200038b565b604051602081830303815290604052600090805190602001906200014392919062000201565b50826001600160a01b03166395d89b416040518163ffffffff1660e01b815260040160006040518083038186803b1580156200017e57600080fd5b505afa15801562000193573d6000803e3d6000fd5b505050506040513d6000823e601f3d908101601f19168201604052620001bd9190810190620002d7565b81604051602001620001d19291906200038b565b60405160208183030381529060405260019080519060200190620001f792919062000201565b5050505062000444565b8280546200020f90620003f1565b90600052602060002090601f0160209004810192826200023357600085556200027e565b82601f106200024e57805160ff19168380011785556200027e565b828001600101855582156200027e579182015b828111156200027e57825182559160200191906001019062000261565b506200028c92915062000290565b5090565b5b808211156200028c576000815560010162000291565b600060208284031215620002b9578081fd5b81516001600160a01b0381168114620002d0578182fd5b9392505050565b600060208284031215620002e9578081fd5b81516001600160401b038082111562000300578283fd5b818401915084601f83011262000314578283fd5b8151818111156200032957620003296200042e565b604051601f8201601f19908116603f011681019083821181831017156200035457620003546200042e565b816040528281528760208487010111156200036d578586fd5b62000380836020830160208801620003be565b979650505050505050565b600083516200039f818460208801620003be565b835190830190620003b5818360208801620003be565b01949350505050565b60005b83811015620003db578181015183820152602001620003c1565b83811115620003eb576000848401525b50505050565b600181811c908216806200040657607f821691505b602082108114156200042857634e487b7160e01b600052602260045260246000fd5b50919050565b634e487b7160e01b600052604160045260246000fd5b60805160601c60a05160601c610def62000477600039600061025801526000818161018b015261051b0152610def6000f3fe608060405234801561001057600080fd5b50600436106101165760003560e01c806342966c68116100a257806395d89b411161007157806395d89b411461027a578063a457c2d714610282578063a9059cbb14610295578063cae9ca51146102a8578063dd62ed3e146102bb57610116565b806342966c681461021a57806370a082311461022d57806379cc67901461024057806382bfefc81461025357610116565b80632dd31000116100e95780632dd3100014610186578063313ce567146101c557806339509351146101df5780634000aea0146101f257806340c10f191461020557610116565b806306fdde031461011b578063095ea7b31461013957806318160ddd1461015c57806323b872dd14610173575b600080fd5b6101236102f4565b6040516101309190610ce6565b60405180910390f35b61014c610147366004610bd2565b610382565b6040519015158152602001610130565b61016560025481565b604051908152602001610130565b61014c610181366004610b97565b610398565b6101ad7f000000000000000000000000000000000000000000000000000000000000000081565b6040516001600160a01b039091168152602001610130565b6101cd601281565b60405160ff9091168152602001610130565b61014c6101ed366004610bd2565b61045b565b61014c610200366004610bfb565b610492565b610218610213366004610bd2565b610510565b005b610218610228366004610c7d565b61063f565b61016561023b366004610b44565b61064c565b61021861024e366004610bd2565b61066b565b6101ad7f000000000000000000000000000000000000000000000000000000000000000081565b6101236106b6565b61014c610290366004610bd2565b6106c3565b61014c6102a3366004610bd2565b610736565b61014c6102b6366004610bfb565b610743565b6101656102c9366004610b65565b6001600160a01b03918216600090815260046020908152604080832093909416825291909152205490565b6000805461030190610d68565b80601f016020809104026020016040519081016040528092919081815260200182805461032d90610d68565b801561037a5780601f1061034f5761010080835404028352916020019161037a565b820191906000526020600020905b81548152906001019060200180831161035d57829003601f168201915b505050505081565b600061038f338484610784565b50600192915050565b60006103a5848484610894565b6001600160a01b03841660009081526004602090815260408083203384529091529020546000191115610451576001600160a01b03841660009081526004602090815260408083203384529091529020548281101561043b5760405162461bcd60e51b815260206004820152600d60248201526c30b63637bbb0b731b29032b93960991b60448201526064015b60405180910390fd5b61044f853361044a8685610d51565b610784565b505b5060019392505050565b3360008181526004602090815260408083206001600160a01b0387168452909152812054909161038f91859061044a908690610d39565b600061049f338686610894565b60405163cf4d253560e01b81526001600160a01b0386169063cf4d2535906104d39030908890339089908990600401610c95565b600060405180830381600087803b1580156104ed57600080fd5b505af1158015610501573d6000803e3d6000fd5b50600198975050505050505050565b336001600160a01b037f000000000000000000000000000000000000000000000000000000000000000016146105735760405162461bcd60e51b815260206004820152600860248201526721464143544f525960c01b6044820152606401610432565b6001600160a01b0382166105b55760405162461bcd60e51b81526020600482015260096024820152681c9958da5c1a595b9d60ba1b6044820152606401610432565b80600260008282546105c79190610d39565b90915550506001600160a01b038216600090815260036020526040812080548392906105f4908490610d39565b90915550506040518181526001600160a01b038316906000907fddf252ad1be2c89b69c2b068fc378daa952ba7f163c4a11628f55a4df523b3ef906020015b60405180910390a35050565b6106493382610a0f565b50565b6001600160a01b0381166000908152600360205260409020545b919050565b6001600160a01b038216600090815260046020908152604080832033845290915281205461069a908390610d51565b90506106a7833383610784565b6106b18383610a0f565b505050565b6001805461030190610d68565b3360009081526004602090815260408083206001600160a01b0386168452909152812054828110156107275760405162461bcd60e51b815260206004820152600d60248201526c30b63637bbb0b731b29032b93960991b6044820152606401610432565b610451338561044a8685610d51565b600061038f338484610894565b6000610750338686610784565b604051631ac562a760e01b81526001600160a01b03861690631ac562a7906104d39030908890339089908990600401610c95565b6001600160a01b0383166107c35760405162461bcd60e51b815260206004820152600660248201526539b2b73232b960d11b6044820152606401610432565b6001600160a01b0382166108035760405162461bcd60e51b815260206004820152600760248201526639b832b73232b960c91b6044820152606401610432565b6001600160a01b0380841660009081526004602090815260408083209386168352929052205460001911156106b1576001600160a01b0383811660008181526004602090815260408083209487168084529482529182902085905590518481527f8c5be1e5ebec7d5bd14f71427d1e84f3dd0314c0f7b2291e5b200ac8c7c3b92591015b60405180910390a3505050565b6001600160a01b0383166108d35760405162461bcd60e51b815260206004820152600660248201526539b2b73232b960d11b6044820152606401610432565b6001600160a01b0382163014156109185760405162461bcd60e51b81526020600482015260096024820152681c9958da5c1a595b9d60ba1b6044820152606401610432565b6001600160a01b03831660009081526003602052604090205481111561096e5760405162461bcd60e51b815260206004820152600b60248201526a3130b630b731b29032b93960a91b6044820152606401610432565b6001600160a01b03831660009081526003602052604081208054839290610996908490610d51565b90915550506001600160a01b038216600090815260036020526040812080548392906109c3908490610d39565b92505081905550816001600160a01b0316836001600160a01b03167fddf252ad1be2c89b69c2b068fc378daa952ba7f163c4a11628f55a4df523b3ef8360405161088791815260200190565b6001600160a01b038216610a535760405162461bcd60e51b815260206004820152600b60248201526a30b2323932b9b99032b93960a91b6044820152606401610432565b6001600160a01b038216600090815260036020526040902054811115610aa95760405162461bcd60e51b815260206004820152600b60248201526a3130b630b731b29032b93960a91b6044820152606401610432565b6001600160a01b03821660009081526003602052604081208054839290610ad1908490610d51565b925050819055508060026000828254610aea9190610d51565b90915550506040518181526000906001600160a01b038416907fddf252ad1be2c89b69c2b068fc378daa952ba7f163c4a11628f55a4df523b3ef90602001610633565b80356001600160a01b038116811461066657600080fd5b600060208284031215610b55578081fd5b610b5e82610b2d565b9392505050565b60008060408385031215610b77578081fd5b610b8083610b2d565b9150610b8e60208401610b2d565b90509250929050565b600080600060608486031215610bab578081fd5b610bb484610b2d565b9250610bc260208501610b2d565b9150604084013590509250925092565b60008060408385031215610be4578182fd5b610bed83610b2d565b946020939093013593505050565b60008060008060608587031215610c10578081fd5b610c1985610b2d565b935060208501359250604085013567ffffffffffffffff80821115610c3c578283fd5b818701915087601f830112610c4f578283fd5b813581811115610c5d578384fd5b886020828501011115610c6e578384fd5b95989497505060200194505050565b600060208284031215610c8e578081fd5b5035919050565b6001600160a01b038681168252602082018690528416604082015260806060820181905281018290526000828460a084013781830160a090810191909152601f909201601f19160101949350505050565b6000602080835283518082850152825b81811015610d1257858101830151858201604001528201610cf6565b81811115610d235783604083870101525b50601f01601f1916929092016040019392505050565b60008219821115610d4c57610d4c610da3565b500190565b600082821015610d6357610d63610da3565b500390565b600181811c90821680610d7c57607f821691505b60208210811415610d9d57634e487b7160e01b600052602260045260246000fd5b50919050565b634e487b7160e01b600052601160045260246000fdfea2646970667358221220d350a7e5c939d1ebfbcd3f144cc2befb4c5b7093474c1ac88e1f0d033979543564736f6c63430008030033",
  "linkReferences": {},
  "deployedLinkReferences": {}
}