{
  "_format": "hh-sol-artifact-1",
  "contractName": "Vault",
  "sourceName": "contracts/Vault.sol",
  "abi": [
    {
      "inputs": [
        {
          "internalType": "address",
          "name": "_vader",
          "type": "address"
        }
      ],
      "stateMutability": "nonpayable",
      "type": "constructor"
    },
    {
      "anonymous": false,
      "inputs": [
        {
          "indexed": true,
          "internalType": "address",
          "name": "asset",
          "type": "address"
        },
        {
          "indexed": false,
          "internalType": "uint256",
          "name": "reward",
          "type": "uint256"
        }
      ],
      "name": "Harvests",
      "type": "event"
    },
    {
      "anonymous": false,
      "inputs": [
        {
          "indexed": true,
          "internalType": "address",
          "name": "asset",
          "type": "address"
        },
        {
          "indexed": true,
          "internalType": "address",
          "name": "member",
          "type": "address"
        },
        {
          "indexed": false,
          "internalType": "uint256",
          "name": "amount",
          "type": "uint256"
        },
        {
          "indexed": false,
          "internalType": "uint256",
          "name": "weight",
          "type": "uint256"
        },
        {
          "indexed": false,
          "internalType": "uint256",
          "name": "totalWeight",
          "type": "uint256"
        }
      ],
      "name": "MemberDeposits",
      "type": "event"
    },
    {
      "anonymous": false,
      "inputs": [
        {
          "indexed": true,
          "internalType": "address",
          "name": "asset",
          "type": "address"
        },
        {
          "indexed": true,
          "internalType": "address",
          "name": "member",
          "type": "address"
        },
        {
          "indexed": false,
          "internalType": "uint256",
          "name": "amount",
          "type": "uint256"
        },
        {
          "indexed": false,
          "internalType": "uint256",
          "name": "weight",
          "type": "uint256"
        },
        {
          "indexed": false,
          "internalType": "uint256",
          "name": "totalWeight",
          "type": "uint256"
        }
      ],
      "name": "MemberWithdraws",
      "type": "event"
    },
    {
      "inputs": [],
      "name": "UTILS",
      "outputs": [
        {
          "internalType": "address",
          "name": "",
          "type": "address"
        }
      ],
      "stateMutability": "view",
      "type": "function"
    },
    {
      "inputs": [],
      "name": "VADER",
      "outputs": [
        {
          "internalType": "address",
          "name": "",
          "type": "address"
        }
      ],
      "stateMutability": "view",
      "type": "function"
    },
    {
      "inputs": [
        {
          "internalType": "address",
          "name": "asset",
          "type": "address"
        },
        {
          "internalType": "address",
          "name": "member",
          "type": "address"
        }
      ],
      "name": "calcDepositValueForMember",
      "outputs": [
        {
          "internalType": "uint256",
          "name": "value",
          "type": "uint256"
        }
      ],
      "stateMutability": "view",
      "type": "function"
    },
    {
      "inputs": [
        {
          "internalType": "address",
          "name": "asset",
          "type": "address"
        }
      ],
      "name": "calcRewardForAsset",
      "outputs": [
        {
          "internalType": "uint256",
          "name": "reward",
          "type": "uint256"
        }
      ],
      "stateMutability": "view",
      "type": "function"
    },
    {
      "inputs": [
        {
          "internalType": "address",
          "name": "asset",
          "type": "address"
        },
        {
          "internalType": "uint256",
          "name": "amount",
          "type": "uint256"
        }
      ],
      "name": "deposit",
      "outputs": [
        {
          "internalType": "uint256",
          "name": "",
          "type": "uint256"
        }
      ],
      "stateMutability": "nonpayable",
      "type": "function"
    },
    {
      "inputs": [
        {
          "internalType": "address",
          "name": "asset",
          "type": "address"
        },
        {
          "internalType": "address",
          "name": "member",
          "type": "address"
        },
        {
          "internalType": "uint256",
          "name": "amount",
          "type": "uint256"
        }
      ],
      "name": "depositForMember",
      "outputs": [
        {
          "internalType": "uint256",
          "name": "",
          "type": "uint256"
        }
      ],
      "stateMutability": "nonpayable",
      "type": "function"
    },
    {
      "inputs": [
        {
          "internalType": "address",
          "name": "asset",
          "type": "address"
        }
      ],
      "name": "getAssetDeposit",
      "outputs": [
        {
          "internalType": "uint256",
          "name": "",
          "type": "uint256"
        }
      ],
      "stateMutability": "view",
      "type": "function"
    },
    {
      "inputs": [
        {
          "internalType": "address",
          "name": "asset",
          "type": "address"
        }
      ],
      "name": "getAssetLastTime",
      "outputs": [
        {
          "internalType": "uint256",
          "name": "",
          "type": "uint256"
        }
      ],
      "stateMutability": "view",
      "type": "function"
    },
    {
      "inputs": [
        {
          "internalType": "address",
          "name": "member",
          "type": "address"
        },
        {
          "internalType": "address",
          "name": "asset",
          "type": "address"
        }
      ],
      "name": "getMemberDeposit",
      "outputs": [
        {
          "internalType": "uint256",
          "name": "",
          "type": "uint256"
        }
      ],
      "stateMutability": "view",
      "type": "function"
    },
    {
      "inputs": [
        {
          "internalType": "address",
          "name": "member",
          "type": "address"
        },
        {
          "internalType": "address",
          "name": "asset",
          "type": "address"
        }
      ],
      "name": "getMemberLastTime",
      "outputs": [
        {
          "internalType": "uint256",
          "name": "",
          "type": "uint256"
        }
      ],
      "stateMutability": "view",
      "type": "function"
    },
    {
      "inputs": [
        {
          "internalType": "address",
          "name": "member",
          "type": "address"
        }
      ],
      "name": "getMemberWeight",
      "outputs": [
        {
          "internalType": "uint256",
          "name": "",
          "type": "uint256"
        }
      ],
      "stateMutability": "view",
      "type": "function"
    },
    {
      "inputs": [
        {
          "internalType": "address",
          "name": "asset",
          "type": "address"
        }
      ],
      "name": "harvest",
      "outputs": [
        {
          "internalType": "uint256",
          "name": "reward",
          "type": "uint256"
        }
      ],
      "stateMutability": "nonpayable",
      "type": "function"
    },
    {
      "inputs": [],
      "name": "minimumDepositTime",
      "outputs": [
        {
          "internalType": "uint256",
          "name": "",
          "type": "uint256"
        }
      ],
      "stateMutability": "view",
      "type": "function"
    },
    {
      "inputs": [],
      "name": "reserveUSDV",
      "outputs": [
        {
          "internalType": "uint256",
          "name": "",
          "type": "uint256"
        }
      ],
      "stateMutability": "view",
      "type": "function"
    },
    {
      "inputs": [],
      "name": "reserveVADER",
      "outputs": [
        {
          "internalType": "uint256",
          "name": "",
          "type": "uint256"
        }
      ],
      "stateMutability": "view",
      "type": "function"
    },
    {
      "inputs": [
        {
          "internalType": "uint256",
          "name": "newDepositTime",
          "type": "uint256"
        }
      ],
      "name": "setParams",
      "outputs": [],
      "stateMutability": "nonpayable",
      "type": "function"
    },
    {
      "inputs": [],
      "name": "totalWeight",
      "outputs": [
        {
          "internalType": "uint256",
          "name": "",
          "type": "uint256"
        }
      ],
      "stateMutability": "view",
      "type": "function"
    },
    {
      "inputs": [
        {
          "internalType": "address",
          "name": "asset",
          "type": "address"
        },
        {
          "internalType": "uint256",
          "name": "basisPoints",
          "type": "uint256"
        }
      ],
      "name": "withdraw",
      "outputs": [
        {
          "internalType": "uint256",
          "name": "redeemedAmount",
          "type": "uint256"
        }
      ],
      "stateMutability": "nonpayable",
      "type": "function"
    },
    {
      "inputs": [
        {
          "internalType": "address",
          "name": "asset",
          "type": "address"
        },
        {
          "internalType": "uint256",
          "name": "basisPoints",
          "type": "uint256"
        }
      ],
      "name": "withdrawToVader",
      "outputs": [
        {
          "internalType": "uint256",
          "name": "redeemedAmount",
          "type": "uint256"
        }
      ],
      "stateMutability": "nonpayable",
      "type": "function"
    }
  ],
  "bytecode": "0x60a060405234801561001057600080fd5b50604051611ed9380380611ed983398101604081905261002f91610049565b60601b6001600160601b0319166080526001600055610077565b60006020828403121561005a578081fd5b81516001600160a01b0381168114610070578182fd5b9392505050565b60805160601c611e0c6100cd6000396000818161012b015281816107670152818161081201528181610d110152818161106901528181611134015281816111ff0152818161178501526117e00152611e0c6000f3fe608060405234801561001057600080fd5b50600436106101215760003560e01c806359ded210116100ad5780638dfa9bcc116100715780638dfa9bcc146102b957806396c82e57146102f2578063bf58d0ef146102fb578063de6ad44e1461030e578063f3fef3a31461031657610121565b806359ded2101461025857806362cea3401461026d5780637125e3801461027557806379abc5871461029e5780637b0e5c45146102b157610121565b80630e5c011e116100f45780630e5c011e146101e35780634136aad2146101f657806347e7ef24146102095780635364df491461021c5780635499ff7c1461024557610121565b8063016813151461012657806301ced9571461016a57806302d0e1ae146101a1578063036e21e5146101da575b600080fd5b61014d7f000000000000000000000000000000000000000000000000000000000000000081565b6040516001600160a01b0390911681526020015b60405180910390f35b610193610178366004611c0f565b6001600160a01b031660009081526004602052604090205490565b604051908152602001610161565b6101936101af366004611c47565b6001600160a01b03918216600090815260076020908152604080832093909416825291909152205490565b61019360005481565b6101936101f1366004611c0f565b610329565b610193610204366004611cbf565b61068b565b610193610217366004611cbf565b61089d565b61019361022a366004611c0f565b6001600160a01b031660009081526005602052604090205490565b610193610253366004611c47565b6108b1565b61026b610266366004611d0a565b610987565b005b6101936109e6565b610193610283366004611c0f565b6001600160a01b031660009081526002602052604090205490565b6101936102ac366004611c0f565b610a65565b61014d610d0d565b6101936102c7366004611c47565b6001600160a01b03918216600090815260066020908152604080832093909416825291909152205490565b61019360015481565b610193610309366004611c7f565b610e10565b610193610f93565b610193610324366004611cbf565b610fd5565b600061033482610a65565b905061033e611065565b6001600160a01b0316826001600160a01b031614156104015761035f611130565b6001600160a01b0316636a529026610375611065565b6040516001600160e01b031960e084901b1681526001600160a01b03909116600482015230602482015260448101849052606401602060405180830381600087803b1580156103c357600080fd5b505af11580156103d7573d6000803e3d6000fd5b505050506040513d601f19601f820116820180604052508101906103fb9190611d22565b506105b8565b610409611130565b6001600160a01b0316636a52902661041f611065565b6104276111fb565b6040516001600160e01b031960e085901b1681526001600160a01b0392831660048201529116602482015260448101849052606401602060405180830381600087803b15801561047657600080fd5b505af115801561048a573d6000803e3d6000fd5b505050506040513d601f19601f820116820180604052508101906104ae9190611d22565b506104b76111fb565b6001600160a01b0316635c537386836001600160a01b03166382bfefc86040518163ffffffff1660e01b815260040160206040518083038186803b1580156104fe57600080fd5b505afa158015610512573d6000803e3d6000fd5b505050506040513d601f19601f820116820180604052508101906105369190611c2b565b6040516001600160e01b031960e084901b1681526001600160a01b039091166004820152306024820152604401602060405180830381600087803b15801561057d57600080fd5b505af1158015610591573d6000803e3d6000fd5b505050506040513d601f19601f820116820180604052508101906105b59190611d22565b90505b6040516370a0823160e01b81523060048201526001600160a01b038316906370a082319060240160206040518083038186803b1580156105f757600080fd5b505afa15801561060b573d6000803e3d6000fd5b505050506040513d601f19601f8201168201806040525081019061062f9190611d22565b6001600160a01b038316600081815260036020526040908190209290925590517fee9a13edca6b09b07abc1d48950ce1080232d7dfe023d3f688cd11b50dd263319061067e9084815260200190565b60405180910390a2919050565b60006106988333846112c6565b90506106a2611065565b6001600160a01b0316836001600160a01b031614610748576106c26111fb565b604051631abfe51560e21b81526001600160a01b0385811660048301523060248301529190911690636aff945490604401602060405180830381600087803b15801561070d57600080fd5b505af1158015610721573d6000803e3d6000fd5b505050506040513d601f19601f820116820180604052508101906107459190611d22565b90505b610750611065565b60405163095ea7b360e01b81526001600160a01b037f0000000000000000000000000000000000000000000000000000000000000000811660048301526000196024830152919091169063095ea7b390604401602060405180830381600087803b1580156107bd57600080fd5b505af11580156107d1573d6000803e3d6000fd5b505050506040513d601f19601f820116820180604052508101906107f59190611cea565b506040516320fc475760e11b8152336004820152602481018290527f00000000000000000000000000000000000000000000000000000000000000006001600160a01b0316906341f88eae90604401602060405180830381600087803b15801561085e57600080fd5b505af1158015610872573d6000803e3d6000fd5b505050506040513d601f19601f820116820180604052508101906108969190611d22565b5092915050565b60006108aa833384610e10565b9392505050565b6001600160a01b03808216600090815260066020908152604080832093861683529281528282205460028252838320546003909252928220549192916108f5610d0d565b6040516306e8c9b160e21b81526004810185905260248101849052604481018390526001600160a01b039190911690631ba326c49060640160206040518083038186803b15801561094557600080fd5b505afa158015610959573d6000803e3d6000fd5b505050506040513d601f19601f8201168201806040525081019061097d9190611d22565b9695505050505050565b61098f611781565b6001600160a01b0316336001600160a01b0316146109e15760405162461bcd60e51b81526004016109d8906020808252600490820152632144414f60e01b604082015260600190565b60405180910390fd5b600055565b60006109f0611130565b6001600160a01b03166362cea3406040518163ffffffff1660e01b815260040160206040518083038186803b158015610a2857600080fd5b505afa158015610a3c573d6000803e3d6000fd5b505050506040513d601f19601f82011682018060405250810190610a609190611d22565b905090565b600080610a70611130565b6001600160a01b031663d9ded2cc6040518163ffffffff1660e01b815260040160206040518083038186803b158015610aa857600080fd5b505afa158015610abc573d6000803e3d6000fd5b505050506040513d601f19601f82011682018060405250810190610ae09190611d22565b90506000610aef600183611d52565b6001600160a01b0385166000908152600460205260409020549091508190610b179042611d91565b610b219190611d72565b925081831115610b2f578192505b6001600160a01b038416600090815260026020526040902054610b50611065565b6001600160a01b0316856001600160a01b031614610c7057610b70610d0d565b6001600160a01b031663db39dc79866001600160a01b03166382bfefc86040518163ffffffff1660e01b815260040160206040518083038186803b158015610bb757600080fd5b505afa158015610bcb573d6000803e3d6000fd5b505050506040513d601f19601f82011682018060405250810190610bef9190611c2b565b6040516001600160e01b031960e084901b1681526001600160a01b0390911660048201526024810184905260440160206040518083038186803b158015610c3557600080fd5b505afa158015610c49573d6000803e3d6000fd5b505050506040513d601f19601f82011682018060405250810190610c6d9190611d22565b90505b610c78610d0d565b6001546040516306e8c9b160e21b8152600481018490526024810191909152604481018690526001600160a01b039190911690631ba326c49060640160206040518083038186803b158015610ccc57600080fd5b505afa158015610ce0573d6000803e3d6000fd5b505050506040513d601f19601f82011682018060405250810190610d049190611d22565b95945050505050565b60007f00000000000000000000000000000000000000000000000000000000000000006001600160a01b03166398fabd3a6040518163ffffffff1660e01b815260040160206040518083038186803b158015610d6857600080fd5b505afa158015610d7c573d6000803e3d6000fd5b505050506040513d601f19601f82011682018060405250810190610da09190611c2b565b6001600160a01b0316637b0e5c456040518163ffffffff1660e01b815260040160206040518083038186803b158015610dd857600080fd5b505afa158015610dec573d6000803e3d6000fd5b505050506040513d601f19601f82011682018060405250810190610a609190611c2b565b6000610e1a6117dc565b604051632f011bf560e11b81526001600160a01b0386811660048301529190911690635e0237ea9060240160206040518083038186803b158015610e5d57600080fd5b505afa158015610e71573d6000803e3d6000fd5b505050506040513d601f19601f82011682018060405250810190610e959190611cea565b80610eb85750610ea3611065565b6001600160a01b0316846001600160a01b0316145b610ef15760405162461bcd60e51b815260206004820152600a6024820152690854195c9b5a5d1d195960b21b60448201526064016109d8565b6040516323b872dd60e01b8152336004820152306024820152604481018390526001600160a01b038516906323b872dd90606401602060405180830381600087803b158015610f3f57600080fd5b505af1158015610f53573d6000803e3d6000fd5b505050506040513d601f19601f82011682018060405250810190610f779190611cea565b610f8057600080fd5b610f8b8484846118a7565b949350505050565b6000610f9d611130565b6001600160a01b031663de6ad44e6040518163ffffffff1660e01b815260040160206040518083038186803b158015610a2857600080fd5b6000610fe28333846112c6565b60405163a9059cbb60e01b8152336004820152602481018290529091506001600160a01b0384169063a9059cbb90604401602060405180830381600087803b15801561102d57600080fd5b505af1158015611041573d6000803e3d6000fd5b505050506040513d601f19601f820116820180604052508101906108969190611cea565b60007f00000000000000000000000000000000000000000000000000000000000000006001600160a01b03166398fabd3a6040518163ffffffff1660e01b815260040160206040518083038186803b1580156110c057600080fd5b505afa1580156110d4573d6000803e3d6000fd5b505050506040513d601f19601f820116820180604052508101906110f89190611c2b565b6001600160a01b031663e2c3b0466040518163ffffffff1660e01b815260040160206040518083038186803b158015610dd857600080fd5b60007f00000000000000000000000000000000000000000000000000000000000000006001600160a01b03166398fabd3a6040518163ffffffff1660e01b815260040160206040518083038186803b15801561118b57600080fd5b505afa15801561119f573d6000803e3d6000fd5b505050506040513d601f19601f820116820180604052508101906111c39190611c2b565b6001600160a01b0316639d2cc4366040518163ffffffff1660e01b815260040160206040518083038186803b158015610dd857600080fd5b60007f00000000000000000000000000000000000000000000000000000000000000006001600160a01b03166398fabd3a6040518163ffffffff1660e01b815260040160206040518083038186803b15801561125657600080fd5b505afa15801561126a573d6000803e3d6000fd5b505050506040513d601f19601f8201168201806040525081019061128e9190611c2b565b6001600160a01b031663ebccb5b26040518163ffffffff1660e01b815260040160206040518083038186803b158015610dd857600080fd5b600080546001600160a01b03808516835260076020908152604080852092881685529190528220546112f89042611d91565b10156113345760405162461bcd60e51b815260206004820152600b60248201526a4465706f73697454696d6560a81b60448201526064016109d8565b61133c610d0d565b6001600160a01b031663714270ab8361135587876108b1565b6040516001600160e01b031960e085901b1681526004810192909252602482015260440160206040518083038186803b15801561139157600080fd5b505afa1580156113a5573d6000803e3d6000fd5b505050506040513d601f19601f820116820180604052508101906113c99190611d22565b90506113d3610d0d565b6001600160a01b03848116600090815260066020908152604080832089851684529091529081902054905163714270ab60e01b815260048101869052602481019190915291169063714270ab9060440160206040518083038186803b15801561143b57600080fd5b505afa15801561144f573d6000803e3d6000fd5b505050506040513d601f19601f820116820180604052508101906114739190611d22565b6001600160a01b038085166000908152600660209081526040808320938916835292905290812080549091906114aa908490611d91565b909155508190506114b9611065565b6001600160a01b0316856001600160a01b031614611686576114d9610d0d565b6001600160a01b031663db39dc79866001600160a01b03166382bfefc86040518163ffffffff1660e01b815260040160206040518083038186803b15801561152057600080fd5b505afa158015611534573d6000803e3d6000fd5b505050506040513d601f19601f820116820180604052508101906115589190611c2b565b6040516001600160e01b031960e084901b1681526001600160a01b0390911660048201526024810185905260440160206040518083038186803b15801561159e57600080fd5b505afa1580156115b2573d6000803e3d6000fd5b505050506040513d601f19601f820116820180604052508101906115d69190611d22565b6001600160a01b0385166000908152600560205260409020549091506115fa610d0d565b6040516306e8c9b160e21b81526004810184905260248101839052604481018390526001600160a01b039190911690631ba326c49060640160206040518083038186803b15801561164a57600080fd5b505afa15801561165e573d6000803e3d6000fd5b505050506040513d601f19601f820116820180604052508101906116829190611d22565b9150505b6001600160a01b038416600090815260056020526040812080548392906116ae908490611d91565b9250508190555080600160008282546116c79190611d91565b9091555050600154604080518481526020810184905280820192909252516001600160a01b0386811692908816917f28b0a5e71db5b0ceb9e9edc3f89a0763709f773d717a2dcfd7851977f805ea7a9181900360600190a3611727611130565b6001600160a01b031663e1ac7cfe6040518163ffffffff1660e01b8152600401600060405180830381600087803b15801561176157600080fd5b505af1158015611775573d6000803e3d6000fd5b50505050509392505050565b60007f00000000000000000000000000000000000000000000000000000000000000006001600160a01b03166398fabd3a6040518163ffffffff1660e01b815260040160206040518083038186803b158015610dd857600080fd5b60007f00000000000000000000000000000000000000000000000000000000000000006001600160a01b03166398fabd3a6040518163ffffffff1660e01b815260040160206040518083038186803b15801561183757600080fd5b505afa15801561184b573d6000803e3d6000fd5b505050506040513d601f19601f8201168201806040525081019061186f9190611c2b565b6001600160a01b0316632dd310006040518163ffffffff1660e01b815260040160206040518083038186803b158015610dd857600080fd5b6001600160a01b03808316600081815260076020908152604080832094881680845294825280832042905592825260068152828220938252929092528120805483919083906118f7908490611d3a565b90915550506001600160a01b03841660009081526002602052604081208054849290611924908490611d3a565b90915550506040516370a0823160e01b81523060048201526001600160a01b038516906370a082319060240160206040518083038186803b15801561196857600080fd5b505afa15801561197c573d6000803e3d6000fd5b505050506040513d601f19601f820116820180604052508101906119a09190611d22565b6001600160a01b0385166000908152600360209081526040808320939093556004905220546119e5576001600160a01b03841660009081526004602052604090204290555b6119ed611065565b6001600160a01b0316846001600160a01b03161415611a0d575080611b15565b611a15610d0d565b6001600160a01b031663b80e44b8856001600160a01b03166382bfefc86040518163ffffffff1660e01b815260040160206040518083038186803b158015611a5c57600080fd5b505afa158015611a70573d6000803e3d6000fd5b505050506040513d601f19601f82011682018060405250810190611a949190611c2b565b6040516001600160e01b031960e084901b1681526001600160a01b0390911660048201526024810185905260440160206040518083038186803b158015611ada57600080fd5b505afa158015611aee573d6000803e3d6000fd5b505050506040513d601f19601f82011682018060405250810190611b129190611d22565b90505b6001600160a01b03831660009081526005602052604081208054839290611b3d908490611d3a565b925050819055508060016000828254611b569190611d3a565b9091555050600154604080518481526020810184905280820192909252516001600160a01b0385811692908716917f14cd3bc470910a26ce3f7f4a5649f17759dd61c2d987e6941dc6c34f8bd920a29181900360600190a3611bb6611130565b6001600160a01b031663e1ac7cfe6040518163ffffffff1660e01b8152600401600060405180830381600087803b158015611bf057600080fd5b505af1158015611c04573d6000803e3d6000fd5b505050509392505050565b600060208284031215611c20578081fd5b81356108aa81611dbe565b600060208284031215611c3c578081fd5b81516108aa81611dbe565b60008060408385031215611c59578081fd5b8235611c6481611dbe565b91506020830135611c7481611dbe565b809150509250929050565b600080600060608486031215611c93578081fd5b8335611c9e81611dbe565b92506020840135611cae81611dbe565b929592945050506040919091013590565b60008060408385031215611cd1578182fd5b8235611cdc81611dbe565b946020939093013593505050565b600060208284031215611cfb578081fd5b815180151581146108aa578182fd5b600060208284031215611d1b578081fd5b5035919050565b600060208284031215611d33578081fd5b5051919050565b60008219821115611d4d57611d4d611da8565b500190565b600082611d6d57634e487b7160e01b81526012600452602481fd5b500490565b6000816000190483118215151615611d8c57611d8c611da8565b500290565b600082821015611da357611da3611da8565b500390565b634e487b7160e01b600052601160045260246000fd5b6001600160a01b0381168114611dd357600080fd5b5056fea2646970667358221220520c4b8e1244c2e7127bb8c642d1b1ccec3266a324fa5a4cf3ab2928491be1c764736f6c63430008030033",
  "linkReferences": {},
  "deployedLinkReferences": {}
}