{
  "_format": "hh-sol-artifact-1",
  "contractName": "Pools",
  "sourceName": "contracts/Pools.sol",
  "abi": [
    {
      "inputs": [
        {
          "internalType": "address",
          "name": "_vader",
          "type": "address"
        }
      ],
      "stateMutability": "nonpayable",
      "type": "constructor"
    },
    {
      "anonymous": false,
      "inputs": [
        {
          "indexed": true,
          "internalType": "address",
          "name": "member",
          "type": "address"
        },
        {
          "indexed": true,
          "internalType": "address",
          "name": "base",
          "type": "address"
        },
        {
          "indexed": false,
          "internalType": "uint256",
          "name": "baseAmount",
          "type": "uint256"
        },
        {
          "indexed": true,
          "internalType": "address",
          "name": "token",
          "type": "address"
        },
        {
          "indexed": false,
          "internalType": "uint256",
          "name": "tokenAmount",
          "type": "uint256"
        },
        {
          "indexed": false,
          "internalType": "uint256",
          "name": "liquidityUnits",
          "type": "uint256"
        }
      ],
      "name": "AddLiquidity",
      "type": "event"
    },
    {
      "anonymous": false,
      "inputs": [
        {
          "indexed": true,
          "internalType": "address",
          "name": "member",
          "type": "address"
        },
        {
          "indexed": true,
          "internalType": "address",
          "name": "base",
          "type": "address"
        },
        {
          "indexed": false,
          "internalType": "uint256",
          "name": "baseAmount",
          "type": "uint256"
        },
        {
          "indexed": true,
          "internalType": "address",
          "name": "token",
          "type": "address"
        },
        {
          "indexed": false,
          "internalType": "uint256",
          "name": "synthAmount",
          "type": "uint256"
        }
      ],
      "name": "BurnSynth",
      "type": "event"
    },
    {
      "anonymous": false,
      "inputs": [
        {
          "indexed": true,
          "internalType": "address",
          "name": "member",
          "type": "address"
        },
        {
          "indexed": true,
          "internalType": "address",
          "name": "base",
          "type": "address"
        },
        {
          "indexed": false,
          "internalType": "uint256",
          "name": "baseAmount",
          "type": "uint256"
        },
        {
          "indexed": true,
          "internalType": "address",
          "name": "token",
          "type": "address"
        },
        {
          "indexed": false,
          "internalType": "uint256",
          "name": "synthAmount",
          "type": "uint256"
        }
      ],
      "name": "MintSynth",
      "type": "event"
    },
    {
      "anonymous": false,
      "inputs": [
        {
          "indexed": true,
          "internalType": "address",
          "name": "member",
          "type": "address"
        },
        {
          "indexed": true,
          "internalType": "address",
          "name": "base",
          "type": "address"
        },
        {
          "indexed": false,
          "internalType": "uint256",
          "name": "baseAmount",
          "type": "uint256"
        },
        {
          "indexed": true,
          "internalType": "address",
          "name": "token",
          "type": "address"
        },
        {
          "indexed": false,
          "internalType": "uint256",
          "name": "tokenAmount",
          "type": "uint256"
        },
        {
          "indexed": false,
          "internalType": "uint256",
          "name": "liquidityUnits",
          "type": "uint256"
        },
        {
          "indexed": false,
          "internalType": "uint256",
          "name": "totalUnits",
          "type": "uint256"
        }
      ],
      "name": "RemoveLiquidity",
      "type": "event"
    },
    {
      "anonymous": false,
      "inputs": [
        {
          "indexed": true,
          "internalType": "address",
          "name": "member",
          "type": "address"
        },
        {
          "indexed": true,
          "internalType": "address",
          "name": "inputToken",
          "type": "address"
        },
        {
          "indexed": false,
          "internalType": "uint256",
          "name": "inputAmount",
          "type": "uint256"
        },
        {
          "indexed": true,
          "internalType": "address",
          "name": "outputToken",
          "type": "address"
        },
        {
          "indexed": false,
          "internalType": "uint256",
          "name": "outputAmount",
          "type": "uint256"
        },
        {
          "indexed": false,
          "internalType": "uint256",
          "name": "swapFee",
          "type": "uint256"
        }
      ],
      "name": "Swap",
      "type": "event"
    },
    {
      "anonymous": false,
      "inputs": [
        {
          "indexed": true,
          "internalType": "address",
          "name": "token",
          "type": "address"
        },
        {
          "indexed": true,
          "internalType": "address",
          "name": "pool",
          "type": "address"
        },
        {
          "indexed": false,
          "internalType": "uint256",
          "name": "addedAmount",
          "type": "uint256"
        }
      ],
      "name": "Sync",
      "type": "event"
    },
    {
      "anonymous": false,
      "inputs": [
        {
          "indexed": true,
          "internalType": "address",
          "name": "token",
          "type": "address"
        },
        {
          "indexed": false,
          "internalType": "uint256",
          "name": "burntSynth",
          "type": "uint256"
        },
        {
          "indexed": false,
          "internalType": "uint256",
          "name": "deletedUnits",
          "type": "uint256"
        }
      ],
      "name": "SynthSync",
      "type": "event"
    },
    {
      "inputs": [],
      "name": "UTILS",
      "outputs": [
        {
          "internalType": "address",
          "name": "",
          "type": "address"
        }
      ],
      "stateMutability": "view",
      "type": "function"
    },
    {
      "inputs": [],
      "name": "VADER",
      "outputs": [
        {
          "internalType": "address",
          "name": "",
          "type": "address"
        }
      ],
      "stateMutability": "view",
      "type": "function"
    },
    {
      "inputs": [
        {
          "internalType": "address",
          "name": "base",
          "type": "address"
        },
        {
          "internalType": "address",
          "name": "token",
          "type": "address"
        },
        {
          "internalType": "address",
          "name": "member",
          "type": "address"
        }
      ],
      "name": "addLiquidity",
      "outputs": [
        {
          "internalType": "uint256",
          "name": "liquidityUnits",
          "type": "uint256"
        }
      ],
      "stateMutability": "nonpayable",
      "type": "function"
    },
    {
      "inputs": [
        {
          "internalType": "address",
          "name": "token",
          "type": "address"
        },
        {
          "internalType": "address",
          "name": "member",
          "type": "address"
        }
      ],
      "name": "burnSynth",
      "outputs": [
        {
          "internalType": "uint256",
          "name": "outputBase",
          "type": "uint256"
        }
      ],
      "stateMutability": "nonpayable",
      "type": "function"
    },
    {
      "inputs": [
        {
          "internalType": "address",
          "name": "token",
          "type": "address"
        }
      ],
      "name": "deploySynth",
      "outputs": [],
      "stateMutability": "nonpayable",
      "type": "function"
    },
    {
      "inputs": [
        {
          "internalType": "address",
          "name": "token",
          "type": "address"
        }
      ],
      "name": "getBaseAmount",
      "outputs": [
        {
          "internalType": "uint256",
          "name": "",
          "type": "uint256"
        }
      ],
      "stateMutability": "view",
      "type": "function"
    },
    {
      "inputs": [
        {
          "internalType": "address",
          "name": "token",
          "type": "address"
        },
        {
          "internalType": "address",
          "name": "member",
          "type": "address"
        }
      ],
      "name": "getMemberUnits",
      "outputs": [
        {
          "internalType": "uint256",
          "name": "",
          "type": "uint256"
        }
      ],
      "stateMutability": "view",
      "type": "function"
    },
    {
      "inputs": [
        {
          "internalType": "address",
          "name": "token",
          "type": "address"
        }
      ],
      "name": "getPoolAmounts",
      "outputs": [
        {
          "internalType": "uint256",
          "name": "",
          "type": "uint256"
        },
        {
          "internalType": "uint256",
          "name": "",
          "type": "uint256"
        }
      ],
      "stateMutability": "view",
      "type": "function"
    },
    {
      "inputs": [
        {
          "internalType": "address",
          "name": "token",
          "type": "address"
        }
      ],
      "name": "getSynth",
      "outputs": [
        {
          "internalType": "address",
          "name": "",
          "type": "address"
        }
      ],
      "stateMutability": "view",
      "type": "function"
    },
    {
      "inputs": [
        {
          "internalType": "address",
          "name": "token",
          "type": "address"
        }
      ],
      "name": "getTokenAmount",
      "outputs": [
        {
          "internalType": "uint256",
          "name": "",
          "type": "uint256"
        }
      ],
      "stateMutability": "view",
      "type": "function"
    },
    {
      "inputs": [
        {
          "internalType": "address",
          "name": "token",
          "type": "address"
        }
      ],
      "name": "getUnits",
      "outputs": [
        {
          "internalType": "uint256",
          "name": "",
          "type": "uint256"
        }
      ],
      "stateMutability": "view",
      "type": "function"
    },
    {
      "inputs": [
        {
          "internalType": "address",
          "name": "token",
          "type": "address"
        }
      ],
      "name": "isAnchor",
      "outputs": [
        {
          "internalType": "bool",
          "name": "",
          "type": "bool"
        }
      ],
      "stateMutability": "view",
      "type": "function"
    },
    {
      "inputs": [
        {
          "internalType": "address",
          "name": "token",
          "type": "address"
        }
      ],
      "name": "isAsset",
      "outputs": [
        {
          "internalType": "bool",
          "name": "",
          "type": "bool"
        }
      ],
      "stateMutability": "view",
      "type": "function"
    },
    {
      "inputs": [
        {
          "internalType": "address",
          "name": "token",
          "type": "address"
        }
      ],
      "name": "isSynth",
      "outputs": [
        {
          "internalType": "bool",
          "name": "",
          "type": "bool"
        }
      ],
      "stateMutability": "view",
      "type": "function"
    },
    {
      "inputs": [
        {
          "internalType": "address",
          "name": "",
          "type": "address"
        },
        {
          "internalType": "address",
          "name": "",
          "type": "address"
        }
      ],
      "name": "mapTokenMember_Units",
      "outputs": [
        {
          "internalType": "uint256",
          "name": "",
          "type": "uint256"
        }
      ],
      "stateMutability": "view",
      "type": "function"
    },
    {
      "inputs": [
        {
          "internalType": "address",
          "name": "",
          "type": "address"
        }
      ],
      "name": "mapToken_Units",
      "outputs": [
        {
          "internalType": "uint256",
          "name": "",
          "type": "uint256"
        }
      ],
      "stateMutability": "view",
      "type": "function"
    },
    {
      "inputs": [
        {
          "internalType": "address",
          "name": "",
          "type": "address"
        }
      ],
      "name": "mapToken_baseAmount",
      "outputs": [
        {
          "internalType": "uint256",
          "name": "",
          "type": "uint256"
        }
      ],
      "stateMutability": "view",
      "type": "function"
    },
    {
      "inputs": [
        {
          "internalType": "address",
          "name": "",
          "type": "address"
        }
      ],
      "name": "mapToken_tokenAmount",
      "outputs": [
        {
          "internalType": "uint256",
          "name": "",
          "type": "uint256"
        }
      ],
      "stateMutability": "view",
      "type": "function"
    },
    {
      "inputs": [
        {
          "internalType": "address",
          "name": "token",
          "type": "address"
        },
        {
          "internalType": "address",
          "name": "member",
          "type": "address"
        }
      ],
      "name": "mintSynth",
      "outputs": [
        {
          "internalType": "uint256",
          "name": "outputAmount",
          "type": "uint256"
        }
      ],
      "stateMutability": "nonpayable",
      "type": "function"
    },
    {
      "inputs": [],
      "name": "pooledUSDV",
      "outputs": [
        {
          "internalType": "uint256",
          "name": "",
          "type": "uint256"
        }
      ],
      "stateMutability": "view",
      "type": "function"
    },
    {
      "inputs": [],
      "name": "pooledVADER",
      "outputs": [
        {
          "internalType": "uint256",
          "name": "",
          "type": "uint256"
        }
      ],
      "stateMutability": "view",
      "type": "function"
    },
    {
      "inputs": [
        {
          "internalType": "address",
          "name": "base",
          "type": "address"
        },
        {
          "internalType": "address",
          "name": "token",
          "type": "address"
        },
        {
          "internalType": "uint256",
          "name": "basisPoints",
          "type": "uint256"
        },
        {
          "internalType": "address",
          "name": "member",
          "type": "address"
        }
      ],
      "name": "removeLiquidity",
      "outputs": [
        {
          "internalType": "uint256",
          "name": "units",
          "type": "uint256"
        },
        {
          "internalType": "uint256",
          "name": "outputBase",
          "type": "uint256"
        },
        {
          "internalType": "uint256",
          "name": "outputToken",
          "type": "uint256"
        }
      ],
      "stateMutability": "nonpayable",
      "type": "function"
    },
    {
      "inputs": [
        {
          "internalType": "address",
          "name": "base",
          "type": "address"
        },
        {
          "internalType": "address",
          "name": "token",
          "type": "address"
        },
        {
          "internalType": "address",
          "name": "member",
          "type": "address"
        },
        {
          "internalType": "bool",
          "name": "toBase",
          "type": "bool"
        }
      ],
      "name": "swap",
      "outputs": [
        {
          "internalType": "uint256",
          "name": "outputAmount",
          "type": "uint256"
        }
      ],
      "stateMutability": "nonpayable",
      "type": "function"
    },
    {
      "inputs": [
        {
          "internalType": "address",
          "name": "token",
          "type": "address"
        },
        {
          "internalType": "address",
          "name": "pool",
          "type": "address"
        }
      ],
      "name": "sync",
      "outputs": [],
      "stateMutability": "nonpayable",
      "type": "function"
    },
    {
      "inputs": [
        {
          "internalType": "address",
          "name": "token",
          "type": "address"
        }
      ],
      "name": "syncSynth",
      "outputs": [],
      "stateMutability": "nonpayable",
      "type": "function"
    }
  ],
  "bytecode": "0x60a06040523480156200001157600080fd5b5060405162002bdc38038062002bdc83398101604081905262000034916200004a565b60601b6001600160601b0319166080526200007a565b6000602082840312156200005c578081fd5b81516001600160a01b038116811462000073578182fd5b9392505050565b60805160601c612ae1620000fb6000396000818161017d015281816104c1015281816111bd015281816112c301528181611b2c01528181611b6e01528181611bef01528181611ee801528181611f240152818161209e0152818161216901528181612234015281816122ff015281816123c801526124760152612ae16000f3fe608060405234801561001057600080fd5b50600436106101735760003560e01c80638e80bddf116100de578063c8aacdda11610097578063dd5a2bd811610071578063dd5a2bd814610459578063e6ae1a9714610462578063efc34aab1461048b578063fde3b2651461049e57610173565b8063c8aacdda146103fa578063d8cced2a1461041a578063dcec81161461044657610173565b80638e80bddf146103135780638ebc9f9214610326578063903443b914610351578063a9652dca1461039c578063b34c8afb146103a5578063c87fa42a146103ce57610173565b80635c537386116101305780635c537386146102825780635e0237ea1461029557806368866418146102b85780636aff9454146102d857806375d55e47146102eb5780637b0e5c451461030b57610173565b806301681315146101785780630fefbc09146101bc57806324ef3750146101f35780633041949b1461022c57806335d3766414610241578063469f5c1e1461026f575b600080fd5b61019f7f000000000000000000000000000000000000000000000000000000000000000081565b6040516001600160a01b0390911681526020015b60405180910390f35b6101e56101ca3660046127c4565b6001600160a01b031660009081526004602052604090205490565b6040519081526020016101b3565b6101e56102013660046127fc565b6001600160a01b03918216600090815260056020908152604080832093909416825291909152205490565b61023f61023a3660046127fc565b6104b1565b005b61025461024f3660046128d9565b6105cf565b604080519384526020840192909252908201526060016101b3565b61023f61027d3660046127c4565b6108e2565b6101e56102903660046127fc565b610ba3565b6102a86102a33660046127c4565b610e68565b60405190151581526020016101b3565b6101e56102c63660046127c4565b60076020526000908152604090205481565b6101e56102e63660046127fc565b610ef3565b6101e56102f93660046127c4565b60066020526000908152604090205481565b61019f6111b9565b61023f6103213660046127c4565b6112c1565b6101e56103343660046127fc565b600560209081526000928352604080842090915290825290205481565b61038761035f3660046127c4565b6001600160a01b03166000908152600660209081526040808320546007909252909120549091565b604080519283526020830191909152016101b3565b6101e560015481565b6101e56103b33660046127c4565b6001600160a01b031660009081526006602052604090205490565b6102a86103dc3660046127c4565b6001600160a01b031660009081526002602052604090205460ff1690565b6101e56104083660046127c4565b60046020526000908152604090205481565b6102a86104283660046127c4565b6001600160a01b031660009081526003602052604090205460ff1690565b61019f6104543660046127c4565b6113d3565b6101e560005481565b6101e56104703660046127c4565b6001600160a01b031660009081526007602052604090205490565b6101e561049936600461287e565b611458565b6101e56104ac366004612834565b6119e7565b60006104bd8383611e68565b90507f00000000000000000000000000000000000000000000000000000000000000006001600160a01b0316836001600160a01b03161480610517575061050261209a565b6001600160a01b0316836001600160a01b0316145b1561054f576001600160a01b03821660009081526006602052604081208054839290610544908490612a10565b9091555061057d9050565b6001600160a01b03821660009081526007602052604081208054839290610577908490612a10565b90915550505b816001600160a01b0316836001600160a01b03167f54b91069ea413a6fbb322ced87280c75ca620bffe62d35cf33b0336f23e9238b836040516105c291815260200190565b60405180910390a3505050565b60008060006105dc612165565b6001600160a01b0316336001600160a01b0316148061061357506105fe612230565b6001600160a01b0316336001600160a01b0316145b8061063657506106216122fb565b6001600160a01b0316336001600160a01b0316145b61065b5760405162461bcd60e51b8152600401610652906129ef565b60405180910390fd5b610663612165565b604051636e899aa360e01b81526001600160a01b0389811660048301529190911690636e899aa39060240160206040518083038186803b1580156106a657600080fd5b505afa1580156106ba573d6000803e3d6000fd5b505050506040513d601f19601f820116820180604052508101906106de9190612920565b6106fa5760405162461bcd60e51b8152600401610652906129d0565b6107026111b9565b604051637011add360e01b8152600481018790526001600160a01b03888116602483015286811660448301529190911690637011add39060640160606040518083038186803b15801561075457600080fd5b505afa158015610768573d6000803e3d6000fd5b505050506040513d601f19601f8201168201806040525081019061078c9190612954565b6001600160a01b0389166000908152600460205260408120805494975092955090935085926107bc908490612a28565b90915550506001600160a01b038087166000908152600560209081526040808320938816835292905290812080548592906107f8908490612a28565b90915550506001600160a01b03861660009081526006602052604081208054849290610825908490612a28565b90915550506001600160a01b03861660009081526007602052604081208054839290610852908490612a28565b90915550506001600160a01b038681166000818152600460209081526040918290205482518781529182018690528183018890526060820152905191928a811692908816917f58b1ebcf7a8520d435f8b5e4e52c11f3ecb57c52621aee99365d810c2e53bdf3919081900360800190a46108cd8783866123c6565b6108d88682866123c6565b9450945094915050565b60006108ed826113d3565b6040516370a0823160e01b81523060048201529091506000906001600160a01b038316906370a082319060240160206040518083038186803b15801561093257600080fd5b505afa158015610946573d6000803e3d6000fd5b505050506040513d601f19601f8201168201806040525081019061096a919061293c565b905060006109766111b9565b6001600160a01b0316631ba326c483856001600160a01b03166318160ddd6040518163ffffffff1660e01b815260040160206040518083038186803b1580156109be57600080fd5b505afa1580156109d2573d6000803e3d6000fd5b505050506040513d601f19601f820116820180604052508101906109f6919061293c565b6001600160a01b03881660009081526005602090815260408083203084529091529081902054905160e085901b6001600160e01b031916815260048101939093526024830191909152604482015260640160206040518083038186803b158015610a5f57600080fd5b505afa158015610a73573d6000803e3d6000fd5b505050506040513d601f19601f82011682018060405250810190610a97919061293c565b604051630852cd8d60e31b8152600481018490529091506001600160a01b038416906342966c6890602401600060405180830381600087803b158015610adc57600080fd5b505af1158015610af0573d6000803e3d6000fd5b505050506001600160a01b038416600090815260056020908152604080832030845290915281208054839290610b27908490612a28565b90915550506001600160a01b03841660009081526004602052604081208054839290610b54908490612a28565b909155505060408051838152602081018390526001600160a01b038616917f2bd592657d26d9b6ddc6922d29a570ca2d85268c077790ef16db2e3c37e4950c910160405180910390a250505050565b6000610bad612165565b6001600160a01b0316336001600160a01b03161480610be45750610bcf612230565b6001600160a01b0316336001600160a01b0316145b80610c075750610bf26122fb565b6001600160a01b0316336001600160a01b0316145b610c235760405162461bcd60e51b8152600401610652906129ef565b6000610c2e846113d3565b90506001600160a01b038116610c6f5760405162461bcd60e51b8152602060048201526006602482015265042a6f2dce8d60d31b6044820152606401610652565b6000610c82610c7c61209a565b86611e68565b9050610c8c6111b9565b6001600160a01b0386811660009081526006602090815260408083205460079092529182902054915163701baaf360e01b8152600481018690526024810191909152604481019190915291169063701baaf39060640160206040518083038186803b158015610cfa57600080fd5b505afa158015610d0e573d6000803e3d6000fd5b505050506040513d601f19601f82011682018060405250810190610d32919061293c565b6001600160a01b038616600090815260066020526040812080549295508392909190610d5f908490612a10565b90915550506001600160a01b038516610d7661209a565b6001600160a01b0316856001600160a01b03167fdce3fe53a2f7f31b00a24020bb4cef6c1d877f1ad4d43153c48d2ebe79eab50a8487604051610dc3929190918252602082015260400190565b60405180910390a4610dd3612472565b6040516316fc2aef60e21b81526001600160a01b0384811660048301528681166024830152604482018690529190911690635bf0abbc90606401602060405180830381600087803b158015610e2757600080fd5b505af1158015610e3b573d6000803e3d6000fd5b505050506040513d601f19601f82011682018060405250810190610e5f9190612920565b50505092915050565b6000610e72612472565b604051632f011bf560e11b81526001600160a01b0384811660048301529190911690635e0237ea9060240160206040518083038186803b158015610eb557600080fd5b505afa158015610ec9573d6000803e3d6000fd5b505050506040513d601f19601f82011682018060405250810190610eed9190612920565b92915050565b6000610efd612165565b6001600160a01b0316336001600160a01b03161480610f345750610f1f612230565b6001600160a01b0316336001600160a01b0316145b80610f575750610f426122fb565b6001600160a01b0316336001600160a01b0316145b610f735760405162461bcd60e51b8152600401610652906129ef565b6000610f7e846113d3565b6040516370a0823160e01b81523060048201529091506000906001600160a01b038316906370a082319060240160206040518083038186803b158015610fc357600080fd5b505afa158015610fd7573d6000803e3d6000fd5b505050506040513d601f19601f82011682018060405250810190610ffb919061293c565b604051630852cd8d60e31b8152600481018290529091506001600160a01b038316906342966c6890602401600060405180830381600087803b15801561104057600080fd5b505af1158015611054573d6000803e3d6000fd5b505050506110606111b9565b6001600160a01b0386811660009081526007602090815260408083205460069092529182902054915163701baaf360e01b8152600481018690526024810191909152604481019190915291169063701baaf39060640160206040518083038186803b1580156110ce57600080fd5b505afa1580156110e2573d6000803e3d6000fd5b505050506040513d601f19601f82011682018060405250810190611106919061293c565b6001600160a01b038616600090815260066020526040812080549295508592909190611133908490612a28565b90915550506001600160a01b03851661114a61209a565b6001600160a01b0316856001600160a01b03167f63fc4d3cae2d0c437e2e9528b5ebad6a1236217cfae2fc54a8819fd8f626f0728685604051611197929190918252602082015260400190565b60405180910390a46111b16111aa61209a565b84866123c6565b505092915050565b60007f00000000000000000000000000000000000000000000000000000000000000006001600160a01b03166398fabd3a6040518163ffffffff1660e01b815260040160206040518083038186803b15801561121457600080fd5b505afa158015611228573d6000803e3d6000fd5b505050506040513d601f19601f8201168201806040525081019061124c91906127e0565b6001600160a01b0316637b0e5c456040518163ffffffff1660e01b815260040160206040518083038186803b15801561128457600080fd5b505afa158015611298573d6000803e3d6000fd5b505050506040513d601f19601f820116820180604052508101906112bc91906127e0565b905090565b7f00000000000000000000000000000000000000000000000000000000000000006001600160a01b0316816001600160a01b03161415801561131c575061130661209a565b6001600160a01b0316816001600160a01b031614155b801561134157506001600160a01b03811660009081526003602052604090205460ff16155b61134a57600080fd5b611352612472565b604051638e80bddf60e01b81526001600160a01b0383811660048301529190911690638e80bddf90602401602060405180830381600087803b15801561139757600080fd5b505af11580156113ab573d6000803e3d6000fd5b505050506040513d601f19601f820116820180604052508101906113cf91906127e0565b5050565b60006113dd612472565b604051636e76408b60e11b81526001600160a01b038481166004830152919091169063dcec81169060240160206040518083038186803b15801561142057600080fd5b505afa158015611434573d6000803e3d6000fd5b505050506040513d601f19601f82011682018060405250810190610eed91906127e0565b6000611462612165565b6001600160a01b0316336001600160a01b031614806114995750611484612230565b6001600160a01b0316336001600160a01b0316145b806114bc57506114a76122fb565b6001600160a01b0316336001600160a01b0316145b6114d85760405162461bcd60e51b8152600401610652906129ef565b6114e0612165565b604051636e899aa360e01b81526001600160a01b0387811660048301529190911690636e899aa39060240160206040518083038186803b15801561152357600080fd5b505afa158015611537573d6000803e3d6000fd5b505050506040513d601f19601f8201168201806040525081019061155b9190612920565b6115775760405162461bcd60e51b8152600401610652906129d0565b81156117b05760006115898586611e68565b90506115936111b9565b6001600160a01b0386811660009081526007602090815260408083205460069092529182902054915163701baaf360e01b8152600481018690526024810191909152604481019190915291169063701baaf39060640160206040518083038186803b15801561160157600080fd5b505afa158015611615573d6000803e3d6000fd5b505050506040513d601f19601f82011682018060405250810190611639919061293c565b915060006116456111b9565b6001600160a01b0387811660009081526007602090815260408083205460069092529182902054915163225a9c2360e21b8152600481018790526024810191909152604481019190915291169063896a708c9060640160206040518083038186803b1580156116b357600080fd5b505afa1580156116c7573d6000803e3d6000fd5b505050506040513d601f19601f820116820180604052508101906116eb919061293c565b6001600160a01b038716600090815260076020526040812080549293508492909190611718908490612a10565b90915550506001600160a01b03861660009081526006602052604081208054859290611745908490612a28565b909155505060408051838152602081018590529081018290526001600160a01b0380891691888216918816907f51e00ff851e6d19ee3412286211af0aa9676df8d942e677195fc7445b4c08e309060600160405180910390a46117a98784876123c6565b50506119df565b60006117bc8686611e68565b90506117c66111b9565b6001600160a01b0386811660009081526006602090815260408083205460079092529182902054915163701baaf360e01b8152600481018690526024810191909152604481019190915291169063701baaf39060640160206040518083038186803b15801561183457600080fd5b505afa158015611848573d6000803e3d6000fd5b505050506040513d601f19601f8201168201806040525081019061186c919061293c565b915060006118786111b9565b6001600160a01b0387811660009081526006602090815260408083205460079092529182902054915163225a9c2360e21b8152600481018790526024810191909152604481019190915291169063896a708c9060640160206040518083038186803b1580156118e657600080fd5b505afa1580156118fa573d6000803e3d6000fd5b505050506040513d601f19601f8201168201806040525081019061191e919061293c565b6001600160a01b03871660009081526006602052604081208054929350849290919061194b908490612a10565b90915550506001600160a01b03861660009081526007602052604081208054859290611978908490612a28565b909155505060408051838152602081018590529081018290526001600160a01b0380881691898216918816907f51e00ff851e6d19ee3412286211af0aa9676df8d942e677195fc7445b4c08e309060600160405180910390a46119dc8684876123c6565b50505b949350505050565b60006119f1612165565b6001600160a01b0316336001600160a01b03161480611a285750611a13612230565b6001600160a01b0316336001600160a01b0316145b80611a4b5750611a366122fb565b6001600160a01b0316336001600160a01b0316145b611a675760405162461bcd60e51b8152600401610652906129ef565b611a6f612165565b604051636e899aa360e01b81526001600160a01b0386811660048301529190911690636e899aa39060240160206040518083038186803b158015611ab257600080fd5b505afa158015611ac6573d6000803e3d6000fd5b505050506040513d601f19601f82011682018060405250810190611aea9190612920565b611b065760405162461bcd60e51b8152600401610652906129d0565b611b0e61209a565b6001600160a01b0316836001600160a01b031614158015611b6157507f00000000000000000000000000000000000000000000000000000000000000006001600160a01b0316836001600160a01b031614155b611b6a57600080fd5b60007f00000000000000000000000000000000000000000000000000000000000000006001600160a01b0316856001600160a01b03161415611c1b576001600160a01b03841660009081526003602052604090205460ff16611bea576001600160a01b0384166000908152600360205260409020805460ff191660011790555b611c147f000000000000000000000000000000000000000000000000000000000000000085611e68565b9050611c73565b6001600160a01b03841660009081526002602052604090205460ff16611c5f576001600160a01b0384166000908152600260205260409020805460ff191660011790555b611c70611c6a61209a565b85611e68565b90505b6000611c7f8586611e68565b9050611c896111b9565b6001600160a01b0386811660009081526006602090815260408083205460078352818420546004938490529382902054915163c5c11ee960e01b81529283018890526024830152604482018690526064820192909252608481019190915291169063c5c11ee99060a40160206040518083038186803b158015611d0b57600080fd5b505afa158015611d1f573d6000803e3d6000fd5b505050506040513d601f19601f82011682018060405250810190611d43919061293c565b6001600160a01b038087166000908152600560209081526040808320938916835292905290812080549295508592909190611d7f908490612a10565b90915550506001600160a01b03851660009081526004602052604081208054859290611dac908490612a10565b90915550506001600160a01b03851660009081526006602052604081208054849290611dd9908490612a10565b90915550506001600160a01b03851660009081526007602052604081208054839290611e06908490612a10565b909155505060408051838152602081018390529081018490526001600160a01b0380871691888216918716907fcfc390ea13b09661b205e48ee692d38f6798b0e0992a868008f841929b0e03d29060600160405180910390a450509392505050565b6040516370a0823160e01b815230600482015260009081906001600160a01b038516906370a082319060240160206040518083038186803b158015611eac57600080fd5b505afa158015611ec0573d6000803e3d6000fd5b505050506040513d601f19601f82011682018060405250810190611ee4919061293c565b90507f00000000000000000000000000000000000000000000000000000000000000006001600160a01b0316846001600160a01b0316148015611f5957507f00000000000000000000000000000000000000000000000000000000000000006001600160a01b0316836001600160a01b031614155b15611f7757600054611f6b9082612a28565b60008290559150612093565b611f7f61209a565b6001600160a01b0316846001600160a01b03161415611fb157600154611fa59082612a28565b60018290559150612093565b6001600160a01b03841660009081526002602052604090205460ff1680611ff057506001600160a01b03841660009081526003602052604090205460ff165b6120245760405162461bcd60e51b8152602060048201526005602482015264085413d3d360da1b6044820152606401610652565b826001600160a01b0316846001600160a01b03161461206d5760405162461bcd60e51b8152602060048201526005602482015264085c1bdbdb60da1b6044820152606401610652565b6001600160a01b0383166000908152600760205260409020546120909082612a28565b91505b5092915050565b60007f00000000000000000000000000000000000000000000000000000000000000006001600160a01b03166398fabd3a6040518163ffffffff1660e01b815260040160206040518083038186803b1580156120f557600080fd5b505afa158015612109573d6000803e3d6000fd5b505050506040513d601f19601f8201168201806040525081019061212d91906127e0565b6001600160a01b031663e2c3b0466040518163ffffffff1660e01b815260040160206040518083038186803b15801561128457600080fd5b60007f00000000000000000000000000000000000000000000000000000000000000006001600160a01b03166398fabd3a6040518163ffffffff1660e01b815260040160206040518083038186803b1580156121c057600080fd5b505afa1580156121d4573d6000803e3d6000fd5b505050506040513d601f19601f820116820180604052508101906121f891906127e0565b6001600160a01b03166332fe7b266040518163ffffffff1660e01b815260040160206040518083038186803b15801561128457600080fd5b60007f00000000000000000000000000000000000000000000000000000000000000006001600160a01b03166398fabd3a6040518163ffffffff1660e01b815260040160206040518083038186803b15801561228b57600080fd5b505afa15801561229f573d6000803e3d6000fd5b505050506040513d601f19601f820116820180604052508101906122c391906127e0565b6001600160a01b031663411557d16040518163ffffffff1660e01b815260040160206040518083038186803b15801561128457600080fd5b60007f00000000000000000000000000000000000000000000000000000000000000006001600160a01b03166398fabd3a6040518163ffffffff1660e01b815260040160206040518083038186803b15801561235657600080fd5b505afa15801561236a573d6000803e3d6000fd5b505050506040513d601f19601f8201168201806040525081019061238e91906127e0565b6001600160a01b03166338a1046d6040518163ffffffff1660e01b815260040160206040518083038186803b15801561128457600080fd5b7f00000000000000000000000000000000000000000000000000000000000000006001600160a01b0316836001600160a01b03161415612416578160005461240e9190612a28565b600055612449565b61241e61209a565b6001600160a01b0316836001600160a01b0316141561244957816001546124459190612a28565b6001555b6001600160a01b038116301461246d5761246d6001600160a01b038416828461253d565b505050565b60007f00000000000000000000000000000000000000000000000000000000000000006001600160a01b03166398fabd3a6040518163ffffffff1660e01b815260040160206040518083038186803b1580156124cd57600080fd5b505afa1580156124e1573d6000803e3d6000fd5b505050506040513d601f19601f8201168201806040525081019061250591906127e0565b6001600160a01b0316632dd310006040518163ffffffff1660e01b815260040160206040518083038186803b15801561128457600080fd5b604080516001600160a01b03848116602483015260448083018590528351808403909101815260649092018352602080830180516001600160e01b031663a9059cbb60e01b17905283518085019094528084527f5361666545524332303a206c6f772d6c6576656c2063616c6c206661696c65649084015261246d928692916000916125cd91851690849061264a565b80519091501561246d57808060200190518101906125eb9190612920565b61246d5760405162461bcd60e51b815260206004820152602a60248201527f5361666545524332303a204552433230206f7065726174696f6e20646964206e6044820152691bdd081cdd58d8d9595960b21b6064820152608401610652565b60606126598484600085612663565b90505b9392505050565b6060824710156126c45760405162461bcd60e51b815260206004820152602660248201527f416464726573733a20696e73756666696369656e742062616c616e636520666f6044820152651c8818d85b1b60d21b6064820152608401610652565b843b6127125760405162461bcd60e51b815260206004820152601d60248201527f416464726573733a2063616c6c20746f206e6f6e2d636f6e74726163740000006044820152606401610652565b600080866001600160a01b0316858760405161272e9190612981565b60006040518083038185875af1925050503d806000811461276b576040519150601f19603f3d011682016040523d82523d6000602084013e612770565b606091505b509150915061278082828661278b565b979650505050505050565b6060831561279a57508161265c565b8251156127aa5782518084602001fd5b8160405162461bcd60e51b8152600401610652919061299d565b6000602082840312156127d5578081fd5b813561265c81612a85565b6000602082840312156127f1578081fd5b815161265c81612a85565b6000806040838503121561280e578081fd5b823561281981612a85565b9150602083013561282981612a85565b809150509250929050565b600080600060608486031215612848578081fd5b833561285381612a85565b9250602084013561286381612a85565b9150604084013561287381612a85565b809150509250925092565b60008060008060808587031215612893578081fd5b843561289e81612a85565b935060208501356128ae81612a85565b925060408501356128be81612a85565b915060608501356128ce81612a9d565b939692955090935050565b600080600080608085870312156128ee578384fd5b84356128f981612a85565b9350602085013561290981612a85565b92506040850135915060608501356128ce81612a85565b600060208284031215612931578081fd5b815161265c81612a9d565b60006020828403121561294d578081fd5b5051919050565b600080600060608486031215612968578283fd5b8351925060208401519150604084015190509250925092565b60008251612993818460208701612a3f565b9190910192915050565b60006020825282518060208401526129bc816040850160208701612a3f565b601f01601f19169190910160400192915050565b602080825260059082015264214261736560d81b604082015260600190565b6020808252600790820152662153595354454d60c81b604082015260600190565b60008219821115612a2357612a23612a6f565b500190565b600082821015612a3a57612a3a612a6f565b500390565b60005b83811015612a5a578181015183820152602001612a42565b83811115612a69576000848401525b50505050565b634e487b7160e01b600052601160045260246000fd5b6001600160a01b0381168114612a9a57600080fd5b50565b8015158114612a9a57600080fdfea26469706673582212205504c9a49236e181094b53e1e0655ea5245941ad5bd771a1008b3632f3b1228164736f6c63430008030033",
  "linkReferences": {},
  "deployedLinkReferences": {}
}