{
  "_format": "hh-sol-artifact-1",
  "contractName": "Factory",
  "sourceName": "contracts/Factory.sol",
  "abi": [
    {
      "inputs": [
        {
          "internalType": "address",
          "name": "_pools",
          "type": "address"
        }
      ],
      "stateMutability": "nonpayable",
      "type": "constructor"
    },
    {
      "anonymous": false,
      "inputs": [
        {
          "indexed": true,
          "internalType": "address",
          "name": "token",
          "type": "address"
        },
        {
          "indexed": true,
          "internalType": "address",
          "name": "pool",
          "type": "address"
        }
      ],
      "name": "CreateSynth",
      "type": "event"
    },
    {
      "inputs": [],
      "name": "POOLS",
      "outputs": [
        {
          "internalType": "address",
          "name": "",
          "type": "address"
        }
      ],
      "stateMutability": "view",
      "type": "function"
    },
    {
      "inputs": [
        {
          "internalType": "uint256",
          "name": "",
          "type": "uint256"
        }
      ],
      "name": "arraySynths",
      "outputs": [
        {
          "internalType": "address",
          "name": "",
          "type": "address"
        }
      ],
      "stateMutability": "view",
      "type": "function"
    },
    {
      "inputs": [
        {
          "internalType": "address",
          "name": "token",
          "type": "address"
        }
      ],
      "name": "deploySynth",
      "outputs": [
        {
          "internalType": "address",
          "name": "synth",
          "type": "address"
        }
      ],
      "stateMutability": "nonpayable",
      "type": "function"
    },
    {
      "inputs": [
        {
          "internalType": "address",
          "name": "token",
          "type": "address"
        }
      ],
      "name": "getSynth",
      "outputs": [
        {
          "internalType": "address",
          "name": "synth",
          "type": "address"
        }
      ],
      "stateMutability": "view",
      "type": "function"
    },
    {
      "inputs": [
        {
          "internalType": "address",
          "name": "token",
          "type": "address"
        }
      ],
      "name": "isSynth",
      "outputs": [
        {
          "internalType": "bool",
          "name": "_exists",
          "type": "bool"
        }
      ],
      "stateMutability": "view",
      "type": "function"
    },
    {
      "inputs": [
        {
          "internalType": "address",
          "name": "synth",
          "type": "address"
        },
        {
          "internalType": "address",
          "name": "member",
          "type": "address"
        },
        {
          "internalType": "uint256",
          "name": "amount",
          "type": "uint256"
        }
      ],
      "name": "mintSynth",
      "outputs": [
        {
          "internalType": "bool",
          "name": "",
          "type": "bool"
        }
      ],
      "stateMutability": "nonpayable",
      "type": "function"
    }
  ],
  "bytecode": "0x60a060405234801561001057600080fd5b506040516117cb3803806117cb83398101604081905261002f91610044565b60601b6001600160601b031916608052610072565b600060208284031215610055578081fd5b81516001600160a01b038116811461006b578182fd5b9392505050565b60805160601c61172d61009e60003960008181610111015281816101400152610237015261172d6000f3fe608060405234801561001057600080fd5b50600436106100625760003560e01c80635bf0abbc146100675780635e0237ea1461008f5780638e80bddf146100a2578063dcec8116146100cd578063eb765955146100f9578063ebccb5b21461010c575b600080fd5b61007a61007536600461043e565b610133565b60405190151581526020015b60405180910390f35b61007a61009d36600461041d565b610207565b6100b56100b036600461041d565b61022a565b6040516001600160a01b039091168152602001610086565b6100b56100db36600461041d565b6001600160a01b039081166000908152600160205260409020541690565b6100b5610107366004610479565b6103cf565b6100b57f000000000000000000000000000000000000000000000000000000000000000081565b6000336001600160a01b037f0000000000000000000000000000000000000000000000000000000000000000161461019b5760405162461bcd60e51b815260206004820152600660248201526521504f4f4c5360d01b60448201526064015b60405180910390fd5b6040516340c10f1960e01b81526001600160a01b038481166004830152602482018490528516906340c10f1990604401600060405180830381600087803b1580156101e557600080fd5b505af11580156101f9573d6000803e3d6000fd5b506001979650505050505050565b6001600160a01b038181166000908152600160205260409020541615155b919050565b6000336001600160a01b037f0000000000000000000000000000000000000000000000000000000000000000161461028d5760405162461bcd60e51b815260206004820152600660248201526521504f4f4c5360d01b6044820152606401610192565b6001600160a01b0382811660009081526001602052604090205416156102e15760405162461bcd60e51b815260206004820152600960248201526821b932b0ba32a2b93960b91b6044820152606401610192565b816040516102ee906103f9565b6001600160a01b039091168152602001604051809103906000f08015801561031a573d6000803e3d6000fd5b50905061038a82826001600160a01b03918216600090815260016020819052604082208054949093166001600160a01b03199485168117909355815490810182559080527f290decd9548b62a8d60345a988386fc84ba6bc95484008f6362f93160ef3e563018054909216179055565b806001600160a01b0316826001600160a01b03167f43f98d8b2371b57c895f837bf56fcc83a2e97624200ff6282779f0d40411a83860405160405180910390a3919050565b600081815481106103df57600080fd5b6000918252602090912001546001600160a01b0316905081565b6112668061049283390190565b80356001600160a01b038116811461022557600080fd5b60006020828403121561042e578081fd5b61043782610406565b9392505050565b600080600060608486031215610452578182fd5b61045b84610406565b925061046960208501610406565b9150604084013590509250925092565b60006020828403121561048a578081fd5b503591905056fe60c06040523480156200001157600080fd5b5060405162001266380380620012668339810160408190526200003491620002a7565b606081811b6001600160601b03191660a05233901b60805260408051808201825260098152680405a40eca6f2dce8d60bb1b602082810191909152825180840184526002815261173b60f11b9181019190915282516306fdde0360e01b81529251919290916001600160a01b038516916306fdde03916004808301926000929190829003018186803b158015620000ca57600080fd5b505afa158015620000df573d6000803e3d6000fd5b505050506040513d6000823e601f3d908101601f19168201604052620001099190810190620002d7565b826040516020016200011d9291906200038b565b604051602081830303815290604052600090805190602001906200014392919062000201565b50826001600160a01b03166395d89b416040518163ffffffff1660e01b815260040160006040518083038186803b1580156200017e57600080fd5b505afa15801562000193573d6000803e3d6000fd5b505050506040513d6000823e601f3d908101601f19168201604052620001bd9190810190620002d7565b81604051602001620001d19291906200038b565b60405160208183030381529060405260019080519060200190620001f792919062000201565b5050505062000444565b8280546200020f90620003f1565b90600052602060002090601f0160209004810192826200023357600085556200027e565b82601f106200024e57805160ff19168380011785556200027e565b828001600101855582156200027e579182015b828111156200027e57825182559160200191906001019062000261565b506200028c92915062000290565b5090565b5b808211156200028c576000815560010162000291565b600060208284031215620002b9578081fd5b81516001600160a01b0381168114620002d0578182fd5b9392505050565b600060208284031215620002e9578081fd5b81516001600160401b038082111562000300578283fd5b818401915084601f83011262000314578283fd5b8151818111156200032957620003296200042e565b604051601f8201601f19908116603f011681019083821181831017156200035457620003546200042e565b816040528281528760208487010111156200036d578586fd5b62000380836020830160208801620003be565b979650505050505050565b600083516200039f818460208801620003be565b835190830190620003b5818360208801620003be565b01949350505050565b60005b83811015620003db578181015183820152602001620003c1565b83811115620003eb576000848401525b50505050565b600181811c908216806200040657607f821691505b602082108114156200042857634e487b7160e01b600052602260045260246000fd5b50919050565b634e487b7160e01b600052604160045260246000fd5b60805160601c60a05160601c610def62000477600039600061025801526000818161018b015261051b0152610def6000f3fe608060405234801561001057600080fd5b50600436106101165760003560e01c806342966c68116100a257806395d89b411161007157806395d89b411461027a578063a457c2d714610282578063a9059cbb14610295578063cae9ca51146102a8578063dd62ed3e146102bb57610116565b806342966c681461021a57806370a082311461022d57806379cc67901461024057806382bfefc81461025357610116565b80632dd31000116100e95780632dd3100014610186578063313ce567146101c557806339509351146101df5780634000aea0146101f257806340c10f191461020557610116565b806306fdde031461011b578063095ea7b31461013957806318160ddd1461015c57806323b872dd14610173575b600080fd5b6101236102f4565b6040516101309190610ce6565b60405180910390f35b61014c610147366004610bd2565b610382565b6040519015158152602001610130565b61016560025481565b604051908152602001610130565b61014c610181366004610b97565b610398565b6101ad7f000000000000000000000000000000000000000000000000000000000000000081565b6040516001600160a01b039091168152602001610130565b6101cd601281565b60405160ff9091168152602001610130565b61014c6101ed366004610bd2565b61045b565b61014c610200366004610bfb565b610492565b610218610213366004610bd2565b610510565b005b610218610228366004610c7d565b61063f565b61016561023b366004610b44565b61064c565b61021861024e366004610bd2565b61066b565b6101ad7f000000000000000000000000000000000000000000000000000000000000000081565b6101236106b6565b61014c610290366004610bd2565b6106c3565b61014c6102a3366004610bd2565b610736565b61014c6102b6366004610bfb565b610743565b6101656102c9366004610b65565b6001600160a01b03918216600090815260046020908152604080832093909416825291909152205490565b6000805461030190610d68565b80601f016020809104026020016040519081016040528092919081815260200182805461032d90610d68565b801561037a5780601f1061034f5761010080835404028352916020019161037a565b820191906000526020600020905b81548152906001019060200180831161035d57829003601f168201915b505050505081565b600061038f338484610784565b50600192915050565b60006103a5848484610894565b6001600160a01b03841660009081526004602090815260408083203384529091529020546000191115610451576001600160a01b03841660009081526004602090815260408083203384529091529020548281101561043b5760405162461bcd60e51b815260206004820152600d60248201526c30b63637bbb0b731b29032b93960991b60448201526064015b60405180910390fd5b61044f853361044a8685610d51565b610784565b505b5060019392505050565b3360008181526004602090815260408083206001600160a01b0387168452909152812054909161038f91859061044a908690610d39565b600061049f338686610894565b60405163cf4d253560e01b81526001600160a01b0386169063cf4d2535906104d39030908890339089908990600401610c95565b600060405180830381600087803b1580156104ed57600080fd5b505af1158015610501573d6000803e3d6000fd5b50600198975050505050505050565b336001600160a01b037f000000000000000000000000000000000000000000000000000000000000000016146105735760405162461bcd60e51b815260206004820152600860248201526721464143544f525960c01b6044820152606401610432565b6001600160a01b0382166105b55760405162461bcd60e51b81526020600482015260096024820152681c9958da5c1a595b9d60ba1b6044820152606401610432565b80600260008282546105c79190610d39565b90915550506001600160a01b038216600090815260036020526040812080548392906105f4908490610d39565b90915550506040518181526001600160a01b038316906000907fddf252ad1be2c89b69c2b068fc378daa952ba7f163c4a11628f55a4df523b3ef906020015b60405180910390a35050565b6106493382610a0f565b50565b6001600160a01b0381166000908152600360205260409020545b919050565b6001600160a01b038216600090815260046020908152604080832033845290915281205461069a908390610d51565b90506106a7833383610784565b6106b18383610a0f565b505050565b6001805461030190610d68565b3360009081526004602090815260408083206001600160a01b0386168452909152812054828110156107275760405162461bcd60e51b815260206004820152600d60248201526c30b63637bbb0b731b29032b93960991b6044820152606401610432565b610451338561044a8685610d51565b600061038f338484610894565b6000610750338686610784565b604051631ac562a760e01b81526001600160a01b03861690631ac562a7906104d39030908890339089908990600401610c95565b6001600160a01b0383166107c35760405162461bcd60e51b815260206004820152600660248201526539b2b73232b960d11b6044820152606401610432565b6001600160a01b0382166108035760405162461bcd60e51b815260206004820152600760248201526639b832b73232b960c91b6044820152606401610432565b6001600160a01b0380841660009081526004602090815260408083209386168352929052205460001911156106b1576001600160a01b0383811660008181526004602090815260408083209487168084529482529182902085905590518481527f8c5be1e5ebec7d5bd14f71427d1e84f3dd0314c0f7b2291e5b200ac8c7c3b92591015b60405180910390a3505050565b6001600160a01b0383166108d35760405162461bcd60e51b815260206004820152600660248201526539b2b73232b960d11b6044820152606401610432565b6001600160a01b0382163014156109185760405162461bcd60e51b81526020600482015260096024820152681c9958da5c1a595b9d60ba1b6044820152606401610432565b6001600160a01b03831660009081526003602052604090205481111561096e5760405162461bcd60e51b815260206004820152600b60248201526a3130b630b731b29032b93960a91b6044820152606401610432565b6001600160a01b03831660009081526003602052604081208054839290610996908490610d51565b90915550506001600160a01b038216600090815260036020526040812080548392906109c3908490610d39565b92505081905550816001600160a01b0316836001600160a01b03167fddf252ad1be2c89b69c2b068fc378daa952ba7f163c4a11628f55a4df523b3ef8360405161088791815260200190565b6001600160a01b038216610a535760405162461bcd60e51b815260206004820152600b60248201526a30b2323932b9b99032b93960a91b6044820152606401610432565b6001600160a01b038216600090815260036020526040902054811115610aa95760405162461bcd60e51b815260206004820152600b60248201526a3130b630b731b29032b93960a91b6044820152606401610432565b6001600160a01b03821660009081526003602052604081208054839290610ad1908490610d51565b925050819055508060026000828254610aea9190610d51565b90915550506040518181526000906001600160a01b038416907fddf252ad1be2c89b69c2b068fc378daa952ba7f163c4a11628f55a4df523b3ef90602001610633565b80356001600160a01b038116811461066657600080fd5b600060208284031215610b55578081fd5b610b5e82610b2d565b9392505050565b60008060408385031215610b77578081fd5b610b8083610b2d565b9150610b8e60208401610b2d565b90509250929050565b600080600060608486031215610bab578081fd5b610bb484610b2d565b9250610bc260208501610b2d565b9150604084013590509250925092565b60008060408385031215610be4578182fd5b610bed83610b2d565b946020939093013593505050565b60008060008060608587031215610c10578081fd5b610c1985610b2d565b935060208501359250604085013567ffffffffffffffff80821115610c3c578283fd5b818701915087601f830112610c4f578283fd5b813581811115610c5d578384fd5b886020828501011115610c6e578384fd5b95989497505060200194505050565b600060208284031215610c8e578081fd5b5035919050565b6001600160a01b038681168252602082018690528416604082015260806060820181905281018290526000828460a084013781830160a090810191909152601f909201601f19160101949350505050565b6000602080835283518082850152825b81811015610d1257858101830151858201604001528201610cf6565b81811115610d235783604083870101525b50601f01601f1916929092016040019392505050565b60008219821115610d4c57610d4c610da3565b500190565b600082821015610d6357610d63610da3565b500390565b600181811c90821680610d7c57607f821691505b60208210811415610d9d57634e487b7160e01b600052602260045260246000fd5b50919050565b634e487b7160e01b600052601160045260246000fdfea2646970667358221220d350a7e5c939d1ebfbcd3f144cc2befb4c5b7093474c1ac88e1f0d033979543564736f6c63430008030033a2646970667358221220c537f0ea8ed9de87127157339f95fa5db4bd7803443c1610578b72868072162264736f6c63430008030033",
  "linkReferences": {},
  "deployedLinkReferences": {}
}